:020000021000EC
:10800000004000205D070200990702009B07020064
:108010000000000000000000000000000000000060
:108020000000000000000000000000009D070200AA
:1080300000000000000000009F070200A1070200EE
:10804000A307020041B5010069040200A307020072
:10805000A3070200000000005D050200A307020064
:10806000A3070200D1FF0100CD040200A307020014
:10807000A3070200A3070200A3070200A307020050
:10808000A3070200A3070200A3070200A307020040
:10809000A307020095FB01002DEF0100A3070200DA
:1080A000A3070200A3070200000000000000000078
:1080B00000000000000000000000000000000000C0
:1080C00010B5064C2378002B07D1054B002B02D0AE
:1080D000044800E000BF0123237010BD20220020CF
:1080E00000000000DCAD0200044B10B5002B03D0F3
:1080F0000349044800E000BF10BDC0460000000076
:1081000024220020DCAD0200164B002B00D1144BC2
:108110009D46402292029A1A924600218B460F46B3
:108120001348144A121A11F0C7FB0F4B002B00D052
:1081300098470E4B002B00D09847002000210400E8
:108140000D000D48002802D00C4800E000BF0CF0E4
:1081500037FE2000290011F039F90CF01BFEC04653
:1081600000000800004000200000000000000000A7
:1081700018220020102B002000000000000000004A
:1081800010B50400034B036040300DF02FFF2000BA
:1081900010BDC046809B0200EB23194A9B0010B51E
:1081A000C2501C330400C0180DF020FFF1239B00C7
:1081B000E0180DF01BFF84239B00E01801F0BCFFCA
:1081C0002000C530FF3001F0DBFC20008D30FF3097
:1081D00001F078FF20006530FF3001F073FF2000D0
:1081E000EC3002F04BFC2000D03003F021F82000EE
:1081F000643007F04BFD201DFFF7C2FF200010BDCB
:10820000549D020070B58B880A0083808B790832F8
:1082100083710B4B03600723CB56C37103000833F4
:1082200070CA70C370CA70C30B6A03624B1DDA7FD9
:10823000431DDA770631CA7F831DDA7770BDC046E9
:10824000289C02008B8883808B798371054B0360A7
:108250008B6883600B7B03734B7B43730E23CB567E
:1082600083737047509B0200F7B5026A8369013A35
:1082700004000191934207D0002B01D00A781A70B4
:10828000A3690133A361F7BD436A02684668991A7E
:108290008910711A012922D841695D1AAD106F1C2D
:1082A0007D1C6800864238D9751B6D08AD005519D4
:1082B00004335A1AA94228D9280099422AD1802287
:1082C0002B689200E3609B182361254B6561FB18C6
:1082D0009B00ED182B686562E3619B182362802088
:1082E0008000656A01F06CF96860A369002B02D018
:1082F000019A12781A70636A1A1D626280225B68A2
:1083000092009A18E3612262BCE7B8009942D6D085
:10831000801A281811F0BDFAD1E70123002E00D0F1
:1083200033000236F6180E4B9E4201D911F07EFA48
:10833000B00001F045F9751B636A6D086169AD0015
:108340001A1D009045198A4203D0521A280011F0D4
:10835000A0FA206801F054F9009B66602360AEE744
:10836000FFFFFF3FF0B51D008FB0029104002449CC
:1083700004A8039201F030FA2800C822EC30520021
:1083800004A902F05FFD04A80DF030FE03980EF082
:1083900015F9051E31D101F0DBF900900191029829
:1083A0000EF00CF9002826D101F0D2F906000F00DA
:1083B000002DEBD02269A36961699B18E2699B1AC1
:1083C000A2689B1A626A521A9210013A52029B18D2
:1083D000052B12D8210004A80DF0A7FB009A019BE1
:1083E00030003900801A994104AA0DF050FB04A80E
:1083F0000DF034FBCAE70125D1E701200FB0F0BD35
:1084000068A70200F0B5F14CA544F14C200000F043
:10841000B7FBF0480EF0D2F8002800D17BE226002E
:10842000ED4902A80DF081FBEA490CA8FFF7EAFE2E
:10843000EA4916A8FFF7E6FE237820AD2B70083630
:1084400022AB06CE06C3320024AB83CA83C383CAE1
:1084500083C322002AAB283283CA83C383CA83C35F
:10846000236C31A82B64DE4BDE496B600DF015FEEA
:10847000A36C02A9AB64E36CEB64330040331A785D
:1084800034AB1A70230052331A88CA235B181A803F
:10849000230054331A8835AB1A80A36D4C36AB6574
:1084A000327837AB1A7023005E331A88D6235B18F4
:1084B0001A80230060331A8838AB1A802200CA4B16
:1084C00068326B663AAB43CA43C343CA43C3231DF6
:1084D000DB6F41A9409323000A00843343CB43C29E
:1084E00043CB43C247A923000A009C3343CB43C27A
:1084F00043CB43C24EA923000A00B83343CB43C247
:1085000043CB43C22300D8331A8856AB1A802300CA
:10851000DA331A78A92302A95B005B181A70B34BEF
:1085200026005493B24BFC3655932300DC331B6872
:1085300057932300E0331B6858932300E4331B68F0
:1085400059932300E8331A885AAB1A802300EA3380
:108550001A88B1235B005B181A802300F0331A8855
:108560005CAB1A802300F2331A78B5235B005B18EA
:108570001A70A04B5B932300F3331A786C23FF33FC
:108580005B181A702300F4331A785DAB1A7023005D
:10859000F5331A786E23FF335B181A702300F63315
:1085A0001A78B7235B005B181A702300F7331A7828
:1085B0007023FF335B181A702300F8331A785EAB10
:1085C0001A702300F9331A787223FF335B181A707C
:1085D0002300FA331A78B9235B005B181A703368EA
:1085E000621D5F93FF3261AB83CA83C3220073694C
:1085F00019326493B369FF32659366AB83CA83C350
:1086000083CA83C39A227C4B52006093736BD7203A
:108610006C93A35C02A9AB542300FE331A8F400075
:1086200009180A80D8215B8F02AA490052181380CA
:1086300072496FA80DF031FDA0225200A35A704973
:10864000AB52A1235B00E25C71A8EA540DF025FD5A
:10865000A4235B00E25A6B4973A8EA520DF091FD26
:10866000A8235B00E25A6849EA520233E25C78A828
:10867000EA54B36D7593AC235B00E25CEA54336E4D
:10868000019377930DF07DFD604979A8FFF7BAFD5E
:108690005F4983A8FFF7B6FDDC235B00E25A2100A7
:1086A000EA520233E25C5B48EA545B4A063BEA501A
:1086B0000833E25AD331EA520233E25AFF31EA5226
:1086C0000233E25CEA540833E25AEA520233E25CD3
:1086D000EA54524A063BEA500833E25AEA5202335D
:1086E000E25AEA520233E25CEA5402AB0622C018B4
:1086F00011F0C6F82200D93296ABFF3243CA43C309
:1087000043CA43C3F8235B00E2584548EA500433A8
:10871000E258EA500433E258EA500433E25CEA5487
:10872000FE23FF33E25CEA540133E25AEA52023399
:10873000E25AEA523B4B0E22E11802ABC01811F08C
:108740009FF885239B00E25AEA52374BE25CEA54D9
:10875000364A063BEA500833E25AEA52344BE25AB0
:10876000EA5287229200A7ABA21843CA43C38A22C7
:108770009200AAABA21843CA43C38D229200ADABAC
:10878000A21843CA43C343CA43C393239B00E2587E
:10879000EA500433E258EA500433E258EA50962291
:1087A0009200B6ABA21843CA43C39A239B00E25A75
:1087B0002049EA52204BBFA8E25CEA541F4A063B1C
:1087C000EA500833E258EA50043339E084FBFFFFF3
:1087D000C42200204C2200209C2200207422002071
:1087E000809B020008230020CCA00200E89C02002D
:1087F0000C9D0200D09C020024A102000024002055
:1088000008240020102400202424002028240020F4
:10881000502400204A020000689B0200109C0200C5
:108820007A0200000202000016020000989C02007A
:108830001A020000402500206A0200003C9D020050
:10884000E258EA500433E25AEA52364BE25AEA520C
:108850000233E258EA500DF06EF8EC239B00E25A26
:10886000FFA8EA52304B3149E25C4830EA54304AC2
:10887000063BEA500833E258EA500433E258EA5023
:108880000433E258EA500433E258EA500DF005FC94
:10889000FFA828494C300DF000FCF4239B00E25A5D
:1088A000EA52254BE25CEA54244A063BEA50244B48
:1088B000E25CEA540133E25CEA540433E258EA50E1
:1088C0000433E258EA500433E258EA50F922FFAB8D
:1088D0009200A218683303CA03C3FB22FFAB9200C5
:1088E000A218703303CA03C3FD239B00E2580CA9EE
:1088F000EA5002A82B0016AAFFF734FD2800FFF764
:108900004BFC16A801F0DEFB0CA801F0DBFB02A873
:108910000DF0A4F883E50B480DF050FE002800D1BF
:1089200077E5FEE776020000B2030000882600200B
:10893000549D02008C260020D2030000249D0200DA
:10894000D303000074220020F7B5234C200000F070
:1089500057F8224E22493200200010F04AFF03232C
:10896000204C1A000721200002F078FD32001E4939
:10897000200010F03EFF002401231C4D1A0000943B
:108980001121280001F0AAFB194F320039002800FC
:1089900010F02FFF174D0123009402221A21280006
:1089A00001F09CFB32003900280010F022FF124D2C
:1089B000210028002C606C60AC60EC602C616C6164
:1089C000AC61EC612C626C620DF07DF83200280025
:1089D0000A4910F00EFFF7BDC4220020002000203D
:1089E000998101003C220020F35802004C22002013
:1089F000C5A00100742200209C220020835A02009E
:108A00001423F0B5040095B0009319221821043006
:108A100002F0E6FD220027006432B4371321100073
:108A2000119207F03FF938000EF025FB2200B83212
:108A300010921E21002210980DF0E2FF2000D0308D
:108A400002F016FC2200EC3212920621494A1298DA
:108A500002F038F820000026012365301A00009645
:108A60001121FF3001F03AFB20008D3000960123E8
:108A700002221A21FF3001F031FB25002000C5350C
:108A8000B530FF351A2302220121FF3002F0AEFC7F
:108A9000109904233A22280001F022F9842292003E
:108AA000A218139205231D22019300923B002A0075
:108AB0001099139801F036FD96229200129BA0188F
:108AC00013992A0001F008FF99229200A01839009A
:108AD0001C2202F0B1FE19239F220F93013B0E933B
:108AE000013B0D93013B0C93013B0B93013B0A931C
:108AF000013B0993013B0893013B0793013B06931C
:108B0000013B0593013B0493013B0393013B02931B
:108B1000013B01939200013BA01800930822013B06
:108B200007210DF075FFEB239B00E018390003F0DF
:108B300023FAF3239B00E0181D2102F09DFCFD2386
:108B40009B00E65011982670032110F076FB23005D
:108B50002200200008499C33A0321C60116056603E
:108B6000064A80305A610221012207F0A9FD200047
:108B700015B0F0BD889B02003D5C0200275C02003E
:108B80000123F0B5067889B004001E4000D0ADE0A6
:108B9000FD20800500F0DCFC2300D0331800029398
:108BA00000F0B0FA00F0A6F9282000F009FD050059
:108BB00010300DF0ACFA4E4B18202B6000F000FD89
:108BC00007004C4B0460082231000C3006930796D6
:108BD00010F072FE06A9381D082210F051FE464B17
:108BE00029007B611223AF60EE60AB802E626E6263
:108BF000029802F0B5FA002805D028000DF0ACF973
:108C0000280000F0FDFC0123227864201343237028
:108C100000F094FB002523006533FF331800039315
:108C20000DF0CCFC00283CD020008D30FF300DF042
:108C3000C5FC002835D00A2D33D06420013500F062
:108C40007DFB0A2DE7D12D492D4800F057FCFD276B
:108C5000EB23BF009B00E618E359002B1AD100F06C
:108C60005DF8010004A800F0B7FD05A80DF058F864
:108C7000012305AA04A900933000029B03F0D0F958
:108C800005A80DF0B3F904A80DF0B0F9ED239B0091
:108C9000E358E3512100039AEC31300003F066FB06
:108CA000B9E7FD2515491648AD0000F027FC6659C7
:108CB000002E1BD100F032F8010004A800F08CFD5A
:108CC00005A80DF02DF8EB239B00E01805AA029BE8
:108CD00004A9009603F0A4F905A80DF087F904A8EB
:108CE0000DF084F9ED239B00E358635109B0F0BD0A
:108CF000FD030000AF5C02006F5C0200002000205A
:108D0000001C0020BFF34F8F024B034ADA60BFF311
:108D10004F8FFEE700ED00E00400FA05F0B58DB0DE
:108D200005AF19221549380010F0AAFD0022144B96
:108D300005245A7180225205566E012225000194A5
:108D4000029203930199300007F018FE080002997F
:108D500007F08EFD019B03996B430193029B361A2A
:108D60006B430293631E2C1B6C433C19225C1C1E3C
:108D7000CA54E7D108000DB0F0BDC046A0A702005C
:108D80003E2A0020F0B597B018220021060010A856
:108D900010F092FD132110A810F080FB032110A801
:108DA00010F04BFC4C4B1B68002B00D10133DBB2A5
:108DB00002934A4A012300210BA807F0BBFB484B52
:108DC0009E4200D9002672B6464B64211D68464B70
:108DD00030000793052407F0D5FD60435030281874
:108DE00008900A21300007F0CDFD0A2107F0B0FEFF
:108DF000614350316918099130000A2107F0A8FE3B
:108E0000802361430024503169189B010A9101932A
:108E1000029B002B5DD0002500272E1F07AB9B195E
:108E20000593032C03D1802300249B01019307ABFE
:108E30005B592E4A03936300D3180493002319004F
:108E400006205843049A16187678B4466246039E64
:108E5000B25C10269446049A105C624606411642A3
:108E600002D00120984001430133092BE8D1C943C6
:108E70001F4B059A090119401268039B934225D1A3
:108E8000312F23DC00210BA810F0A9FCFA23159A3E
:108E90001199DB00106801421BD0013B002BF9D176
:108EA000019B01345B000193FA230137E4B25B00BC
:108EB0009F42B6D10435102DAED1074B1B68002B55
:108EC000A6D0029F013FFBB20293A1E7019B194389
:108ED000D9E7FFF717FFC046C0260020F0FF0000CB
:108EE000E703000004200020EFA70200B9A702005A
:108EF000F01F0000F8B50023124C23600CF031FF86
:108F0000002808D0042120000CF027FF002801D001
:108F10000D4B2360F8BD0122A12704250B4B0C4902
:108F20001A602268FF0048604E68002EFCD0DE59AF
:108F30001202013D3243002DF5D1226001225A6018
:108F4000E8E7C046BC260020ED5EBC0B00D0004028
:108F5000FCD00040F0B585B01F000AAB1B880600AE
:108F6000029115000393002F1CD0282000F028FB4D
:108F70006B4604001989039BAAB200933B000CF0D6
:108F8000D4FF336821005B683000984700280AD07E
:108F9000002C05D020000CF0DFFF200000F030FB9B
:108FA000024800E0024805B0F0BDC04616FCFFFFD5
:108FB00017FCFFFF0B4B70B51C68002C10D0656DC3
:108FC00000F0C6FBA36C002901D1834206D8200023
:108FD0000CF0F9FE044920000CF0E3FE2C00ECE755
:108FE00070BDC046C8260020E8260020F0B593B02A
:108FF00007932A4B04AC1E68049005910692002E3C
:109000004AD0274B258867881C6800230293002CD0
:109010002ED0636D23480393A36C9AB2A36C1B0CF0
:1090200099B2854214D12048824211D1002B01D03F
:10903000B9420BD1029B002B08D120000CF0C3FEDB
:109040001A4920000CF0ADFE01230293039CDEE7D9
:10905000002A01D09542F9D1002B01D0B942F5D1B7
:1090600020000CF0B0FE114920000CF09AFEEDE754
:109070000F4BEB18012B0FD910233A000093290056
:109080000C4B08A80CF051FF336808A99B6830000E
:10909000984708A80CF060FF13B0F0BDC42600206C
:1090A000F4260020FE030000FF030000E826002055
:1090B00002FCFFFFED8F010010B572B60B4B1C6870
:1090C000002C08D020000CF07EFE0023E364084B47
:1090D0002000E36310BD62B65C2000F071FA5C22F0
:1090E0000021040010F0E8FBEFE7C046EC2600206A
:1090F00000400020024B1878012318407047C046FA
:10910000442A0020F7B50600FFF7F4FF051E33D10F
:109110001A4C2660FFF7D0FF194B1A4918600CF063
:1091200040FEFFF7C9FF184B1860184B4363184BFC
:109130008363206800280ED0C027164E2A00330013
:1091400015490097FFF706FF009733002A001349DF
:109150002068FFF7FFFE0C2000F032FA0023838026
:1091600083710F4B03600F4B836000F009FB0123F9
:109170000D4A11780B431370F7BDC046C42600207A
:10918000F8260020E8260020F0260020FC3F0020E2
:109190008D5E0200ED8F0100FF030000FE03000062
:1091A000A89B0200B58F0100442A0020F7B50600F5
:1091B0000D0017000193002802D100242000FEBDFD
:1091C0000029FAD0FFF778FF041EF6D0074B019A6A
:1091D0004363066045608760054B002A00D0054B5D
:1091E000A363054920000CF0DCFDE7E7FC3F00200D
:1091F000575E0200755E0200E8260020024B1868E8
:10920000434258417047C046E8260020002310B56D
:1092100004499C006258002A01D00133F9E76050EC
:10922000100010BDD0260020002310B5044A99007C
:109230008C58844201D00133F9E70020885010BDDA
:10924000D026002010B50024084BA200D0580028DA
:1092500002D003685B6898470134062CF4D1044BB4
:109260001B68002B00D120BF10BDC046D0260020B7
:10927000E8260020F8B5FFF73DFF00281BD0294D58
:109280002C68E36CDA0717D502263343E364042322
:10929000254F3868C26C1343C364636BC3630CF01F
:1092A000B8FD3868416C03F05EFC2868C36C33423B
:1092B00001D003F092FCF8BD1C4F1D4E3A68316896
:1092C000002A1ED129602A688A4208D11B0706D5C8
:1092D0002C60FFF7B7FF3B68002BFAD02B602968A2
:1092E0008C42E8D03368994214D1124B4B63124B35
:1092F0008B6320000CF08DFD2968626C4B6C2000A4
:109300000DE0206DB84203D1606D002800D002004E
:109310002A60D8E79C42ECD1002210004B6C03F08D
:10932000E1FBC8E7F8260020CC260020E826002034
:10933000F0260020FC3F00208D5E020070B5050085
:10934000FFF7D8FE002803D1280010F06AF970BD9D
:109350000C4B1C68E36CDB0706D5FFF7ADFE0A4B30
:109360001860002800D0040000F0F2F92D18A56460
:1093700020000CF028FD054920000CF012FDFFF73D
:1093800079FFE4E7F8260020CC260020C82600203C
:10939000F0B51E4B1E4F1C683B6885B0060003915C
:1093A000002B30D0FFF7A6FE00282CD0E36CDB07A3
:1093B0000ED5FFF781FE174B051E186008D00CF084
:1093C00002FD154928000CF0ECFC2C00FFF752FFC1
:1093D000039B20001B043343A3640CF0F4FC200027
:1093E0000E490CF0DEFC0E4B0024F318012B07D9BC
:1093F000C0230093039A0B4B31003868FFF7AAFD96
:10940000200005B0F0BD084CFAE7C046F826002061
:10941000C4260020CC260020E8260020F4260020C8
:1094200002FCFFFFED8F010016FCFFFF10B5FFF7F8
:1094300061FE002809D0054C20680CF0C4FC0449EA
:1094400020680CF0AEFCFFF715FF10BDF8260020D9
:10945000EC260020F7B507000D0000282ED0FFF7FE
:1094600049FE00282CD00724164E3068C36C1C40DF
:1094700007D0154A290038000CF0BCFC002420005D
:10948000FEBD03F092FB02213268D36C19400191BA
:1094900003D003218B43D364F1E701242343D36436
:1094A0002800B8473268D36C1900A143D164019CED
:1094B0005B07E4D528000CF0D5FCE0E7034CDEE7C1
:1094C000034CDCE7F8260020655E020017FCFFFF76
:1094D00016FCFFFF020010B5014B12CB12C210BDEB
:1094E000FC260020034B1A68034B1A607E225A6048
:1094F0007047C04604200020FC26002070B5104DA7
:109500002B78022B18D0814218D90B1A072B15D9AA
:109510000C00032304431C4010D172B62A78094B77
:10952000D200D050981841600CF0B6FC2B78013373
:109530002B7062B6200070BD0348FCE70348FAE7D1
:10954000452A00200427002013FCFFFF17FCFFFF23
:1095500070B50021041C07F01DFB002828D1FE2156
:10956000201C890507F020FB002821D104300BF0D6
:109570004BFC05000F48401B08F0F6FA211C07F0D1
:1095800093FF07F045FB03239843040028000BF0EA
:1095900045FC20000BF038FC002804D1203C002CB6
:1095A000F7D1054803E00119FFF7A8FF002070BDBF
:1095B0000248FCE70038002013FCFFFF17FCFFFF08
:1095C00070B5060000250C4B1B78AB4209DD0B493A
:1095D000EB00C91830000CF067FC041E09D10135FE
:1095E000F1E730000BF010FC041E02D11420FFF74D
:1095F000C9FB200070BDC046452A0020042700207A
:1096000070B5002813D00D4B0D491C7800239C42E7
:1096100010DDDA00555885420AD28A185268824213
:1096200006D98023043802681B061343036070BD0B
:109630000133ECE70BF0F2FBF9E7C046452A0020C6
:109640000427002070B5051E14DD0B4E0B4C33684B
:10965000002B02D020680FF06DFEFA212068002454
:10966000074B89008361C462694335600FF06AFE6D
:10967000200070BD0348FCE7142700204427002089
:109680002D97010017FCFFFFF8B5114F06003D684C
:10969000002D0AD13020FFF793FF040006F026FBCF
:1096A0000C4BA5612360E5623C600B4D2B68002BE1
:1096B00009D11020FFF784FF04000FF004FE200002
:1096C0002C600FF0DAFD3000FFF7BCFFF8BDC0469C
:1096D00044270020F0A0020040270020014B18681A
:1096E0007047C0461427002070B50D4C2368002B2E
:1096F00003D00C4B1B68002B02D10620FFF7C4FFE0
:1097000020680FF0D1FD02000749C3170D684E68AD
:109710005219734120680A604B600FF0CBFD70BD99
:1097200040270020442700201822002010B5FFF712
:10973000DBFF0024054BA200D058002802D00368AC
:109740001B68984701340A2CF4D110BD182700205B
:1097500010B5FFF7C9FFFA22034B92001868596849
:10976000002307F035FA10BD1822002010B5FFF7CE
:10977000BBFF024B1868596810BDC0461822002074
:109780000B4B10B51B680400002B03D0094B1B6862
:10979000002B02D10620FFF777FF0023064A99002D
:1097A0008858002801D00133F9E78C5010BDC0461D
:1097B000402700204427002018270020002310B550
:1097C000044A99008C58844201D00133F9E7002003
:1097D000885010BD1827002010B50400002902D0C1
:1097E0000B78002B03D1034B2360200010BD0CF03D
:1097F00004FCFAE7B89B0200F8B504000E0015005F
:1098000000290AD00B78002B07D0002A05D00800C9
:1098100097B210F091F8874203D90B4B23602000D8
:10982000F8BD681DFFF7CCFE20600CF075FD2368C5
:109830002A005F8023683100181D10F021F823688A
:109840005D1900232B71EAE7B89B0200014B03600E
:109850007047C046B89B020010B50548054C206013
:109860000CF05DFD044A054920000FF0C2FF10BD59
:10987000B89B02004827002000200020ED5F020076
:10988000084B73B51C680500002C0AD0010026683F
:109890000831082268460FF0F3FF0CCD3168200034
:1098A000884773BD4C270020014B03607047C046BA
:1098B000C09B020030B500684488A1420CDA85885C
:1098C000AA4209DA002907DB002A05DB54434018C5
:1098D00000198371002030BD0048FCE717FCFFFF32
:1098E000F0B5070085B00E001D0000291FDD002B1C
:1098F0001DD00468638803938B4200DD0391A38825
:109900000293934200DD0292002306340193019BEF
:10991000029A93420EDA29002000039A0FF0B0FF5A
:109920003B68AD195B88E418019B0133EEE7024800
:1099300005B0F0BD0020FBE717FCFFFFF8B5040001
:109940000D0016001F00002901DB002A02DA0E4B71
:109950002360F8BD100048430630FFF731FE206059
:109960000CF0DAFC23685D8023689E80002F06D00F
:109970003B00320029002000FFF7B2FFE9E720009A
:109980000CF007FCE5E7C046C09B0200F0B50600FE
:1099900087B00D1E04D1244B0360300007B0F0BD2A
:1099A00000200F000400010001903B78002B1AD02A
:1099B0003022524294469C446246092A11D90A2B0D
:1099C0000AD1019B241801330193A14200DA21003E
:1099D000002004000137E8E70028FBD00134002014
:1099E000F8E70120F6E76A46928809B212B2300021
:1099F000FFF7A4FF33689C1D03AB1F002A78002AE1
:109A0000CBD011003039092903D81A700133013540
:109A1000F4E700221A70BB42F9D938000FF010FFAA
:109A20003B0020700134F2E7C09B0200F0B5040057
:109A300089B006A80E0002921D00FFF74BFD2368B7
:109A400002995A88914235DA9B889D4232DA1F2E5C
:109A500030D9079B01939E422CDC052300227343DF
:109A60000393069B0493039B04999B18A03BCB5C38
:109A700000210593AE18029BCF18236858880190E7
:109A800087420EDA9888B0420BDDDB1910270F41B0
:109A9000019870431B1805980740781E87417F4244
:109AA0009F7101310529E6D10132052ADBD1002061
:109AB00009B0F0BD0048FBE717FCFFFFF7B50468ED
:109AC000070063880E1E01931EDD994218DA0023F9
:109AD000063400933B68009A9B889A4212DA019BF5
:109AE000A1199D1B2A0020000FF0CAFE6019310049
:109AF0000CF041FB3B685B88E418009B0133E8E70E
:109B00000CF047FB002000E00048FEBD17FCFFFF03
:109B100010B50548054C20600CF001FC044A0549CD
:109B200020000FF066FE10BDC09B020050270020F1
:109B3000002000206961020010B5054C01212000C1
:109B40000CF0E1FB034A044920000FF052FE10BD67
:109B50005427002000200020C36202000388074A27
:109B600010B50120934208D0834202D00020DB07C9
:109B700003D41E20FFF706F9002010BDFFFF0000F0
:109B800010B50400034B08330360FFF74DFB2000C2
:109B900010BDC046089C0200FA2270B543899200AD
:109BA0005343314A31491400050038348B421BDCE1
:109BB0002F498B4218D82F49083C8B4214D82E4984
:109BC000083C8B4210D82D49083C8B420CD82C49BC
:109BD000083C8B4208D82B49083C8B4204D82A49C0
:109BE00014008B4200D90834284B2A7B1E1D042AFE
:109BF00003D89E1C022A00D81E00FA212068890082
:109C000006F036FE337868812B7300222A21280063
:109C10000CF0A8FB002801D01D4870BD10222B219C
:109C200028000CF09FFB0028F6D101222D212800EE
:109C30000CF098FB0028EFD101222E2128000CF017
:109C400091FB0028E8D172780E2128000CF08AFBE5
:109C50000028E1D1012223792A211A4328000CF09F
:109C600081FB0028D9D0D7E7C89B020000C40900B7
:109C70000071020080380100204E00001027000013
:109C800088130000C4090000E2040000CFA902000C
:109C90000EFCFFFF7FB515000F226A4404001E0072
:109CA0001170002D16D0002B14DD012301890093C3
:109CB000006B01F0D1F9002802D0074804B070BD54
:109CC0000090218933002A00206B01F07BF90028E5
:109CD000F4D0F2E70148F1E70EFCFFFF17FCFFFFAD
:109CE000F7B50600002501931E4B14360833040017
:109CF000036085808571C581058245820F000092D1
:109D00002900182230000FF0D7FD1C2130000FF081
:109D1000C5FB6B469B880221A3806B461B882200F3
:109D200023811423A5712173A563A58763813E3226
:109D3000137827638B43F1310B4013702300957226
:109D400095810135221DD5870833A21DD5872000B6
:109D5000DD87FFF721FF002802D1A3791D43A571FC
:109D60002000FEBD089C020030B50425837987B031
:109D700004002B4204D1FFF749FAA3791D43A571D2
:109D8000A36AA2691B6800251A4208D106236A4605
:109D900001212000FFF77EFF051E03D0114D280092
:109DA00007B030BD6B460222042069469A56185609
:109DB000237BD2005A43228202220978C00049B292
:109DC000C900594343436382A379E1819343A3715B
:109DD00020000CF0D5FA0123A1881A0002A80CF08B
:109DE000A0F9DCE70EFCFFFFF8B50400FFF7BCFFAD
:109DF0000E22A35E794F5B42BB4251DA23003E3311
:109E00001B789B074CD50125210028003E310B789B
:109E10005A08904302000220AA40834313430B7068
:109E20002000FFF7A1FF1022A35E5B42BB4248DA8D
:109E300023003E331B785B0743D501252100280012
:109E40003E310B789A0890438200042083431343E9
:109E50000B7026002000FFF787FF1222A35E483612
:109E6000BB423EDA23003E331B781B0739D5210065
:109E700001223E310B78D80882430820D200834368
:109E800013430B703378032B3BD80133DBB23370B1
:109E9000012B00D08DE0230000224A331A8030E0ED
:109EA0002000FFF761FF0E22A35EC8225B42520032
:109EB00000259342B4DD23003E331B789B07A2D5D7
:109EC000AEE72000FFF750FF1022A35EC8225B42DE
:109ED00052009342BDDD23003E331B785B07ACD5B7
:109EE000B7E72000FFF740FFC8231221625E5B0046
:109EF0009A4204DD23003E331B781B07B7D5002DA3
:109F0000C0D13278002A14D02100270001254A311F
:109F10000B883E3701339BB20B803878AC46054046
:109F200055D01D2B05D963469843002338700B800C
:109F3000337020000CF090FA294A0723904244DD48
:109F40002000FFF711FF0E23E25E264E524203234C
:109F5000B2423ADBC8252000FFF706FF0E23E25E7F
:109F6000AD0052420423AA422FDC2000FFF7FCFE82
:109F70001023E25E02235242B24226DB2000FFF7AA
:109F8000F3FE1023E25E01235242AA421DDC2000B0
:109F9000FFF7EAFE1223E25E0523B24215DB200042
:109FA000FFF7E2FE1223E25E0623AA420DDC002345
:109FB0000BE0042BA5D122003E321178033B0B436A
:109FC000137000234A3423800B331800F8BD092B8B
:109FD000AFD9013A0D803270ABE7C04670FEFFFF8B
:109FE000FF700200E0FCFFFF70B5C369C1681A682A
:109FF000451D8AB00400EB7F114255D0002B58D18B
:10A00000EB7F082B0DD90122A379134209D1134309
:10A01000A371A188130006A80CF083F8FFF798FB42
:10A020002062EB7F012B23D80123A2791A421FD093
:10A030000025A188A571022202A80CF072F8A31DC8
:10A04000DE7F012E14D1FFF783FB2B00226A801ADA
:10A05000994100900191019BA188AB4203D1174B1C
:10A06000009A9A4227D90123042206A80CF059F835
:10A070000322A3791340012B14D1FFF769FB0023BE
:10A08000226A801A9941994202D10D4B984209D90E
:10A090000223A279A1881343A3710522012306A8F4
:10A0A0000CF03FF80AB070BD0B2BA9D80133EB7749
:10A0B000A6E7013BFBE733000322D6E7E7030000F6
:10A0C000DB05000010B50400034B08330360FFF705
:10A0D00075FB200010BDC046209C0200F0B50700B3
:10A0E00000250E0085B002930AAB1B780837039356
:10A0F000104B0400083303600192858085712900AC
:10A10000182238000FF0D8FB039A310038000FF006
:10A11000CAF96B466A469B88127AA380A31DE67132
:10A12000DA77631D25622000DD77FFF729FB200029
:10A1300005B0F0BD209C020010B50400034B0833AD
:10A140000360FFF771F8200010BDC046909C02002C
:10A150007FB515000F226A4404001E001170002D07
:10A1600016D0002B14DD012301890093C06B00F091
:10A1700073FF002802D0074804B070BD0090218909
:10A1800033002A00E06B00F01DFF0028F4D0F2E756
:10A190000148F1E70EFCFFFF17FCFFFF002330B57D
:10A1A00085B003AC217001890093050001332200C2
:10A1B000C06B00F051FF002802D0094805B030BD47
:10A1C00020802989009002232200E86B00F0FAFE2B
:10A1D0000028F2D1237860781B02184300B2EDE723
:10A1E0000EFCFFFF13B56B46DC1D0023220023701D
:10A1F0000133FFF7ADFF002801D1207816BD0148DB
:10A20000FCE7C0460EFCFFFFD0B504000CF0FEF9E1
:10A21000E268A369981A09F0F5F806000F002369AF
:10A22000E069C01A09F0EEF832003B0009F038FC92
:10A230000022104B08F0F6FA0F4A104B07F0F0FF1F
:10A2400009F06CF90021041C06F09AFC002804D0E7
:10A25000201C0B4906F0B6FD041C201C09F00CF96B
:10A2600002000B000020074908F04EFD09F094F8A9
:10A27000D0BDC04600806640EA2E4454FB21094010
:10A280000000B44300807640F0B5050085B0006C56
:10A290000CF07FF9061C286C0CF072F90221071CE7
:10A2A00028000CF0E4F90221039028000CF0F1F9E9
:10A2B00007F010FC0221041C28000CF0FCF907F048
:10A2C00009FC051C301C09F0ADFB0290301C09F0A4
:10A2D0006BFB0190381C09F0A5FB061C381C09F02B
:10A2E00063FB071C039807F0F5FB391C07F0DCF84B
:10A2F000311C071C201C07F0D7F8029907F0D4F88E
:10A30000011C381C06F05EFD311C071C281C07F0E0
:10A31000CBF8019907F0C8F8011C381C06F052FD73
:10A320000299061C281C07F0BFF80199051C201C87
:10A3300007F0BAF8011C281C07F0E8F9311C09F0F5
:10A34000B3FB0D4907F0B0F809F096F80B4A0C4B37
:10A3500007F066FF09F0E2F80021041C06F010FC8B
:10A36000002804D0201C044906F02CFD041C201CED
:10A3700007F090FB05B0F0BD0000B443EA2E445452
:10A38000FB21194070B50022102104000CF030F9B7
:10A390001B4D00282DD1032608212000FFF722FFA6
:10A3A000A84226D0304226D1FA2163898900594338
:10A3B0005023144AD518D058884204D3D518083BE6
:10A3C00018000830F7D1FA212868890006F050FA01
:10A3D000A0226081112120000CF00AF9002808D188
:10A3E00001222B7910211A4320000CF001F90028DA
:10A3F00000D0034870BD6420FEF7A0FFCCE7C04644
:10A400000EFCFFFF389C02007FB504258379040011
:10A410002B4218D102260CF0F9F8A379A188B34396
:10A420002B43A3710622012368460BF07AFEA07924
:10A4300003003040AB43A37143425841034B4042B9
:10A44000184004B070BD0248FBE7C04614FCFFFF93
:10A4500015FCFFFF10B5837904005A070DD49B0744
:10A4600001D4FFF7D1FF236C2000002B02D0FFF7AF
:10A470000BFF10BDFFF7C8FEFBE70148F9E7C04638
:10A4800015FCFFFF70B5466C86B001AC050001916C
:10A490006260A360002E0CD00B4905A8FFF79CF961
:10A4A0000C23220005A930000CF024FE05A80BF0B7
:10A4B0009DFD2B000C3307CC07C30223AA7913435D
:10A4C000AB7106B070BDC046D5A90200642330B59B
:10A4D00004000281438185B08180FFF753FF02228F
:10A4E000A379606C9343A371002813D00C490CF03E
:10A4F000C8FD051E0ED001000C22103101A80FF07E
:10A50000BFF920000199029A039BFFF7BBFF2800C7
:10A51000FFF776F80123A2791343A37105B030BD8C
:10A52000D5A90200F7B5009308AB1B88040001937E
:10A5300009AB1D8800230F0016000D4A83800832E6
:10A5400083710260C360036143618361C36103621D
:10A550001D2124300CF03FF8009BE763266429009E
:10A5600020006364019AFFF7B1FF2000FEBDC046E2
:10A57000909C020082B0F0B50400A5B064202B933B
:10A580002A920FF04EF804220C2109A802F086FB53
:10A590002422CC491BA80FF073F9052206A811004C
:10A5A0000BF000FEC84907A8FFF7F0F9A06800F01B
:10A5B00081FBA568C54918A8FFF70EF9782218A9EC
:10A5C000280000F0A5FC18A80BF010FD6E256420F3
:10A5D000013D0FF026F8002DF9D1A06800F06AFBCC
:10A5E000A0680CF008FA012160680BF049FF012116
:10A5F000070060680BF057FF06000A200FF011F803
:10A600000022B34B03929F4210DB013203923A00C7
:10A61000C8320BDBC822042192000391974205DC6B
:10A6200003220392C82F01DC013A039200279E42C5
:10A630000CDB33000137C83308DBC82303379B002A
:10A640009E4203DC013FC82E00DC013F06A80BF050
:10A65000A0FD0026032373431BA9CA189078002885
:10A6600005D0C95C5278FF2306A8FFF723F901360D
:10A670000C2EEFD16B463AB20C21595E06A8FF238F
:10A68000FFF718F90023A06800931A00743006A998
:10A690000BF08FFD002304930323049A0398534384
:10A6A0001BAA995C814237D1D31805935B78BB42D2
:10A6B00032D1059B9E78002E2ED1310020680BF000
:10A6C000D6FF07F007FA3200031C290009A80CF096
:10A6D0009AFF310020680BF0DCFF07F0FBF9012244
:10A6E000031C290009A80CF08EFF310020680BF034
:10A6F000E2FF07F0EFF92900031C022209A80CF081
:10A7000082FFFE2303229B05290009A80CF07BFF92
:10A710000123059AED189370049B013304930C2BCD
:10A72000BAD164200EF07DFF0B2D00DC5BE709A899
:10A730000CF055FF012201000CA802F0AFFA002531
:10A7400009A80CF04CFFA8423CDD2900002209A812
:10A750000CF047FF0022061C290009A80CF041FF5D
:10A76000011C301C06F0A0FE2900061C012209A8CD
:10A770000CF037FF0122071C290009A80CF031FF5B
:10A78000011C381C06F090FE311C06F01BFB290052
:10A79000061C022209A80CF024FF02222900071C33
:10A7A00009A80CF01EFF011C381C06F07DFE311CB0
:10A7B00006F008FB2900031C00220CA80CF023FF64
:10A7C0000135BDE709AA1100012318A80CF035FFD7
:10A7D00018A90FA80CF08EFF18A80CF025FF0CAAE2
:10A7E00009A912A801230CF028FF002312AA0FA91F
:10A7F00015A80CF022FF002215A811000CF0F1FEA4
:10A800000022061C012115A80CF0EBFE0022051CFD
:10A81000022115A80CF0E5FEFC21071C8905301C5F
:10A8200006F042FE07F036F9FC2106001890890573
:10A83000281C06F039FE07F02DF9FC2105001990BF
:10A840008905381C06F030FE07F024F92A000300C1
:10A8500031001A902068FFF715FEA0680CF0CBF8C5
:10A8600007A908A8A5680BF08CFC0022194B0092E0
:10A8700008A901932800130000F0BAFA08A80BF009
:10A8800073FCFA2080000EF0CCFEA0680CF0B3F848
:10A8900015A80CF0C9FE12A80CF0C6FE0FA80CF00B
:10A8A000C3FE0CA80CF0C0FE07A80BF05DFC06A8C8
:10A8B0000BF05AFC09A80CF0B7FE25B0F0BC08BCA0
:10A8C00002B01847E0A9020004AA020049AA020047
:10A8D000E0FCFFFFDC050000F7B583601D4B0500C1
:10A8E0001F6801604260002F31D02820FEF768FE0B
:10A8F000040010300BF00BFC174B18202360FEF700
:10A900005FFE00220600154B01920560083200210F
:10A910000C3000930EF0D0FF08226946301D0EF077
:10A92000AFFF0F4B00227361C223A3803B68E2603C
:10A93000A660226262625B682100380098470028A6
:10A9400005D020000BF008FB2000FEF759FE280080
:10A95000FEBDC0464C2700200500060075A501007D
:10A96000CF660200F0B5040085B0637A9C46002BE8
:10A9700004D120000BF0D6FE05B0F0BDA37A266FFF
:10A9800001931023019AF35600259B1801229A4047
:10A990002900F36803920293029BAB4231DDB36856
:10A9A000019A6B439B1872695B00E77AD3181A7897
:10A9B0005878E379012F14D15F1E3F1A10003A0036
:10A9C0005B004343606F8218D3189B79634500DDB9
:10A9D0006346627B1A4202D00123AB401943013522
:10A9E000DAE7022F05D15F1EBA1A277A013F381A1B
:10A9F000E6E7032FE4D1277A013FBF1A02003800AF
:10AA0000DEE71123C943F356606C9940236919406E
:10AA1000039B19430EF0E3FEA27B072AACD8637BAD
:10AA20000C495B006373531CDBB290004158A37365
:10AA3000022A03D808000EF0E9FD96E7064B200035
:10AA4000236300236363054BE462236414300EF038
:10AA500079FC91E7A89C020065A901000F6702003C
:10AA600010B50400044B03600EF064FC200005F0F8
:10AA700053F9200010BDC046F0A0020010B504003C
:10AA80000E4B08330360FEF799FE200074300BF084
:10AA90006BFB200060300BF067FB200058300BF0A0
:10AAA000A5FA200050300BF0A1FA2000044B14301E
:10AAB0006361FFF7D5FF200010BDC046C89C0200AF
:10AAC00024A10200F8B500250400324B858008332C
:10AAD00003608571143016000F0005F007F920009F
:10AAE0002D4BE562636125645030FEF7AFFE200018
:10AAF0005830FEF7ABFE20006030FEF7D5FE200098
:10AB00000423F25E33682667590009B274300BF0F3
:10AB100049FB3368226FE3717368012623721023A7
:10AB20006581A7802561D35691685918994204DD43
:10AB30003000984001330543F8E711230120D35634
:10AB4000D1685918994206DD02009A4026690133FE
:10AB500032432261F6E71420FEF732FD226900211C
:10AB60002A430123060005F0E5FCFF23220063725F
:10AB70000133A381002348326664A373200013705D
:10AB8000A366FEF7FDFD0123A27920001343A37104
:10AB9000F8BDC046C89C020024A10200F0B5437A6B
:10ABA00085B00400002B04D120000BF0BBFD05B0E4
:10ABB000F0BD0122837A11009C461023066F002508
:10ABC000F35603926344994002912900F36801937C
:10ABD000019BAB422CDDB36872696B4363445B003D
:10ABE000E77AD3181A785878E379012F10D15F1ECD
:10ABF0003F1A10003A005B004343606F8218D3187D
:10AC00009B79002B02D0039BAB4019430135DFE752
:10AC1000022F05D15F1EBA1A277A013F381AEAE7D8
:10AC2000032FE8D1277A013FBF1A02003800E2E77C
:10AC30001123C943F356606C994023691940029B64
:10AC400019430EF0CCFD667AB31EDBB2FC2B14D890
:10AC5000FEF744FD0B4B0500236300230A486363A2
:10AC60000A4BFF21E4622364704305F08BFE290048
:10AC70004143200014300EF065FB637A012B00D9AC
:10AC800095E791E725670200B60300000F67020011
:10AC90001FB5012381881A0068460BF042FA012390
:10ACA00003491A0068460BF03CFA05B000BDC046E7
:10ACB000FE0300001FB5030048331A780400002A81
:10ACC0000DD000221A70012381881A0068460BF00B
:10ACD00028FA012304491A0068460BF022FA2000E2
:10ACE00074300BF056FA1FBDFF03000010B548305A
:10ACF0000378002B06D00378012B03D001210248F2
:10AD00000BF0A0F810BDC046FF03000010B50121F4
:10AD1000040006200BF096F8064B984208D1483400
:10AD20002378002B04D02378012B01D020BFF7E734
:10AD300010BDC04616FCFFFF70B50600141E19DBDF
:10AD4000050048352B78002B02D02B78012B13D12E
:10AD5000002330001A007430FEF768FE002C07D084
:10AD600033004A331C80002407234C3634802B7078
:10AD7000200070BD014CFBE7014CF9E717FCFFFF19
:10AD800012FCFFFFF8B517000A68050052880B0097
:10AD9000012A09D1002118000BF0ACF900220100B2
:10ADA0002800FFF7C9FFF8BD002F19DD060048365F
:10ADB0003278002A02D03278012A13D12A000024E6
:10ADC00028005C321900148058300BF06EF92B000B
:10ADD0004A331F8003234C352C8020003370E2E778
:10ADE0000148E0E70148DEE717FCFFFF12FCFFFF28
:10ADF00073B5079C0500002C1CDB06004836307834
:10AE0000002802D03078012816D106981BB2C0B2B3
:10AE10000090280012B274300BF0CBF9002C07D050
:10AE20002B004A331C80002407234C352C803370C0
:10AE3000200076BD014CFBE7014CF9E717FCFFFF52
:10AE400012FCFFFFF7B505000E00171E26DDFFF709
:10AE50004DFF2B0048331C78E4B2002C20D133681E
:10AE60005B88012B09D1210030000BF043F922004F
:10AE700001002800FFF760FFFEBD310001A80BF0C4
:10AE80000CF93A0001A92800FFF77CFF01A80BF09C
:10AE9000ADF82800FFF73AFF2000EDE70148EBE7A7
:10AEA0000148E9E717FCFFFF11FCFFFFF0B587B091
:10AEB0000D9C06000F0002920393002C20DBFFF78D
:10AEC00015FF330048331D78EDB2002D1AD139003B
:10AED00005A80BF056F90C9B01940093029A039B72
:10AEE00005A93000FFF784FF05A80BF03DF9002C01
:10AEF00003D03000FFF70AFF2C00200007B0F0BDA0
:10AF0000014CFAE7014CF8E717FCFFFF11FCFFFFCB
:10AF1000F8B50400171E1DDD060048363378002BF7
:10AF200002D03378012B17D12200E3795632013B4E
:10AF3000137023000025200054331D8050300BF087
:10AF4000B4F823004A331F80022328004C342580A4
:10AF50003370F8BD0148FCE70148FAE717FCFFFF32
:10AF600012FCFFFFF7B505000F00161E18DDFFF7F6
:10AF7000BDFE2B0048331C78E4B2002C12D13900FE
:10AF800001A80BF08AF8320001A92800FFF7C0FFE2
:10AF900001A80BF02BF82800FFF7B8FE2000FEBD3B
:10AFA0000148FCE70148FAE717FCFFFF11FCFFFF2F
:10AFB000FF2902D84172002070470148FCE7C046D3
:10AFC00017FCFFFFF0B51F0085B00AAB1B7804002B
:10AFD000039300933B000D0016000EF0D9F90028F2
:10AFE00033D0237D082B2DD8236800221900FC3193
:10AFF0008A62A021C9005A50154905205A500138CB
:10B00000C046C046C046C046C046C046C046C04610
:10B01000C046C046C046C046F1D1236801325A50EE
:10B02000A0210432C9005A5004F070FF039B320083
:10B03000009329003B0020000EF0AAF9237D013384
:10B040002375CCE7034805B0F0BD2075FBE7C0468B
:10B05000FC0F00000EFCFFFFF0B51F0085B00AAB2F
:10B060001B780400039300933B000D0016000EF0C4
:10B0700077F9002833D0237D082B2DD823680022B0
:10B080001900FC318A62A021C9005A5015490520D7
:10B090005A500138C046C046C046C046C046C046A9
:10B0A000C046C046C046C046C046C046F1D123682F
:10B0B00001325A50A0210432C9005A5004F026FF30
:10B0C000039B3200009329003B0020000EF048F95A
:10B0D000237D01332375CCE7034805B0F0BD20750F
:10B0E000FBE7C046FC0F00000EFCFFFFF8B50D1E8D
:10B0F00030D000260227C468002C28D0AA88A38854
:10B1000053403B4204D13A4204D1AB883B4219D070
:10B11000646AF1E7A968A0680CF050FA0028F4D03E
:10B120002B88002B02D022889A42F1D16B88002B09
:10B1300002D062889A42EBD1A288074B01361343B2
:10B14000A380E5E7A368AA689342E1D1E8E720007D
:10B15000002E00DC0148F8BD0080FFFF17FCFFFF58
:10B16000F0B5060085B00D1E59D00127C468002C2B
:10B1700022D00221AA8800230A4202D0A3885B08B9
:10B180003B40226829688A4210D1A068A968002B38
:10B190000AD00CF013FA002808D0A3881AB2002AAB
:10B1A00006DB204805B0F0BD8842F6D0646ADEE7D1
:10B1B0005B045B0CA380F4E7F0682A88002807D1C1
:10B1C000F5600123184968460AF0ABFF0020E9E763
:10B1D000010003001C88944206D25C6A1900002C0E
:10B1E0000DD02300F6E723001C88944207D15F8826
:10B1F0006C88A74203D25C6A1900002CF3D181420B
:10B2000009D10B889A4204D305D148886B889842AB
:10B2100001D96962D4E74B6A6B624D62D1E703489A
:10B22000C0E7C04616FCFFFFFD03000017FCFFFF50
:10B23000064B10B51A00040008322C33026043603C
:10B240000430FDF7F1FF200010BDC046E09C020075
:10B2500008B4024B9C46043808BC604731B2010078
:10B2600008B4024B9C46043808BC6047376B0200A8
:10B270000C4A002311002C32083110B5038183726F
:10B280004260C36003614361438301600400043092
:10B29000FDF7BCFF044B1A68002A00D11C60200097
:10B2A00010BDC046E09C02004C270020F7B50E0000
:10B2B0000125C4680192002C36D0238832889A4236
:10B2C00001D0002B23D1638872889A4201D0002BD1
:10B2D0001DD1FDF70FFF0123002806D0C022A3884F
:10B2E0001340C03B5A425341DBB2019A934219D1F9
:10B2F000A7883BB2002B15DB10223100A0180EF0FE
:10B30000BFFA40231F4204D020000BF01DFC646AEA
:10B31000D1E7FDF7EFFE0028F6D021000348FEF745
:10B3200099F8F4E70025F2E72800FEBD496B02001A
:10B3300008B4024B9C46043808BC6047D16C02003C
:10B34000F0B587B001930EAB1B88060003930D9BED
:10B350000D000093019B02920C9F002B3DD0002F0B
:10B3600002D1009BDB0738D52820FEF729F904001D
:10B3700010300AF0CCFE6B461B89258063801820B4
:10B38000FEF71EF90500009B08220593019B002192
:10B3900003600C3004970EF08FFA082204A9281DD0
:10B3A0000EF06EFA0E4B02226B6100230399E360EC
:10B3B0002362636233680A43A560A2805B68210050
:10B3C00030009847002806D020000AF0C5FD200074
:10B3D000FEF716F9034807B0F0BD0348FBE7C04687
:10B3E000FD6C020016FCFFFF17FCFFFFF0B5040028
:10B3F000160000258380164A164B85710260218154
:10B4000046810573186889B08C46A8421DD0124A3F
:10B4100005950492C02202926A4604AB82CB82C296
:10B4200023002A006146FFF78BFFC022094B0A491F
:10B43000186802926A46069106AB079582CB82C2D3
:10B4400023002A003100FFF77BFF200009B0F0BD88
:10B45000689B02004C270020276E020030B50024B4
:10B4600003730123034D84710560818082734373EC
:10B47000846030BD509B020070B5040000250C4B69
:10B480000E000833858085710360210018300BF0B1
:10B490007BFD2000210020300BF099FD054BA6809C
:10B4A000E5802572E5602561656120001C6070BD46
:10B4B0001C9D0200582700208379DB0702D5C1605C
:10B4C000002070470048FCE716FCFFFF8379DB078C
:10B4D00001D5C06870470148FCE7C04616FCFFFF75
:10B4E00070B545690400002D22D0037A032B21D8C2
:10B4F000FFF7ECFFA8622C20FEF762F82C22002157
:10B5000005000EF0D9F9002263695A62236993425B
:10B5100008D1636923610020237A656101332372B6
:10B5200070BD13005A6A002AFBD162695A62F2E7C1
:10B530000148F5E70148F3E717FCFFFF13FCFFFFA5
:10B54000144B70B55A68144C002A03D000225A607C
:10B550000132A2601A69002A17D0002119618023E4
:10B56000DB000E4DE3582868012B0FD1A923DB0027
:10B57000E1584942FFF7A0FF2868FFF7B1FF2B68A9
:10B580005A69074BE2500123A36070BDFFF794FF97
:10B59000F9E7C046FC10004000100040582700208A
:10B5A0000405000003000069002809D00221054AB3
:10B5B000D167426A1A611A7A013A1A72024B19600B
:10B5C0007047C04604E100E000E100E010B500294A
:10B5D00003DB024B19600DF01DFF10BD5C2700203E
:10B5E00070B504001E0004AB1D7804F0C7FB2000FA
:10B5F0000E4B40302360FEF729F9230001364C330F
:10B60000013522001E701D730023E1214E32A36418
:10B610006365138053809381D381013B2000636471
:10B620004902FFF7D3FF200070BDC046809B020097
:10B63000F7B580277F053D697C690822113C6C4382
:10B640000600210068460EF01BF9104B009A9A4242
:10B6500019D00093002301937969300013396943AD
:10B660000BF0CAFC019A009930000BF0DDFC2100C0
:10B6700030000BF0C1FC7969AB0813396943220033
:10B6800030000BF0C3FC0198FEBDC046FECA0000AE
:10B69000F0B50D00A9B00D9200213022060010A8CF
:10B6A0000B930EF009F928000EF046F9431C0C9399
:10B6B000102B00D9B5E00B9B202B00D9B1E029005D
:10B6C00030000BF0DEFC071E50D129000C9A10A8A8
:10B6D0000EF0D6F80D990B9A14A80EF0D1F880232D
:10B6E0005B051A695F690C92113F7A4330005D690E
:10B6F0000B92FFF79DFF3022002104001CA80EF0E2
:10B70000DBF8290000270C9B1339594330000BF05C
:10B7100073FC0D9730257D430B9B0833ED18A74232
:10B7200042DA290030221CA80EF0AAF810A91CA8A1
:10B730000EF0F8F8002827D13C49300022000E9185
:10B740000F940BF071FC6A46099513AB23CB23C20F
:10B7500023CB23C223CB23C23000129B1099119A12
:10B760000BF070FC01230D930137D3E710300B9AD7
:10B770000D990EF076F804003800FDF741FF002C1B
:10B78000A3D1200029B0F0BD6A4609951FAB23CB99
:10B7900023C223CB23C223CB23C230001C991D9A82
:10B7A0001E9B0BF04FFCDFE7E5433023ED172540F0
:10B7B0005D430B9B08355D190D9B002B1DD10C9B28
:10B7C0003021981E05F054F8A0422CD017490134BE
:10B7D000300022000E910F940BF026FC6A4609956A
:10B7E00013AB23CB23C223CB23C223CB23C23000F2
:10B7F0001099119A129B0BF025FC0B9930000BF05D
:10B80000FBFB80235B0559690C230C9A13396343B6
:10B810004A430233110030000B9A0BF0F7FB00246F
:10B82000AFE7034CADE7034CABE7C046FECA0000F0
:10B8300017FCFFFF13FCFFFF70B50400A280FA2283
:10B84000002308000C49920008312160A371606157
:10B85000E260A360638209490BF013FC051E09D066
:10B86000010020001031022212300EF009F82800E9
:10B87000FDF7C6FE200070BD349D020057AA0200ED
:10B8800030B50225837987B004002B4204D1FDF73F
:10B89000BDFCA3791D43A57120000BF03CFC0028E2
:10B8A0001CD06B46DD1C28000BF02CFC2B78002BE9
:10B8B00017D001A80BF024FC0321019AD3170B40E9
:10B8C0009B189B102382FDF743FFE368A18818189B
:10B8D0000123A0601A0002A80AF023FC002007B090
:10B8E00030BD0122064B1A60064A51680029FCD07F
:10B8F00000215160044A1268019201225A60DBE77C
:10B9000000C00040FCC0004008C50040022802D131
:10B910000122014B1A707047462A002070B5064C70
:10B9200005002378002B04D1044801F067FE0123B1
:10B930002370280070BDC046472A00200DB90100C1
:10B9400070B50C000AF00DFA002810D00023144D39
:10B95000A40A2B7020000BF0F2FB002803D00A2071
:10B960000DF05FFEF6E72B78002BFCD070BD0221B6
:10B970000C4B0D4A99508021C90008005D58002DDC
:10B98000FCD0A121C9005C5019580029FCD000212D
:10B9900099508021C9005A58002AFCD0E6E7C046D9
:10B9A000462A002000E0014004050000F8B50C0024
:10B9B00015001E000AF0D5F9002811D00023174FFA
:10B9C0003B703200290020000BF0B7FB002803D0A9
:10B9D0000A200DF026FEF4E73B78002BFCD0F8BDE2
:10B9E00001210F480F4B844619508021C9005A5835
:10B9F000002AFCD080270022FF00964207DD91003C
:10BA000068586050D9590029FCD00132F5E700226E
:10BA100061465A50DA59002AFCD0E0E7462A002055
:10BA20000405000000E0014010B50400054B083398
:10BA300003601C300AF0DAFA200018300AF0D6FA57
:10BA4000200010BD4C9D0200FF23F0B52C4D8DB0A1
:10BA50002B700023040069460088009304F076F8F8
:10BA6000002802D16B469B782B70264E3368DB682A
:10BA7000002B07D1002320881A0019000BF063FB6C
:10BA80000DB0F0BD2B78032BF4D81F4901A8FDF7AA
:10BA9000A3FE336801A9DE6804A80AF0FEFA04A92F
:10BAA00030000BF021FB0027060004A80AF09EFAE4
:10BAB000BE421ED031002022103104A80DF0E0FE5D
:10BAC0003000FDF79DFD297804ABC9005918082204
:10BAD00002A80DF0D5FE20880123082202A90BF050
:10BAE00032FB0137002804D12088084A0C210BF0D2
:10BAF00028FB01A80AF07AFA002FBBD0C0E7C046A5
:10BB0000F02100206C27002067AA0200FFFF000040
:10BB1000F0B5837991B004005B071BD5FDF718FEE3
:10BB200000232269801A9941994203D1F423FF33FB
:10BB300098420FD9A068002808D0364B1D880CF019
:10BB4000A0FB036815221B6A290098470422A379E9
:10BB50009343A371A3799B0759D52F4D2B68DB68BD
:10BB6000002B50D02D4B1B78032B4CD8294B2C4944
:10BB70001B8804A80193FDF72FFE2B6804A9DE683B
:10BB800008A80AF08AFA08A930000BF0ADFA0700FD
:10BB900008A80AF02BFA02AB9E1D0823320033805E
:10BBA00006A9073B01980BF0D0FA002F08D0390006
:10BBB0002022103108A80DF063FE3800FDF720FDAB
:10BBC000164B32881B7806A9DE0008AB9E193000A0
:10BBD0000DF047FE002813D0082206A930000DF012
:10BBE0004FFE2B6804A9DD6805A80AF056FA202349
:10BBF00008AA05A928000BF07DFA05A80AF0F6F9B5
:10BC000004A80AF0F3F90222A3799343A37111B0B7
:10BC1000F0BDC046F02900206C270020F021002054
:10BC200067AA0200F7B5089E0500152922D8012051
:10BC300007008F40244C27421CD0E97FCC181F2CD2
:10BC400041DC69183418A14210D80021C8B28342DF
:10BC500004D9545C701884700131F7E732789A186F
:10BC60003270EA7F9B18EB7700202CE00878C854EC
:10BC70000139E8E73478013CE4B2A34208D100235B
:10BC8000D9B28C42F0D9D05CF11888700133F7E753
:10BC9000EF7F0120FF183F1B1F2F14DC0227A01C81
:10BCA0007F423618381B0190E87F2F18BE4204D21D
:10BCB0003078019FF0550136F6E7041B023CEC7723
:10BCC00028000BF08CFAFEBDFC002000F0B585B01A
:10BCD00001930AAB1E880BAB1B78451C02930EAB7D
:10BCE0001B78040003930B78170003704B8A102213
:10BCF0004382013128000DF0C3FD6B469B882683EB
:10BD000063836B461B7B002623776B4601221B7ADD
:10BD10006761E683EB77A31CDA770C9B0C256362E3
:10BD2000230020000D9A28331A705E709E702A003E
:10BD300031002C300DF0C0FD2000074BE663A363FB
:10BD40002A00310040300DF0B7FD2000034B26657E
:10BD5000E36405B0F0BDC04661710200537102009A
:10BD600070B50D000CF08DFA04000368002D09D1A8
:10BD70005B699847FA2080006843074904F078FD22
:10BD8000E08070BD9B6898478542F3D2236820000D
:10BD90009B6898470500EDE771020000F0B50700C9
:10BDA0001600A1B002C704006B4918A81D000BF0D3
:10BDB0005DFA331E03D030000DF0BEFD83B20122C8
:10BDC0000492002203920292023201920093320006
:10BDD00018A93800FFF77AFF23006049583318A8E4
:10BDE00007930BF043FA2B1E03D028000DF0A4FD9F
:10BDF00083B2012204920022039202920232019243
:10BE000000932A0018A90798FFF760FF2300544900
:10BE1000AC3318A808930BF029FA269B002B03D00B
:10BE200018000DF089FD83B20122049200220392D2
:10BE30000292023201920093269A18A90898FFF7FD
:10BE400045FF631CFF33474918A809930BF00EFA0E
:10BE5000279B002B03D018000DF06EFD83B201224A
:10BE600004920022601C039202920232019200931B
:10BE7000279A18A9FF30FFF729FF23005533FF3316
:10BE8000394918A809930BF0F1F9289B002B03D02E
:10BE900018000DF051FD83B201220492002203929A
:10BEA0000292023201920093289A18A90998FFF78A
:10BEB0000DFF2300A933FF332C4918A80A930BF078
:10BEC000D5F9299B002B03D018000DF035FD83B266
:10BED00001220492002218AD0392029202320192D2
:10BEE0000093299A29000A98FFF7F0FE204B1B784F
:10BEF0000B93002B2DD1079B12971393089B0DAF2B
:10BF00001493631CFF331593099B1A4916930A9BDC
:10BF1000380017930BF0AAF91D2149203B78102215
:10BF20002B707B8A12AE6B8206ABC918C0180DF05D
:10BF3000A7FC06232B756B469B8D2068AB83AE61F7
:10BF40000CF0A3F9036829001B6898470122084BED
:10BF50001A70200021B0F0BD292A0000242A000018
:10BF6000252A0000272A0000262A0000282A00008F
:10BF7000482A00200A18000070B5002504000A4B6A
:10BF80008580083385710360C1601830FDF75EFC61
:10BF900020001C30FDF75AFC044BA5601C600123F7
:10BFA00065612000A37170BD4C9D02006C270020CC
:10BFB000FA2130B585B005000123022289006846C8
:10BFC0000AF0AFF8074C2068002809D00BF087F979
:10BFD0002988054B22681980022391790B439371BC
:10BFE00005B030BD6C270020F029002010B50C00F2
:10BFF00007290DD880680CF044F9064B19570368DF
:10C000005B6C9847431E9841034B4042184010BD5B
:10C010000248FCE75FAA020016FCFFFF17FCFFFFC7
:10C02000F0B5A44C0D00A544040007939AAB1B780F
:10C03000A14909A804930692FDF7CEFB2000290030
:10C040001C300AF032F8C020800001F0CDFA082040
:10C05000FDF7B6FA0600002100F088FE15ADA660D7
:10C0600000210C220EA80DF027FC2B000EAA83CA7B
:10C0700083C3924B2900EB60002330002B610CF04E
:10C08000E9F8A0680CF0FDF808220021059016A838
:10C090000DF012FC1420FDF793FA29000200884BE2
:10C0A0001593C8C9C8C2874B059EC3600023A43638
:10C0B00003613368002B00D0F5E03060A0680CF01D
:10C0C000E4F808220021060016A80DF0F5FB142064
:10C0D000FDF776FA7C4B1593030086CD86C37B4B28
:10C0E000C36000230361336B002B00D0DDE03063BD
:10C0F000A0680CF0C6F808220021050016A80DF073
:10C10000DBFB1420FDF75CFA714B15AE15930300B1
:10C1100086CE86C36F4B9835C360002303612B68BE
:10C12000002B00D0C3E02860012504AB1B7C04AACF
:10C130002B4308A9280013740BF009F8A0680CF031
:10C14000A8F8036864495B6A9847A0680CF0A1F8F6
:10C15000036862499B699847A0680CF09AF800232D
:10C1600002680093166804992A00B047049B002BCC
:10C170000AD020000BF0BCF8032805DDA0680CF005
:10C1800088F80368DB6898470EA80BF01FF82F208B
:10C1900004ABC0180BF01AF8362004ABC0180BF033
:10C1A00015F83D20042504ABC0180BF00FF80EABBA
:10C1B0000A93A06804AB5D770CF06BF803680AA9DA
:10C1C0001B699847A0680CF05CF803680AA95B6DCE
:10C1D0009847A0680CF055F803680021DB6D98477C
:10C1E000A0680CF04EF8036802219B6D984700216F
:10C1F0002000FFF7FBFE1820FDF7E2F9A16800F030
:10C2000005FA374B374A1B68A1680393364B15A8CC
:10C210001B6800260293354B0CAF1B680193069BED
:10C220001B685B190093324B12681B68FFF7B6FD61
:10C230003020FDF7C5F9079AA16800F0A7FAA068B9
:10C240000CF01FF8036839009B6A9847294BBE80A1
:10C25000A0680C930CF015F803683900DB6A984766
:10C260002900A0680BF00EF8099A09219378A068BC
:10C2700052190BF01AF8A0680CF003F8C8210671E7
:10C28000A068FFF76DFD04AB1B7FB34204D0A0682C
:10C290000BF0F7FF0AF0E0FF09A809F0A7FE9523CD
:10C2A0009B009D44F0BD036107E703611FE7036145
:10C2B00039E7C046ACFDFFFF5AAB02006F710200C8
:10C2C000B1BF01007D71020049BA01008B7102000B
:10C2D000B971020099710200F9C201002DC3010079
:10C2E0006827002064270020082000206027002005
:10C2F0000C2000200800100013B506226846FDF748
:10C300007BFA094B1C68002C0AD0694601A809F089
:10C31000C4FE200001A90BF00CF801A809F066FE8C
:10C32000684609F063FE13BD6C270020002373B537
:10C3300001AE0C0031000500019303F007FC00285A
:10C3400002D1B278064B1A70064B1868002806D046
:10C3500061426141044BC9B21D800AF0F2FF73BD16
:10C36000F02100206C270020F0290020F0B5040007
:10C3700097B0039107A89C490592FDF72DFA9B49B8
:10C3800008A8FDF729FA22000FAD28001C3207A9E2
:10C3900009F09AFE08AA290009A809F095FE2800CC
:10C3A00009F024FE92490AA8FDF716FAA0680BF0DE
:10C3B00068FF03680DAE5B69984728000AF006FF26
:10C3C000332004ABC0180AF001FF3A2004ABC018B8
:10C3D0000AF0FCFE412004ABC0180AF0F7FE8023EF
:10C3E000DB00B380A0680D950BF04BFF03683100B4
:10C3F0005B6D9847A0680BF044FF036800219B6DBC
:10C400009847A0680BF03DFF0700002506000A379B
:10C410001F22002138000DF04FFAFD7730000AF09E
:10C4200012FF0621A0680AF02DFF099A09219378CE
:10C43000A06804320AF039FFA0680BF022FFC8217F
:10C440000571A068FFF78CFCA0680BF01AFFFF27AE
:10C450002E000581A0680BF014FF0AF0FDFE039882
:10C46000FEF728FC0AA90CA809F017FE78220CA9EF
:10C470000398FEF777FD0CA809F0B8FD039920009A
:10C480000AF072FF2000FCF7C1FE049501256369E4
:10C490001D402DD057490BA8FDF778FA0BA90CA821
:10C4A00009F06FFE00220CA913000192009203987C
:10C4B000FEF7FCFC0CA809F057FE049B002B42D1B0
:10C4C000043F282F41DD0025FE2F00DC049D059848
:10C4D0000AF074F8002806D0012362699A43130019
:10C4E00004221343636100260BA809F03DFE049566
:10C4F00004226369134233D0FF210398C826FEF754
:10C5000057FD0025B600A36902229B5EAB4222DDE7
:10C51000200029B2183009F0EDFD00230100039836
:10C520001A007430FDF782FA3000FCF707FF039819
:10C530000AF061FAC820FCF701FF02226369134286
:10C5400009D10135DFE70437BBE703980AF053FA56
:10C55000002FBCDDBAE7FA208000FCF7EFFE0026D2
:10C56000022365691D421CD006331D4024D0224998
:10C570000BA8FDF70BFA0BA90CA809F002FE00228C
:10C580000CA90192009213000398FEF78FFC0CA8EF
:10C5900009F0EAFD1948FCF7D1FE0BA809F0E4FD0B
:10C5A000174E6420FCF7CAFE164B01369E4200DC93
:10C5B0006CE709F0E8FB69E713490BA8FDF7E6F91A
:10C5C0000BA90CA809F0DDFD2B002A000CA9019590
:10C5D00000950398FEF76AFC0CA809F0C5FD0BA8AE
:10C5E00009F0C2FDDDE7C04673AA020083AA02007B
:10C5F00085AA020093AA0200D8AA0200983A000075
:10C600008C0A00008B0A000015AB02000022594B77
:10C61000F0B50833060003600F001000A9B0B16048
:10C620000BAB991801324870102AFAD10F3A524CCC
:10C630001A700E32105D991A0874013AFAD2997B79
:10C640005A7B09020A4331000C31039125211B78E2
:10C6500013AD2B7002ABC918452302A81B186A82C0
:10C66000180010220DF00CF9039B64216B6101236B
:10C67000002402AA2B7752181993093313701DABAB
:10C680001C706D2302AA9B181C706E2321009B183E
:10C690001EA80C22EC836C621C700DF00DF9374B58
:10C6A0000C22210023A8AB63EC630DF005F9344B99
:10C6B00002AAEB6446239B180322DA7722002C653A
:10C6C0000595347306AD2B1901345A70102CFAD12C
:10C6D00001232C482B700E33195CEA1A1174013BAC
:10C6E000FAD211212520AA7B6B7B12020BAC1343DB
:10C6F0002A78638202ABC9182270C01810220DF08C
:10C70000BFF80123237505ABA36100233800A38381
:10C710000BF0BBFD036821001B68984713ABDB8B54
:10C72000B068B3820BF0B1FD002203680092B18AB9
:10C73000039ADC680123A047B0680BF0A6FD070050
:10C740001420FCF73DFF0022012304000261069241
:10C7500040C00832290007930DF092F80A4BE360BD
:10C76000BB69002B03D13000BC6129B0F0BD23614F
:10C77000F9E7C046649D020084AB020061710200CB
:10C780005371020094AB0200C9730200F0B5002699
:10C790000400734BDDB0083303608160C2608680A3
:10C7A000867132006F4947A80AF0AEFE23001433A9
:10C7B0000125042708931223009704950193089AF2
:10C7C000330047A9039602961DA8FFF77FFA3200AF
:10C7D000654947A80AF098FE082022000097330018
:10C7E00015AF10320495019047A90396029632A81E
:10C7F000FFF76CFA32005D4938000AF085FE23002D
:10C80000082004221C330993390033000495019059
:10C8100000920396099A029647A8FFF757FA32004A
:10C82000534938000AF070FE5420FCF7C9FE050099
:10C830002000012312210422183007900493019153
:10C840000092390002003300280003960296FFF799
:10C850003DFA2800474BA5620822EC620AA9303055
:10C860000A930B960DF00CF8434B0422AB630123A3
:10C8700029352B7009992661E66107980DF000F8BB
:10C880000422079908980CF0FBFF6621032304AAF1
:10C890008918CB77BA2104AA8918CB77872104AAF3
:10C8A00049008918A26ACB77911CA685CB771DAB6E
:10C8B0000C9332AB0D930F9247AB32002F4910A867
:10C8C0000E930AF021FE3021452004AB5B181B7843
:10C8D00012313B7004AB5B181B8811397B8204ABAF
:10C8E000C918C01810220CF0CBFF04220CADA068B0
:10C8F0003A75BD61BE830BF0C8FC036839001B6844
:10C900009847822204AB9B181B885432238404ABC3
:10C910009B181B885432A38404AB9B181B88A06807
:10C9200063840BF0B2FC07001420FCF749FE0500FD
:10C93000134B066108221093119610A910C00CF039
:10C940009FFF104BEB60BB69B34206D1BD61200075
:10C95000FCF75CFC20005DB0F0BD2B61F6E7C04643
:10C96000709D0200C4AB0200A4AB0200B4AB020095
:10C97000D4AB0200DB74020047740200E4AB020097
:10C98000F1C9010071740200F0B504000E00150039
:10C9900085B01F000CAB1B881030019309F0B7FB6A
:10C9A000268065801820FCF70BFE02AE05003300E0
:10C9B0000AAA03CA03C32F602800082700213A00EF
:10C9C0000C300CF079FF3A003100281D0CF058FFB4
:10C9D000064B02226B61200000230199A5600A43E7
:10C9E000E360A2802362636205B0F0BD9B74020025
:10C9F000F0B50B898DB00593CB68060004934B8886
:10CA0000828C9A420ED1049C049B059A9B181B1B96
:10CA1000032B3BDD62882188012308A809F081FBF4
:10CA20000434F1E7428C9A4230D1049C049B059A6D
:10CA30009B181B1B032B29DD238828200693638862
:10CA4000F7680793124B089300230993FCF7B8FD8E
:10CA5000C0236A460500029308AB03CB03C2330030
:10CA60000699079A2800FFF78FFF3B6829005B684B
:10CA700038009847002807D0002D05D0280009F07D
:10CA80006BFA2800FCF7BCFD0434CFE70DB0F0BD15
:10CA90005975020070B5040090B080680AF057FD27
:10CAA000022101401AD1A38D002B17D00C4B6A46EE
:10CAB00004931023E568A1850591029304AB41CB53
:10CAC00041C20A00230006A8FFF75EFF2B6806A9F3
:10CAD0009B682800984706A809F03EFA10B070BD80
:10CAE00059750200002815D0006041608260C36063
:10CAF000046145618661C761444604624C464462F4
:10CB0000544684625C46C462644604636E4646636F
:10CB100074468463002A06D0C46B043C043A25683A
:10CB20001560B442F9D18C6BA6464E6BB546002B0E
:10CB300006D0CC6B043C043B1D682560B442F9D19F
:10CB40000C6BA446CC6AA3468C6AA2464C6AA146EA
:10CB50000C6AA046CF698E694D690C69CB688A68FA
:10CB6000086849687047006041608260C360046182
:10CB700045618661C761444604624C46446254463E
:10CB800084625C46C462644604636E4646637446CF
:10CB90008463C46B043C043925680D60B442F9D148
:10CBA000C7698669456904697047006041608260B1
:10CBB000C360046145618661C761444604624C46B6
:10CBC0004462544684625C46C462644604636C46B4
:10CBD00044637446846304697047846BA646446B5F
:10CBE000A546046BA446C46AA346846AA246446A66
:10CBF000A146046AA046C769866945690469C36895
:10CC0000826800684168704710B5041E0CD00CF0B3
:10CC100093FE431EE3189C4208D222781978013B08
:10CC200021705A700134F6E7014810BD0020FCE77E
:10CC300017FCFFFFF0B585B002900C1E2AD0002330
:10CC4000C217161A56400193019B30005D1C6319F0
:10CC50000A215F1E039303F07BFF49423031397094
:10CC600030000A2103F08EFE47420600002F0FD14C
:10CC7000029B002B04DA2D23019D039A02351370C9
:10CC8000002320006355FFF7BFFF380005B0F0BD5B
:10CC90000195D9E7004FF8E717FCFFFF10B5826058
:10CCA0004A4304004160002A0ADD074B90009A4283
:10CCB00001DD01204042FCF783FC2060200010BD14
:10CCC00000230360FAE7C046FEFFFF1F4A688B6837
:10CCD00070B58360534304000D004260002B12DDE9
:10CCE0000A4A9E003000934201DD01204042FCF7D9
:10CCF00067FC002320602A68D158C15004339E424B
:10CD0000FAD1200070BD00230360FAE7FEFFFF1F89
:10CD100070B5002817D1114D2E68002E11D10830A2
:10CD20000CF072FD066046600D4E04003368002B67
:10CD300002D10BF0E1FC306023682C609B00F358BB
:10CD40006360286870BD0122064907480B681340DC
:10CD5000F8D1026043600A60F4E7C04674270020FF
:10CD6000802700207027002078270020002370B53E
:10CD700004000160436099420AD1064D2B68002BE4
:10CD800002D10BF0B9FC286023689B00EB5863606C
:10CD9000200070BD80270020436810B50400002BE0
:10CDA00002D104480CF044FC606803681B69984792
:10CDB00010BDC046F4AB0200436810B50400002B60
:10CDC00002D104480CF034FC606803689B69984702
:10CDD00010BDC046F4AB0200436810B50400002B40
:10CDE00002D104480CF024FC606803685B6A984731
:10CDF00010BDC046F4AB020000487047FFFF0000C2
:10CE0000F0B597B00593036807AD1B6804910393D1
:10CE100011002B00060091C991C30024D3682100A2
:10CE20000C220CA8EB602C610CF046FD22000B4B91
:10CE300010940F9311AB1C70191901344A70102C07
:10CE4000FAD15A820193059B2A00009304990CABF6
:10CE50003000039CA04717B0F0BDC046B18302006C
:10CE600070B5FC30046C0500002C0DD124200CF0B2
:10CE7000CBFC064B44608361054B8460C460046155
:10CE80004461C46103602864286C70BD5C9E02002C
:10CE9000449F020070B5FC30C56B0400002D11D119
:10CEA00034200CF0B1FC084B85604360074B4561B2
:10CEB0000361074B0562C361064BC5628362064B83
:10CEC000E0630360E06B70BD8C9E02007C9E0200FC
:10CED000EC9E0200FC9E02000C9F02007FB50379CD
:10CEE0001548002B22D0154E154C33782000002B0E
:10CEF0001CD102AD28000BF038FA002810D16B8845
:10CF0000592B0DD12B78AA88D91F012910D800924E
:10CF10000C4A2021200008F061F80123337004E05E
:10CF20002022094920000CF00EFD200004B070BD45
:10CF30000092064AEDE7C04617AC0200692A0020BD
:10CF4000492A002039AC020031AC020056AC020084
:10CF500010B50400024B08C00BF0E7FA200010BD2A
:10CF60007C9E020010B50400024B08C00BF0F2FAE0
:10CF7000200010BD8C9E0200064B70B504000360BB
:10CF80004068002804D005690CF03AFC2800F8E756
:10CF9000200070BD6C9E0200064B70B5040003605B
:10CFA0004068002804D005690CF02AFC2800F8E746
:10CFB000200070BD9C9E0200064B70B5040003600B
:10CFC0004068002804D005690CF01AFC2800F8E736
:10CFD000200070BDAC9E0200064B70B504000360DB
:10CFE0004068002804D005690CF00AFC2800F8E726
:10CFF000200070BDEC9E0200064B70B5040003607B
:10D000004068002804D005690CF0FAFB2800F8E716
:10D01000200070BDFC9E0200064B70B5040003604A
:10D020004068002804D005690CF0EAFB2800F8E706
:10D03000200070BD909D0200064B70B50400036097
:10D040004068002804D005690CF0DAFB2800F8E7F6
:10D05000200070BDA09D0200064B70B50400036067
:10D060004068002804D005690CF0CAFB2800F8E7E6
:10D07000200070BDB09D0200064B70B50400036037
:10D080004068002804D005690CF0BAFB2800F8E7D6
:10D09000200070BDC09D0200064B70B50400036007
:10D0A0004068002804D005690CF0AAFB2800F8E7C6
:10D0B000200070BD5C9E020070B5FC30046C050061
:10D0C000002C0DD124200CF09FFB064B44608361A3
:10D0D000054B8460C46004614461C46103602864DA
:10D0E000286C70BD5C9E0200449F0200104B10B57E
:10D0F000083303600F4B0400C36080230E4A5B00BB
:10D10000C250C018FDF7ACFC20000C4BB830E360F7
:10D11000FFF7B2FF2000AC30FFF79EFF2000A030E9
:10D12000FFF78AFF20006C30FFF776FF200010BD6C
:10D13000709F0200E89F020024A10200D09D02001F
:10D14000F8B505000400AC356B68AB60A868002832
:10D1500007D0C36821009847AB68002BF4D01B6947
:10D16000F3E72500B0352868002804D006690CF0E4
:10D1700047FB3000F8E72200FC2128605832137882
:10D180000B40137023005C33187020000A300BF042
:10D19000AAFA200034300BF0A6FA606E002804D002
:10D1A00005690CF02DFB2800F8E72500983560662E
:10D1B0002868002804D006690CF022FB3000F8E74C
:10D1C0002600A43628603568002D05D02F69280078
:10D1D0000CF016FB3D00F7E72000356029000C221B
:10D1E0006C300CF069FB2000074BE567A367290052
:10D1F0000C2280300CF060FB2300044A8C33903406
:10D2000028001A602560F8BD95830200878302001C
:10D21000444AF0B50600C260A022434B16360833DC
:10D2200003600100002342820400320085B00371D4
:10D230008360037483823531137001329142FBD1D4
:10D24000802580222000AD00D201F37735841100C3
:10D2500000933830002300F039FF230021004033D1
:10D2600003931A002B0000255F31157001328A42AA
:10D27000FBD1039AFC21D577220060321380137909
:10D2800020000B401371230068331D70274B256766
:10D29000E3660C22002178300CF00EFB23002700FF
:10D2A00088331D60224B0837FB67843700210C222E
:10D2B00038000CF001FB1F4B1F4AFB602300A0331A
:10D2C0003D611A601D4A5D60DA601D4A1D619A6108
:10D2D000DD6130000BF007FA03980BF004FA194BEC
:10D2E000601CE3602300C4331D705D709D70FF30CF
:10D2F00002F0FCFC8C235B00E55023001933FF3364
:10D300005D618023104A5B00E2502300012220006F
:10D31000FE3352425A86023B9D63DD631D6405B0B5
:10D32000F0BDC046D09D0200709F0200909D02009B
:10D330009583020087830200A09D0200B09D020039
:10D34000C09D0200E89F020024A1020070B5074CB6
:10D350002368002B07D1A02040000CF055FA0500EF
:10D36000FFF756FF2560206870BDC0468427002067
:10D3700070B50C220D00002104000CF09DFA002372
:10D380002361024B25602000E36070BDA38302008F
:10D3900070B500250400254B85800360244BC560D3
:10D3A0008360244B85614361234B45620362234BB9
:10D3B0000563C362224BC563836329004430FFF7D2
:10D3C000D7FF200029005830FFF7D2FF20002900A6
:10D3D0006C30FFF7CDFF1B4B22002360230080320F
:10D3E000F83320C29342FCD126001D00E936FF36F7
:10D3F00028000822002108350CF05EFAAE42F7D171
:10D400008E2300229B00E11804C6B142FCD18E237A
:10D4100000219B00E2540C4B0C4AE318A21819801F
:10D4200002339A42FBD1200070BDC046BC9E020070
:10D430006C9E02007C9E02008C9E02009C9E02005C
:10D44000AC9E0200B89F02003A0200006202000097
:10D4500010B5040001F01CFA034B1B68002B01D02F
:10D460002000984710BDC0468C270020F0B58BB037
:10D47000050002F0ABF90020FFF768FF0368070022
:10D480001B6998473B6804009B69380098473B68D4
:10D4900006005B6A380098470300288810380B287C
:10D4A00062D803F0DBF9063E6161615B616161672F
:10D4B0006179AF88200039000BF0FFFD22006B7B03
:10D4C000583201931378A8799C46022361460B4396
:10D4D000137004AB1F80012304AA9370D070130053
:10D4E0006A461279E91D9A722B000622163305A8A6
:10D4F00009930CF0C5F929000B2004AB06220E316C
:10D50000C0180CF0BDF994346368A360A0680028CB
:10D510002AD0C36804A99847A368002BF4D01B69DC
:10D52000F3E720002F49AF880BF0C7FD220002204F
:10D5300058321378A9798343137004AB1F80997014
:10D54000A0346368A360A06800280DD0C36804A954
:10D550009847A368002BF4D01B69F3E75B69A888A0
:10D56000A91D002B00D09847290030000BF026FAA7
:10D570000BB0F0BD636E002BF6D0AF79A366A06E42
:10D580000028F1D0C36839009847A36E002B01D161
:10D59000636EF3E71B69F1E7012269460D27AB7B58
:10D5A000EF571A4001925A07920FDB080A720B7369
:10D5B0000622E91D04A80CF063F96A46127904AB4F
:10D5C000DA716A46127A9F711A726A46127B2000DB
:10D5D0005A722B000F3307938C348030236804A9D0
:10D5E0009847C1E7FFFF00000723D72802D9024B65
:10D5F000186000231800704788270020014B18602E
:10D600007047C0468C2700201FB58022A323D20577
:10D61000DB00D3580820DB0700D405301C4B482220
:10D620001C4901F03FFC00280AD080B2002807D135
:10D63000BFF34F8F184B194ADA60BFF34F8FFEE7E5
:10D64000002302A8029301330370154B1B6843604B
:10D650000BF0D8F8002802D0072005B000BD6846BE
:10D660000BF0CEF80028F7D169460BF0C7F8002878
:10D67000F2D10C4801F046FC80B20028EDD10A48F6
:10D6800001F04AFC80B20028E7D100F085FBE4E716
:10D69000098802009027002000ED00E00400FA0550
:10D6A000882700206DD4010051D4010080B20028E9
:10D6B00007D1BFF34F8F034B034ADA60BFF34F8F9D
:10D6C000FEE7704700ED00E00400FA0513B50468BA
:10D6D0000093A46813000A000149A04716BDC04684
:10D6E000FFFF000037B506AC25780468019500936C
:10D6F000246913000A000149A0473EBDFFFF000056
:10D70000F0B587B00D00002469466F4616004C80C6
:10D710000DAA0CA90988127839800193A2421BD165
:10D7200001004479F83194420DD908310F00083FC7
:10D730003F88B7421BD1302120329200125801326B
:10D74000D27F0A4215D16A46310028000BF064F8F6
:10D75000002808D1062407E06A46310028000BF0B3
:10D760005BF8002800D00324200007B0F0BD013290
:10D77000D9E710210A4051424A41002002ACE3603F
:10D780000CABA360174B01322680A270A0809D4293
:10D7900007D1FFF7DBFD03681B6998470BF090FC8E
:10D7A0000500210028000BF03BF8002482B2A242C1
:10D7B000DAD0112A13D00BD8082ACBD06A46310010
:10D7C00028000BF029F805240028CDD0023CCBE737
:10D7D000054B9A4203D0054B9A42EFD1BAE7052494
:10D7E000C2E7C046FFFF0000033000000134000024
:10D7F000F0B5050099B008002E240C9100F00EF948
:10D8000006ABE4181290220012A901200BF002F8D6
:10D81000002802D0032019B0F0BD23880C9A0B9089
:10D8200093830C9B0B9A1B7D934200D8C6E06B79C7
:10D830001D2B01D90720EEE70C9B9B690D930B9BD9
:10D840000D9A9B009C586369002B07D1638B002BBA
:10D8500004D1631CDB7F022B00D1AAE0200000F082
:10D86000DDF823000026283312900E960D960F93B4
:10D870000F9B1B78B34221D9626AB3009F583422B0
:10D8800006AB9B1800221A700023002113AAD2189D
:10D8900001335170102BF8D1462206AB9B184A4A2F
:10D8A00013A938001A800BF03AF8002803D07B69DE
:10D8B0000D937B8B0E930136F6B2D9E76979A31CE1
:10D8C0001F31C9006918621CDB7FD27F08912100DB
:10D8D0002A31097800200791210029310978069121
:10D8E0000E9905910D990491217F0391218B02914D
:10D8F000618B01916169009112A90BF092F90028E6
:10D9000000D087E76B7907001A00203292001F339E
:10D910005451DB005B5BE3836B7901336B71230054
:10D9200028331B78BB4244D98E239B00EB5C132B1E
:10D9300000D97FE7626ABB009E580023180013A934
:10D940000B70CA1801335070102BFAD11E4B3000E7
:10D950004B820AF0E4FF0D90002827D1300000F040
:10D960005DF88E2189006A5C738B1E32FF32520093
:10D97000AA180292327F12900192328B12A9009261
:10D9800072690D9800F09AF8002800D042E78E21C5
:10D9900089006A5C531CDBB26B541D337A32FF334F
:10D9A00092005B005651EB185B88F3830137FFB29E
:10D9B000B5E70B980130C3B20B9332E72B79002007
:10D9C00001332B7127E7C0460129000070B505001F
:10D9D0000AF0B7FE04000620002C1CD12800782293
:10D9E000210080300BF068FF2800E9305022210030
:10D9F000FF300BF061FF280008222100F8300BF007
:10DA00005BFF054B2822E81821000BF055FF8E2301
:10DA100020009B00EC5470BD3A020000F0B5438A30
:10DA200085B00193037805000126002B35D0214AEB
:10DA300000241100831900931F4B1F68A74210D0C8
:10DA40000023981E012804D90098D65CC05C864249
:10DA50002CD10133102BF4D111235C4309190E7C16
:10DA60001BE000980BF0C6F82B7807000600002B8F
:10DA700001D112350095042C0FD0112565430D4BB3
:10DA800010225D19009928000BF0FAFE0023AB70FC
:10DA9000EB70094B01342F741C6003AB9E705888E7
:10DAA000019B00040343180005B0F0BD013411329E
:10DAB000C4E7C0466A2A0020D8270020F0B589B004
:10DAC00000930EAB1B8805000F0016000193032284
:10DAD0000FAB002102A81C780BF0EEFE01230E20F4
