:020000021000EC
:1080000000400020ED020200290302002B030200C1
:108010000000000000000000000000000000000060
:108020000000000000000000000000002D0302001E
:1080300000000000000000002F03020031030200D6
:1080400033030200E1AD010099FF01003303020098
:108050003303020000000000ED00020033030200C1
:108060003303020001FB01005D0002003303020044
:108070003303020033030200330302003303020020
:108080003303020033030200330302003303020010
:1080900033030200C5F601005DEA0100330302006C
:1080A0003303020033030200000000000000000060
:1080B00000000000000000000000000000000000C0
:1080C00010B5064C2378002B07D1054B002B02D0AE
:1080D000044800E000BF0123237010BD20220020CF
:1080E00000000000F0A60200044B10B5002B03D0E6
:1080F0000349044800E000BF10BDC0460000000076
:1081000024220020F0A60200164B002B00D1144BB5
:108110009D46402292029A1A924600218B460F46B3
:108120001348144A121A11F053F80F4B002B00D0C9
:1081300098470E4B002B00D09847002000210400E8
:108140000D000D48002802D00C4800E000BF0CF0E4
:10815000FFFB2000290010F0B8FD0CF0E3FBC04647
:1081600000000800004000200000000000000000A7
:1081700018220020102B002000000000000000004A
:1081800010B50400034B036040300DF099FB200054
:1081900010BDC0466894020070B5154CA368A26972
:1081A0009A421ED01B782E2B12D1124D012128008D
:1081B00002F07CFD322000F075FE0021280002F064
:1081C00075FD20000DF062F9322000F06BFEE4E74F
:1081D0002D2BF9D1074D0121280002F067FD9620D3
:1081E000E9E7FA20400000F05DFE012070BDC046C6
:1081F0009C2200203C220020F7B5026A8369013AE4
:1082000004000191934207D0002B01D00A781A7024
:10821000A3690133A361F7BD436A02684668991AEE
:108220008910711A012922D841695D1AAD106F1C9D
:108230007D1C6800864238D9751B6D08AD00551944
:1082400004335A1AA94228D9280099422AD18022F7
:108250002B689200E3609B182361254B6561FB1836
:108260009B00ED182B686562E3619B1823628020F8
:108270008000656A00F058FF6860A369002B02D097
:10828000019A12781A70636A1A1D626280225B6812
:1082900092009A18E3612262BCE7B8009942D6D0F6
:1082A000801A281810F081FFD1E70123002E00D09A
:1082B00033000236F6180E4B9E4201D910F042FFF1
:1082C000B00000F031FF751B636A6D086169AD0095
:1082D0001A1D009045198A4203D0521A280010F046
:1082E00064FF206800F040FF009B66602360AEE7FB
:1082F000FFFFFF3F37B502001B480B00046981698F
:1083000045690919C469091B8468091B446A641B0F
:10831000A410013C64020919002917D1002B01D1D6
:10832000962A03D96B46D91D2E230BE00124644203
:10833000E51712196B41002B15D1942A13D86B46FF
:10834000D91D2D230B70FFF757FF0CE0002BF6D142
:10835000962AF4D801246442E51712196B41002BC8
:1083600001D1942ADED937BD9C220020F8B51848E7
:108370000DF0E2FC002828D100F09EFF06000F005F
:1083800014480DF0D9FC144C051E02D001232370B3
:10839000F6E700F091FF2378002BE8D025700F4C12
:1083A0002269A3699B18E2699B1AA2689B1A626AF8
:1083B0006469121B9210013A52029B18052B04D8D3
:1083C000801BB941FFF796FFD1E70120F8BDC046F9
:1083D000742200204C2200203E2A00209C220020F3
:1083E00010B5094800F080F908480DF0A5FC0028F8
:1083F00004D0FFF7BBFFFFF7CFFEFAE704480DF00C
:108400009BFC0028F0D0FEE7C42200204C22002074
:1084100074220020F7B52F4C0025200000F0A4F8AE
:108420002D4E2E493200200010F06FFE03232C4CFD
:108430001A000721200002F0EDFB3200294920003C
:1084400010F063FE0123284C1A0000951121200032
:1084500001F0B0FA254F32003900200010F055FE2F
:10846000234C0095012302221A21200001F0A2FAD8
:1084700032003900200010F048FE08231D4C202057
:108480002560A560E56025616561A561E5612562FE
:108490006562636000F048FE636820605D1E6D08E1
:1084A000AD0045198020800000F03EFE8022920041
:1084B00083182860E06023612B6865619A18656203
:1084C0002262A0603200E361A3610B49200010F03A
:1084D0001CFEF7BDC422002000200020FD84010006
:1084E0003C220020795402004C2200209D9901007A
:1084F000742200209C220020E1540200EB23194A40
:108500009B0010B5C2501C330400C0180DF0D8F900
:10851000F1239B00E0180DF0D3F984239B00E018B1
:1085200001F076FA2000C530FF3000F095FF200002
:108530008D30FF3001F032FA20006530FF3001F05D
:108540002DFA2000EC3001F005FF2000D03002F0C1
:108550004BFA2000643007F031F9201DFFF710FEC0
:10856000200010BD649602001423F0B5040095B0FD
:10857000009319221821043002F082FC2200270007
:108580006432B43713211000119207F023F9380038
:108590000EF036F92200B83210921E2100221098F7
:1085A0000DF0ECFD2000D03002F03EFA2200EC325B
:1085B00012920621494A129801F0F0FE200000268E
:1085C000012365301A0000961121FF3001F0F2F905
:1085D00020008D300096012302221A21FF3001F085
:1085E000E9F925002000C535B530FF351A230222F0
:1085F0000121FF3002F0D6FA109904233A22280014
:1086000000F0DAFF84229200A218139205231D22A3
:10861000019300923B002A001099139801F0EEFBA1
:1086200096229200129BA01813992A0001F0C0FD17
:1086300099229200A01839001C2202F04DFD192346
:108640009F220F93013B0E93013B0D93013B0C9333
:10865000013B0B93013B0A93013B0993013B0893B8
:10866000013B0793013B0693013B0593013B0493B8
:10867000013B0393013B0293013B01939200013BB9
:10868000A01800930822013B07210DF07FFDEB238A
:108690009B00E018390003F0BFF8F3239B00E018BB
:1086A0001D2102F039FBFD239B00E6501198267036
:1086B000032110F03AFA23002200200008499C33DD
:1086C000A0321C6011605660064A80305A61022157
:1086D000012207F0BDFD200015B0F0BD709402002E
:1086E0000F550200F95402000123F0B5067889B055
:1086F00004001E4000D0ADE0FD20800500F0DCFC51
:108700002300D0331800029300F0B0FA00F0A6F96D
:10871000282000F009FD050010300DF062F94E4BE5
:1087200018202B6000F000FD07004C4B046008226D
:1087300031000C300693079610F04AFD06A9381D4B
:10874000082210F029FD464B29007B611223AF60FF
:10875000EE60AB802E626E62029802F0DDF80028B7
:1087600005D028000DF062F8280000F0FDFC012380
:10877000227864201343237000F094FB002523002B
:108780006533FF33180003930DF0D6FA00283CD070
:1087900020008D30FF300DF0CFFA002835D00A2DA3
:1087A00033D06420013500F07DFB0A2DE7D12D493F
:1087B0002D4800F057FCFD27EB23BF009B00E61877
:1087C000E359002B1AD100F05DF8010004A800F075
:1087D000B7FD05A80CF00DFF012305AA04A900931D
:1087E0003000029B03F06CF805A80DF069F804A8AE
:1087F0000DF066F8ED239B00E358E3512100039A46
:10880000EC31300003F002FAB9E7FD2515491648AE
:10881000AD0000F027FC6659002E1BD100F032F8A5
:10882000010004A800F08CFD05A80CF0E2FEEB238B
:108830009B00E01805AA029B04A9009603F040F8EB
:1088400005A80DF03DF804A80DF03AF8ED239B00C3
:10885000E358635109B0F0BDFD03000081550200EB
:108860004155020000200020001C0020BFF34F8F64
:10887000024B034ADA60BFF34F8FFEE700ED00E0E2
:108880000400FA05F0B58DB005AF1922154938007E
:1088900010F082FC0022144B05245A7180225205EC
:1088A000566E012225000194029203930199300033
:1088B00007F02CFE0800029907F0A2FD019B039926
:1088C0006B430193029B361A6B430293631E2C1B6E
:1088D0006C433C19225C1C1ECA54E7D108000DB041
:1088E000F0BDC046B6A002003F2A0020F0B597B008
:1088F00018220021060010A810F06AFC132110A80D
:1089000010F052FA032110A810F01DFB4C4B1B680D
:10891000002B00D10133DBB202934A4A012300212C
:108920000BA807F0CFFB484B9E4200D9002672B639
:10893000464B64211D68464B30000793052407F021
:10894000E9FD60435030281808900A21300007F0F4
:10895000E1FD0A2107F0C4FE614350316918099115
:1089600030000A2107F0BCFE80236143002450310F
:1089700069189B010A910193029B002B5DD0002591
:1089800000272E1F07AB9B190593032C03D18023CF
:1089900000249B01019307AB5B592E4A03936300AC
:1089A000D31804930023190006205843049A16187C
:1089B0007678B4466246039EB25C10269446049ACA
:1089C000105C62460641164202D0012098400143E5
:1089D0000133092BE8D1C9431F4B059A09011940FE
:1089E0001268039B934225D1312F23DC00210BA871
:1089F00010F081FBFA23159A1199DB0010680142EF
:108A00001BD0013B002BF9D1019B01345B0001938A
:108A1000FA230137E4B25B009F42B6D10435102D32
:108A2000AED1074B1B68002BA6D0029F013FFBB2C3
:108A30000293A1E7019B1943D9E7FFF717FFC0464F
:108A4000C0260020F0FF0000E70300000420002003
:108A500005A10200CFA00200F01F0000F8B500231E
:108A6000124C23600CF0E6FD002808D00421200001
:108A70000CF0DCFD002801D00D4B2360F8BD012275
:108A8000A12704250B4B0C491A602268FF0048609F
:108A90004E68002EFCD0DE591202013D3243002DFB
:108AA000F5D1226001225A60E8E7C046BC260020CA
:108AB000ED5EBC0B00D00040FCD00040F0B585B0AE
:108AC0001F000AAB1B880600029115000393002FBC
:108AD0001CD0282000F028FB6B4604001989039B5A
:108AE000AAB200933B000CF08AFE336821005B6859
:108AF0003000984700280AD0002C05D020000CF048
:108B000095FE200000F030FB024800E0024805B06E
:108B1000F0BDC04616FCFFFF17FCFFFF0B4B70B506
:108B20001C68002C10D0656D00F0C6FBA36C0029FA
:108B300001D1834206D820000CF0AFFD044920008B
:108B40000CF099FD2C00ECE770BDC046C826002053
:108B5000E8260020F0B593B007932A4B04AC1E68BA
:108B6000049005910692002E4AD0274B25886788ED
:108B70001C6800230293002C2ED0636D23480393BE
:108B8000A36C9AB2A36C1B0C99B2854214D12048F5
:108B9000824211D1002B01D0B9420BD1029B002B94
:108BA00008D120000CF079FD1A4920000CF063FD7B
:108BB00001230293039CDEE7002A01D09542F9D1FC
:108BC000002B01D0B942F5D120000CF066FD11490F
:108BD00020000CF050FDEDE70F4BEB18012B0FD9E7
:108BE00010233A00009329000C4B08A80CF007FE54
:108BF000336808A99B683000984708A80CF016FE57
:108C000013B0F0BDC4260020F4260020FE030000AF
:108C1000FF030000E826002002FCFFFF558B010047
:108C200010B572B60B4B1C68002C08D020000CF05D
:108C300034FD0023E364084B2000E36310BD62B6FB
:108C40005C2000F071FA5C220021040010F0C0FAF0
:108C5000EFE7C046EC26002000400020024B1878C9
:108C6000012318407047C046452A0020F7B506008A
:108C7000FFF7F4FF051E33D11A4C2660FFF7D0FF33
:108C8000194B1A4918600CF0F6FCFFF7C9FF184B96
:108C90001860184B4363184B8363206800280ED07C
:108CA000C027164E2A00330015490097FFF706FF2C
:108CB000009733002A0013492068FFF7FFFE0C20BD
:108CC00000F032FA0023838083710F4B03600F4B57
:108CD000836000F009FB01230D4A11780B431370E8
:108CE000F7BDC046C4260020F8260020E826002054
:108CF000F0260020FC3F002061570200558B010048
:108D0000FF030000FE030000909402001D8B010091
:108D1000452A0020F7B506000D0017000193002832
:108D200002D100242000FEBD0029FAD0FFF778FF11
:108D3000041EF6D0074B019A4363066045608760C6
:108D4000054B002A00D0054BA363054920000CF019
:108D500092FCE7E7FC3F00202B5702004957020036
:108D6000E8260020024B1868434258417047C0462D
:108D7000E8260020002310B504499C006258002A10
:108D800001D00133F9E76050100010BDD02600205B
:108D9000002310B5044A99008C58844201D0013355
:108DA000F9E70020885010BDD026002010B500241F
:108DB000084BA200D058002802D003685B6898478F
:108DC0000134062CF4D1044B1B68002B00D120BFCA
:108DD00010BDC046D0260020E8260020F8B5FFF7D9
:108DE0003DFF00281BD0294D2C68E36CDA0717D50E
:108DF00002263343E3640423254F3868C26C1343CF
:108E0000C364636BC3630CF06EFC3868416C03F0A1
:108E1000FAFA2868C36C334201D003F02EFBF8BD88
:108E20001C4F1D4E3A683168002A1ED129602A68FD
:108E30008A4208D11B0706D52C60FFF7B7FF3B68B5
:108E4000002BFAD02B6029688C42E8D03368994215
:108E500014D1124B4B63124B8B6320000CF043FC7C
:108E60002968626C4B6C20000DE0206DB84203D184
:108E7000606D002800D002002A60D8E79C42ECD147
:108E8000002210004B6C03F07DFAC8E7F8260020A2
:108E9000CC260020E8260020F0260020FC3F002001
:108EA0006157020070B50500FFF7D8FE002803D116
:108EB000280010F03CF870BD0C4B1C68E36CDB071D
:108EC00006D5FFF7ADFE0A4B1860002800D004005D
:108ED00000F0F2F92D18A56420000CF0DEFB054926
:108EE00020000CF0C8FBFFF779FFE4E7F82600202C
:108EF000CC260020C8260020F0B51E4B1E4F1C6853
:108F00003B6885B006000391002B30D0FFF7A6FE2A
:108F100000282CD0E36CDB070ED5FFF781FE174B42
:108F2000051E186008D00CF0B8FB154928000CF09D
:108F3000A2FB2C00FFF752FF039B20001B043343CE
:108F4000A3640CF0AAFB20000E490CF094FB0E4B1E
:108F50000024F318012B07D9C0230093039A0B4B6D
:108F600031003868FFF7AAFD200005B0F0BD084CBD
:108F7000FAE7C046F8260020C4260020CC260020B0
:108F8000E8260020F426002002FCFFFF558B01009C
:108F900016FCFFFF10B5FFF761FE002809D0054C55
:108FA00020680CF07AFB044920680CF064FBFFF7A2
:108FB00015FF10BDF8260020EC260020F7B50700AD
:108FC0000D0000282ED0FFF749FE00282CD00724E2
:108FD000164E3068C36C1C4007D0154A2900380073
:108FE0000CF072FB00242000FEBD03F02EFA0221DB
:108FF0003268D36C1940019103D003218B43D364B1
:10900000F1E701242343D3642800B8473268D36CC6
:109010001900A143D164019C5B07E4D528000CF042
:109020008BFBE0E7034CDEE7034CDCE7F82600208F
:109030003957020017FCFFFF16FCFFFF020010B5B6
:10904000014B12CB12C210BDFC260020034B1A6844
:10905000034B1A607E225A607047C04604200020ED
:10906000FC26002070B5104D2B78022B18D08142C1
:1090700018D90B1A072B15D90C00032304431C40E5
:1090800010D172B62A78094BD200D050981841609E
:109090000CF06CFB2B7801332B7062B6200070BD96
:1090A0000348FCE70348FAE7462A0020042700208B
:1090B00013FCFFFF17FCFFFF70B50021041C07F035
:1090C00031FB002828D1FE21201C890507F034FB44
:1090D000002821D104300BF05FFC05000F48401B35
:1090E00008F00AFB211C07F0A7FF07F059FB032338
:1090F0009843040028000BF059FC20000BF04CFCB6
:10910000002804D1203C002CF7D1054803E00119C8
:10911000FFF7A8FF002070BD0248FCE700380020E0
:1091200013FCFFFF17FCFFFF70B5060000250C4B7A
:109130001B78AB4209DD0B49EB00C91830000CF07D
:109140001DFB041E09D10135F1E730000BF024FCB2
:10915000041E02D11420FFF7C9FB200070BDC046D9
:10916000462A00200427002070B5002813D00D4B9C
:109170000D491C7800239C4210DDDA0055588542C9
:109180000AD28A185268824206D9802304380268BB
:109190001B061343036070BD0133ECE70BF006FCC4
:1091A000F9E7C046462A00200427002070B5051EB6
:1091B00014DD0B4E0B4C3368002B02D020680FF0EF
:1091C00031FDFA2120680024074B89008361C462C5
:1091D000694335600FF02EFD200070BD0348FCE7A9
:1091E00014270020442700209592010017FCFFFF60
:1091F000F8B5114F06003D68002D0AD13020FFF769
:1092000093FF040006F00AFB0C4BA5612360E562A6
:109210003C600B4D2B68002B09D11020FFF784FF19
:1092200004000FF0C8FC20002C600FF09EFC300002
:10923000FFF7BCFFF8BDC04644270020089A020093
:1092400040270020014B18687047C04614270020B3
:1092500070B50D4C2368002B03D00C4B1B68002B02
:1092600002D10620FFF7C4FF20680FF095FC020032
:109270000749C3170D684E685219734120680A6088
:109280004B600FF08FFC70BD40270020442700206A
:109290001822002010B5FFF7DBFF0024054BA200C9
:1092A000D058002802D003681B68984701340A2C64
:1092B000F4D110BD1827002010B5FFF7C9FFFA221E
:1092C000034B920018685968002307F049FA10BD53
:1092D0001822002010B5FFF7BBFF024B1868596831
:1092E00010BDC046182200200B4B10B51B680400AF
:1092F000002B03D0094B1B68002B02D10620FFF77F
:1093000077FF0023064A99008858002801D00133CE
:10931000F9E78C5010BDC0464027002044270020AC
:1093200018270020002310B5044A99008C58844265
:1093300001D00133F9E70020885010BD1827002024
:1093400010B50400002902D00B78002B03D1034B89
:109350002360200010BD0CF0BAFAFAE7A0940200D6
:10936000F8B504000E00150000290AD00B78002B78
:1093700007D0002A05D0080097B20FF069FF874296
:1093800003D90B4B23602000F8BD681DFFF7CCFE0E
:1093900020600CF07EFB23682A005F802368310088
:1093A000181D0FF0F9FE23685D1900232B71EAE701
:1093B000A0940200014B03607047C046A0940200D5
:1093C00010B50548054C20600CF066FB044A0549C1
:1093D00020000FF09AFE10BDA09402004827002044
:1093E00000200020C1580200084B73B51C6805001E
:1093F000002C0AD0010026680831082268460FF0C8
:10940000CBFE0CCD31682000884773BD4C2700206F
:1094100010B5054C012120000CF032FB034A044931
:1094200020000FF072FE10BD502700200020002009
:109430003D5A02000388074A10B50120934208D024
:10944000834202D00020DB0703D41E20FFF74EFA30
:10945000002010BDFFFF000010B50400034B0833CF
:109460000360FFF795FC200010BDC046E8940200A1
:10947000FA2270B5438992005343314A31491400AE
:10948000050038348B421BDC2F498B4218D82F49FA
:10949000083C8B4214D82E49083C8B4210D82D49E9
:1094A000083C8B420CD82C49083C8B4208D82B49ED
:1094B000083C8B4204D82A4914008B4200D9083456
:1094C000284B2A7B1E1D042A03D89E1C022A00D882
:1094D0001E00FA212068890006F092FF3378688127
:1094E0002B7300222A2128000CF0FAFA002801D060
:1094F0001D4870BD10222B2128000CF0F1FA002825
:10950000F6D101222D2128000CF0EAFA0028EFD133
:1095100001222E2128000CF0E3FA0028E8D172780D
:109520000E2128000CF0DCFA0028E1D10122237979
:109530002A211A4328000CF0D3FA0028D9D0D7E703
:10954000A894020000C409000071020080380100E4
:10955000204E00001027000088130000C4090000FE
:10956000E2040000E5A202000EFCFFFF7FB515003B
:109570000F226A4404001E001170002D16D0002B2B
:1095800014DD012301890093006B01F041F90028EB
:1095900002D0074804B070BD0090218933002A0032
:1095A000206B01F0EBF80028F4D0F2E70148F1E776
:1095B0000EFCFFFF17FCFFFFF7B506000025019327
:1095C0001E4B143608330400036085808571C58105
:1095D000058245820F0000922900182230000FF00A
:1095E000F7FD1C2130000FF0DFFB6B469B8802214A
:1095F000A3806B461B88220023811423A57121734D
:10960000A563A58763813E32137827638B43F131CD
:109610000B4013702300957295810135221DD5876B
:109620000833A21DD5872000DD87FFF721FF002822
:1096300002D1A3791D43A5712000FEBDE89402006C
:1096400030B50425837987B004002B4204D1FFF79D
:1096500091FBA3791D43A571A36AA2691B6800252C
:109660001A4208D106236A4601212000FFF77EFF37
:10967000051E03D0114D280007B030BD6B460222F5
:10968000042069469A561856237BD2005A432282F8
:1096900002220978C00049B2C9005943434363829A
:1096A000A379E1819343A37120000CF027FA0123F1
:1096B000A1881A0002A80CF09EF9DCE70EFCFFFF5F
:1096C000F8B50400FFF7BCFF0E22A35E794F5B42A2
:1096D000BB4251DA23003E331B789B074CD5012552
:1096E000210028003E310B785A08904302000220E6
:1096F000AA40834313430B702000FFF7A1FF102201
:10970000A35E5B42BB4248DA23003E331B785B0713
:1097100043D50125210028003E310B789A0890435B
:1097200082000420834313430B7026002000FFF7C0
:1097300087FF1222A35E4836BB423EDA23003E3347
:109740001B781B0739D5210001223E310B78D80840
:1097500082430820D200834313430B703378032BDA
:109760003BD80133DBB23370012B00D08DE02300F6
:1097700000224A331A8030E02000FFF761FF0E22FA
:10978000A35EC8225B42520000259342B4DD230051
:109790003E331B789B07A2D5AEE72000FFF750FFB2
:1097A0001022A35EC8225B4252009342BDDD23001B
:1097B0003E331B785B07ACD5B7E72000FFF740FFCF
:1097C000C8231221625E5B009A4204DD23003E330F
:1097D0001B781B07B7D5002DC0D13278002A14D0D2
:1097E0002100270001254A310B883E3701339BB207
:1097F0000B803878AC46054055D01D2B05D9634603
:109800009843002338700B80337020000CF0E2F98D
:10981000294A0723904244DD2000FFF711FF0E2361
:10982000E25E264E52420323B2423ADBC8252000B4
:10983000FFF706FF0E23E25EAD0052420423AA4268
:109840002FDC2000FFF7FCFE1023E25E02235242D1
:10985000B24226DB2000FFF7F3FE1023E25E012375
:109860005242AA421DDC2000FFF7EAFE1223E25E0C
:109870000523B24215DB2000FFF7E2FE1223E25E71
:109880000623AA420DDC00230BE0042BA5D1220005
:109890003E321178033B0B43137000234A3423807C
:1098A0000B331800F8BD092BAFD9013A0D80327087
:1098B000ABE7C04670FEFFFFFF700200E0FCFFFF59
:1098C00070B5C369C1681A68451D8AB00400EB7F92
:1098D000114255D0002B58D1EB7F082B0DD9012216
:1098E000A379134209D11343A371A188130006A8D9
:1098F0000CF081F8FFF7E0FC2062EB7F012B23D80E
:109900000123A2791A421FD00025A188A571022245
:1099100002A80CF070F8A31DDE7F012E14D1FFF712
:10992000CBFC2B00226A801A994100900191019B87
:10993000A188AB4203D1174B009A9A4227D9012341
:10994000042206A80CF057F80322A3791340012B38
:1099500014D1FFF7B1FC0023226A801A9941994281
:1099600002D10D4B984209D90223A279A188134351
:10997000A3710522012306A80CF03DF80AB070BDC2
:109980000B2BA9D80133EB77A6E7013BFBE73300AC
:109990000322D6E7E7030000DB05000010B5040052
:1099A000034B08330360FFF7BDFC200010BDC04629
:1099B00000950200F0B5070000250E0085B0029367
:1099C0000AAB1B7808370393104B0400083303607D
:1099D0000192858085712900182238000FF0F8FB6C
:1099E000039A310038000FF0E4F96B466A469B8811
:1099F000127AA380A31DE671DA77631D2562200029
:109A0000DD77FFF771FC200005B0F0BD0095020086
:109A100010B50400034B08330360FFF7B9F92000C9
:109A200010BDC046709502007FB515000F226A4434
:109A300004001E001170002D16D0002B14DD012330
:109A400001890093C06B00F0E3FE002802D00748B4
:109A500004B070BD0090218933002A00E06B00F053
:109A60008DFE0028F4D0F2E70148F1E70EFCFFFF7D
:109A700017FCFFFF002330B585B003AC21700189CE
:109A80000093050001332200C06B00F0C1FE0028E6
:109A900002D0094805B030BD2080298900900223FA
:109AA0002200E86B00F06AFE0028F2D1237860788B
:109AB0001B02184300B2EDE70EFCFFFF13B56B4627
:109AC000DC1D0023220023700133FFF7ADFF0028C7
:109AD00001D1207816BD0148FCE7C0460EFCFFFF0F
:109AE000D0B504000CF050F9E268A369981A09F0A7
:109AF00051FA06000F002369E069C01A09F04AFA1A
:109B000032003B0009F094FD0022104B08F052FC9B
:109B10000F4A104B08F04CF909F0C8FA0021041C58
:109B200006F0F6FD002804D0201C0B4906F012FFB9
:109B3000041C201C09F068FA02000B0000200749F1
:109B400008F0AAFE09F0F0F9D0BDC04600806640DA
:109B5000EA2E4454FB2109400000B44300807640C3
:109B6000F0B5050085B0006C0CF0D1F8061C286C2F
:109B70000CF0C4F80221071C28000CF036F9022171
:109B8000039028000CF043F907F06CFD0221041C3F
:109B900028000CF04EF907F065FD051C301C09F09B
:109BA00009FD0290301C09F0C7FC0190381C09F037
:109BB00001FD061C381C09F0BFFC071C039807F0C8
:109BC00051FD391C07F038FA311C071C201C07F026
:109BD00033FA029907F030FA011C381C06F0BAFE7D
:109BE000311C071C281C07F027FA019907F024FAFA
:109BF000011C381C06F0AEFE0299061C281C07F05A
:109C00001BFA0199051C201C07F016FA011C281CE0
:109C100007F044FB311C09F00FFD0D4907F00CFA69
:109C200009F0F2F90B4A0C4B08F0C2F809F03EFAC1
:109C30000021041C06F06CFD002804D0201C0449FF
:109C400006F088FE041C201C07F0ECFC05B0F0BDFB
:109C50000000B443EA2E4454FB21194070B50022A1
:109C6000102104000CF082F81B4D00282DD1032692
:109C700008212000FFF722FFA84226D0304226D13B
:109C8000FA216389890059435023144AD518D058C2
:109C9000884204D3D518083B18000830F7D1FA21C0
:109CA0002868890006F0ACFBA02260811121200009
:109CB0000CF05CF8002808D101222B7910211A43FE
:109CC00020000CF053F8002800D0034870BD642039
:109CD000FFF7E8F8CCE7C0460EFCFFFF189502003E
:109CE0007FB50425837904002B4218D102260CF09D
:109CF0004BF8A379A188B3432B43A3710622012318
:109D000068460BF078FEA07903003040AB43A371A6
:109D100043425841034B4042184004B070BD0248D2
:109D2000FBE7C04614FCFFFF15FCFFFF10B583796D
:109D300004005A070DD49B0701D4FFF7D1FF236C11
:109D40002000002B02D0FFF70BFF10BDFFF7C8FE6D
:109D5000FBE70148F9E7C04615FCFFFF70B5466C0C
:109D600086B001AC050001916260A360002E0CD0AA
:109D70000B4905A8FFF7E4FA0C23220005A93000DF
:109D80000CF07DFD05A80BF09BFD2B000C3307CCE0
:109D900007C30223AA791343AB7106B070BDC04656
:109DA000EBA20200642330B504000281438185B038
:109DB0008180FFF753FF0222A379606C9343A37164
:109DC000002813D00C490CF021FD051E0ED0010017
:109DD0000C22103101A80FF0DFF920000199029A3E
:109DE000039BFFF7BBFF2800FFF7BEF90123A27911
:109DF0001343A37105B030BDEBA20200F7B5009389
:109E000008AB1B880400019309AB1D8800230F00D9
:109E100016000D4A8380083283710260C3600361BB
:109E200043618361C36103621D2124300BF091FF04
:109E3000009BE7632664290020006364019AFFF712
:109E4000B1FF2000FEBDC0467095020082B0F0B5A3
:109E50000400A5B064202B932A920FF068F8042226
:109E60000C2109A802F06AFB2422CC491BA80FF0A0
:109E700093F9052206A811000DF0CFFDC84907A8E7
:109E800002F008FCA06800F081FBA568C54918A88D
:109E9000FFF756FA782218A9280000F015FC18A838
:109EA0000BF00EFD6E256420013D0FF040F8002DF3
:109EB000F9D1A06800F06AFBA0680CF05AF9012102
:109EC00060680BF09BFE0121070060680BF0A9FEA3
:109ED00006000A200FF02BF80022B34B03929F429A
:109EE00010DB013203923A00C8320BDBC822042196
:109EF00092000391974205DC03220392C82F01DCF4
:109F0000013A039200279E420CDB33000137C8332D
:109F100008DBC82303379B009E4203DC013FC82EA9
:109F200000DC013F06A80DF06FFD002603237343FC
:109F30001BA9CA189078002805D0C95C5278FF2365
:109F400006A802F03BFB01360C2EEFD16B463AB26D
:109F50000C21595E06A8FF2302F030FB0023A06805
:109F600000931A00743006A90DF05EFD00230493DF
:109F70000323049A039853431BAA995C814237D167
:109F8000D31805935B78BB4232D1059B9E78002E97
:109F90002ED1310020680BF028FF07F063FB320060
:109FA000031C290009A80CF0F3FE310020680BF017
:109FB0002EFF07F057FB0122031C290009A80CF013
:109FC000E7FE310020680BF034FF07F04BFB29005F
:109FD000031C022209A80CF0DBFEFE2303229B05D2
:109FE000290009A80CF0D4FE0123059AED189370FE
:109FF000049B013304930C2BBAD164200EF097FF1D
:10A000000B2D00DC5BE709A80CF0AEFE012201007D
:10A010000CA802F093FA002509A80CF0A5FEA842AE
:10A020003CDD2900002209A80CF0A0FE0022061C3D
:10A03000290009A80CF09AFE011C301C06F0FCFF58
:10A040002900061C012209A80CF090FE0122071C21
:10A05000290009A80CF08AFE011C381C06F0ECFF50
:10A06000311C06F077FC2900061C022209A80CF01E
:10A070007DFE02222900071C09A80CF077FE011CB6
:10A08000381C06F0D9FF311C06F064FC2900031CC3
:10A0900000220CA80CF07CFE0135BDE709AA1100D6
:10A0A000012318A80CF08EFE18A90FA80CF0E7FEEB
:10A0B00018A80CF07EFE0CAA09A912A801230CF026
:10A0C00081FE002312AA0FA915A80CF07BFE002226
:10A0D00015A811000CF04AFE0022061C012115A84B
:10A0E0000CF044FE0022051C022115A80CF03EFED7
:10A0F000FC21071C8905301C06F09EFF07F092FA30
:10A10000FC21060018908905281C06F095FF07F031
:10A1100089FAFC21050019908905381C06F08CFF8E
:10A1200007F080FA2A00030031001A902068FFF738
:10A1300015FEA0680CF01DF807A908A8A5680DF089
:10A140005BFC0022194B009208A901932800130020
:10A1500000F05EFA08A80DF042FCFA2080000EF034
:10A16000E6FEA0680CF005F815A80CF022FE12A877
:10A170000CF01FFE0FA80CF01CFE0CA80CF019FE32
:10A1800007A80DF02CFC06A80DF029FC09A80CF07E
:10A1900010FE25B0F0BC08BC02B01847F6A20200C1
:10A1A0001AA302005FA30200E0FCFFFFDC05000031
:10A1B000F7B583601D4B05001F6801604260002FEA
:10A1C00031D02820FEF7B0FF040010300BF009FC5E
:10A1D000174B18202360FEF7A7FF00220600154B3F
:10A1E00001920560083200210C3000930EF0F0FF60
:10A1F00008226946301D0EF0CFFF0F4B002273611D
:10A20000C223A3803B68E260A660226262625B6850
:10A21000210038009847002805D020000BF006FBED
:10A220002000FEF7A1FF2800FEBDC0464C270020FD
:10A23000050006004D9E01004B5E0200F0B50400D3
:10A2400085B0637A9C46002B04D120000BF028FED9
:10A2500005B0F0BDA37A266F01931023019AF3563F
:10A2600000259B1801229A402900F368039202936B
:10A27000029BAB4231DDB368019A6B439B18726954
:10A280005B00E77AD3181A785878E379012F14D154
:10A290005F1E3F1A10003A005B004343606F821854
:10A2A000D3189B79634500DD6346627B1A4202D076
:10A2B0000123AB4019430135DAE7022F05D15F1EB8
:10A2C000BA1A277A013F381AE6E7032FE4D1277A32
:10A2D000013FBF1A02003800DEE71123C943F356DD
:10A2E000606C994023691940039B19430EF003FFEA
:10A2F000A27B072AACD8637B0C495B006373531CB9
:10A30000DBB290004158A373022A03D808000EF074
:10A3100003FE96E7064B2000236300236363054B8F
:10A32000E462236414300EF085FC91E78895020006
:10A330003DA201008B5E020010B50400044B0360D7
:10A340000EF070FC200005F07FFA200010BDC04622
:10A35000089A020010B504000E4B08330360FEF7A4
:10A36000E1FF200074300DF03AFB200060300DF06A
:10A3700036FB200058300BF0A3FA200050300BF0D1
:10A380009FFA2000044B14306361FFF7D5FF2000D3
:10A3900010BDC046A89502003C9A0200F8B5002501
:10A3A0000400324B85800833036085711430160039
:10A3B0000F0005F033FA20002D4BE5626361256440
:10A3C0005030FEF7F7FF20005830FEF7F3FF200073
:10A3D000603002F0EDF820000423F25E3368266757
:10A3E000590009B274300DF018FB3368226FE37125
:10A3F00073680126237210236581A7802561D356D7
:10A4000091685918994204DD3000984001330543A2
:10A41000F8E711230120D356D1685918994206DD77
:10A4200002009A402669013332432261F6E7142084
:10A43000FEF77AFE226900212A430123060005F077
:10A4400041FEFF23220063720133A38100234832BF
:10A450006664A37320001370A366FEF745FF012313
:10A46000A27920001343A371F8BDC046A89502004D
:10A470003C9A0200F0B5437A85B00400002B04D169
:10A4800020000BF00DFD05B0F0BD0122837A110014
:10A490009C461023066F0025F356039263449940AF
:10A4A00002912900F3680193019BAB422CDDB36854
:10A4B00072696B4363445B00E77AD3181A78587863
:10A4C000E379012F10D15F1E3F1A10003A005B00A4
:10A4D0004343606F8218D3189B79002B02D0039BF3
:10A4E000AB4019430135DFE7022F05D15F1EBA1AD1
:10A4F000277A013F381AEAE7032FE8D1277A013F8C
:10A50000BF1A02003800E2E71123C943F356606C1A
:10A51000994023691940029B19430EF0ECFD667ABD
:10A52000B31EDBB2FC2B14D8FEF78CFE0B4B0500E0
:10A53000236300230A4863630A4BFF21E462236418
:10A54000704305F0E7FF29004143200014300EF06E
:10A5500071FB637A012B00D995E791E7A15E0200B8
:10A56000B60300008B5E02001FB5012381881A002C
:10A5700068460BF040FA012303491A0068460BF0C5
:10A580003AFA05B000BDC046FE0300001FB5030047
:10A5900048331A780400002A0DD000221A700123D3
:10A5A00081881A0068460BF026FA012304491A0034
:10A5B00068460BF020FA200074300DF025FA1FBD1C
:10A5C000FF03000010B548300378002B06D0037855
:10A5D000012B03D0012102480BF09EF810BDC046AC
:10A5E000FF03000010B50121040006200BF094F8D1
:10A5F000064B984208D148342378002B04D02378A6
:10A60000012B01D020BFF7E710BDC04616FCFFFFAD
:10A6100073B5079C0500002C1CDB0600483630781B
:10A62000002802D03078012816D106981BB2C0B29B
:10A630000090280012B274300DF0F6F9002C07D00B
:10A640002B004A331C80002407234C352C803370A8
:10A65000200076BD014CFBE7014CF9E717FCFFFF3A
:10A6600012FCFFFFF0B587B00D9C06000F000292B0
:10A670000393002C20DBFFF7A5FF330048331D7840
:10A68000EDB2002D1AD1390005A80DF0B5F90C9BDB
:10A6900001940093029A039B05A93000FFF7B8FFCD
:10A6A00005A80DF09CF9002C03D03000FFF79AFFAD
:10A6B0002C00200007B0F0BD014CFAE7014CF8E790
:10A6C00017FCFFFF11FCFFFFF8B50400171E1DDD8E
:10A6D000060048363378002B02D03378012B17D18F
:10A6E0002200E3795632013B13702300002520003D
:10A6F00054331D8050300BF042F923004A331F8041
:10A70000022328004C3425803370F8BD0148FCE753
:10A710000148FAE717FCFFFF12FCFFFFF7B5050041
:10A720000F00161E18DDFFF74DFF2B0048331C7875
:10A73000E4B2002C12D1390001A80BF018F9320054
:10A7400001A92800FFF7C0FF01A80BF0B9F8280005
:10A75000FFF748FF2000FEBD0148FCE70148FAE78B
:10A7600017FCFFFF11FCFFFFFF2902D841720020F8
:10A7700070470148FCE7C04617FCFFFFF0B51F001B
:10A7800085B00AAB1B780400039300933B000D00D7
:10A7900016000EF075FA002833D0237D082B2DD833
:10A7A000236800221900FC318A62A021C9005A5096
:10A7B000154905205A500138C046C046C046C0461B
:10A7C000C046C046C046C046C046C046C046C04659
:10A7D000F1D1236801325A50A0210432C9005A50E5
:10A7E00005F02CF9039B3200009329003B00200068
:10A7F0000EF046FA237D01332375CCE7034805B0FC
:10A80000F0BD2075FBE7C046FC0F00000EFCFFFF0B
:10A81000F0B51F0085B00AAB1B78040003930093CA
:10A820003B000D0016000EF013FA002833D0237DF4
:10A83000082B2DD8236800221900FC318A62A02140
:10A84000C9005A50154905205A500138C046C04623
:10A85000C046C046C046C046C046C046C046C046C8
:10A86000C046C046F1D1236801325A50A0210432BB
:10A87000C9005A5005F0E2F8039B3200009329000A
:10A880003B0020000EF0E4F9237D01332375CCE773
:10A89000034805B0F0BD2075FBE7C046FC0F000083
:10A8A0000EFCFFFFF8B50D1E30D000260227C4684D
:10A8B000002C28D0AA88A38853403B4204D13A42B6
:10A8C00004D1AB883B4219D0646AF1E7A968A0685B
:10A8D0000CF039FA0028F4D02B88002B02D0228803
:10A8E0009A42F1D16B88002B02D062889A42EBD158
:10A8F000A288074B01361343A380E5E7A368AA6843
:10A900009342E1D1E8E72000002E00DC0148F8BDC9
:10A910000080FFFF17FCFFFFF0B5060085B00D1E9D
:10A9200059D00127C468002C22D00221AA88002314
:10A930000A4202D0A3885B083B40226829688A4209
:10A9400010D1A068A968002B0AD00CF0FCF90028EF
:10A9500008D0A3881AB2002A06DB204805B0F0BD53
:10A960008842F6D0646ADEE75B045B0CA380F4E700
:10A97000F0682A88002807D1F56001231849684645
:10A980000BF039F80020E9E7010003001C8894422D
:10A9900006D25C6A1900002C0DD02300F6E72300D4
:10A9A0001C88944207D15F886C88A74203D25C6AF6
:10A9B0001900002CF3D1814209D10B889A4204D3AB
:10A9C00005D148886B88984201D96962D4E74B6AFF
:10A9D0006B624D62D1E70348C0E7C04616FCFFFF3B
:10A9E000FD03000017FCFFFF064B10B51A00040022
:10A9F00008322C33026043600430FEF7C9F92000AE
:10AA000010BDC046C095020008B4024B9C460438F5
:10AA100008BC6047E9A9010008B4024B9C46043811
:10AA200008BC6047B36202000C4A002311002C32BC
:10AA3000083110B5038183724260C36003614361D2
:10AA40004383016004000430FEF794F9044B1A6854
:10AA5000002A00D11C60200010BDC046C095020035
:10AA60004C270020F7B50E000125C4680192002C88
:10AA700036D0238832889A4201D0002B23D16388B4
:10AA800072889A4201D0002B1DD1FEF7E7F801230E
:10AA9000002806D0C022A3881340C03B5A4253412D
:10AAA000DBB2019A934219D1A7883BB2002B15DB88
:10AAB00010223100A0180EF06FFB40231F4204D07B
:10AAC00020000BF0FFFB646AD1E7FEF7C7F800280F
:10AAD000F6D021000348FEF771FAF4E70025F2E70B
:10AAE0002800FEBDC562020008B4024B9C46043833
:10AAF00008BC60474D640200F0B587B001930EAB0F
:10AB00001B88060003930D9B0D000093019B02928E
:10AB10000C9F002B3DD0002F02D1009BDB0738D5C6
:10AB20002820FEF701FB040010300AF05AFF6B46A4
:10AB30001B89258063801820FEF7F6FA0500009B2C
:10AB400008220593019B002103600C3004970EF04E
:10AB50003FFB082204A9281D0EF01EFB0E4B02220B
:10AB60006B6100230399E3602362636233680A43E5
:10AB7000A560A2805B68210030009847002806D0BD
:10AB800020000AF053FE2000FEF7EEFA034807B05B
:10AB9000F0BD0348FBE7C0468764020016FCFFFFD8
:10ABA00017FCFFFFF0B50400160000258380164A4D
:10ABB000164B85710260218146810573186889B042
:10ABC0008C46A8421DD0124A05950492C0220292DA
:10ABD0006A4604AB82CB82C223002A006146FFF79B
:10ABE0008BFFC022094B0A49186802926A460691F7
:10ABF00006AB079582CB82C223002A003100FFF703
:10AC00007BFF200009B0F0BD049602004C27002015
:10AC1000B165020030B5002403730123034D847134
:10AC20000560818082734373846030BD1C9602008E
:10AC300070B583790400DB0702D58068FEF794FACB
:10AC4000A3799B0702D5A068FEF78EFAA3795B076C
:10AC500007D5A0230021144ADB00D150A068FEF7DD
:10AC600083FAA3791B0708D5A568002D05D0280015
:10AC70000CF062FF2800FEF777FAA379DB0605D512
:10AC8000A068002802D00368DB6898476023A27997
:10AC90001A4205D0A068002802D003685B68984774
:10ACA0000023A360A37170BD00700040F7B50227B8
:10ACB000037B04000D003B4226D0012926D886796B
:10ACC0003E40009614D1FFF7B3FF1820FEF72CFA90
:10ACD0000E230600E3561822009901930EF078FA2D
:10ACE000019930000EF077F8A379A6603B43A37179
:10ACF000A3685A68002D04D00025DB681A6028007C
:10AD0000FEBD1B691A60FAE7014DF8E7014DF6E751
:10AD100016FCFFFF17FCFFFF70B5040000250C4B6D
:10AD20000E000833858085710360210018300BF018
:10AD3000F0FC2000210020300BF00EFD054BA6801A
:10AD4000E5802572E5602561656120001C6070BDAD
:10AD50002C960200542700208379DB0702D5C160BE
:10AD6000002070470048FCE716FCFFFF8379DB07F3
:10AD700001D5C06870470148FCE7C04616FCFFFFDC
:10AD800070B545690400002D22D0037A032B21D829
:10AD9000FFF7ECFFA8622C20FEF7C6F92C22002159
:10ADA00005000EF015FA002263695A622369934286
:10ADB00008D1636923610020237A6561013323721E
:10ADC00070BD13005A6A002AFBD162695A62F2E729
:10ADD0000148F5E70148F3E717FCFFFF13FCFFFF0D
:10ADE000144B70B55A68144C002A03D000225A60E4
:10ADF0000132A2601A69002A17D00021196180234C
:10AE0000DB000E4DE3582868012B0FD1A923DB008E
:10AE1000E1584942FFF7A0FF2868FFF7B1FF2B6810
:10AE20005A69074BE2500123A36070BDFFF794FFFE
:10AE3000F9E7C046FC1000400010004054270020F5
:10AE40000405000003000069002809D00221054A1A
:10AE5000D167426A1A611A7A013A1A72024B196072
:10AE60007047C04604E100E000E100E010B50029B1
:10AE700003DB024B19600DF053FF10BD5827002073
:10AE800070B504001E0004AB1D7804F00FFD200017
:10AE90000E4B40302360FEF78DFA230001364C3311
:10AEA000013522001E701D730023E1214E32A36480
:10AEB0006365138053809381D381013B20006364D9
:10AEC0004902FFF7D3FF200070BDC046689402001E
:10AED000F7B580277F053D697C690822113C6C43EA
:10AEE0000600210068460EF057F9104B009A9A426E
:10AEF00019D0009300230193796930001339694315
:10AF00000BF03FFC019A009930000BF052FC21003D
:10AF100030000BF036FC7969AB0813396943220025
:10AF200030000BF038FC0198FEBDC046FECA0000A0
:10AF3000F0B50D00A9B00D9200213022060010A836
:10AF40000B930EF045F928000EF082F9431C0C9388
:10AF5000102B00D9B5E00B9B202B00D9B1E02900C4
:10AF600030000BF053FC071E50D129000C9A10A89A
:10AF70000EF012F90D990B9A14A80EF00DF980231A
:10AF80005B051A695F690C92113F7A4330005D6975
:10AF90000B92FFF79DFF3022002104001CA80EF049
:10AFA00017F9290000270C9B1339594330000BF087
:10AFB000E8FB0D9730257D430B9B0833ED18A74226
:10AFC00042DA290030221CA80EF0E6F810A91CA8CD
:10AFD0000EF034F9002827D13C49300022000E91B0
:10AFE0000F940BF0E6FB6A46099513AB23CB23C203
:10AFF00023CB23C223CB23C23000129B1099119A7A
:10B000000BF0E5FB01230D930137D3E710300B9ACA
:10B010000D990EF0B2F804003800FEF7A5F8002CE8
:10B02000A3D1200029B0F0BD6A4609951FAB23CB00
:10B0300023C223CB23C223CB23C230001C991D9AE9
:10B040001E9B0BF0C4FBDFE7E5433023ED172540E3
:10B050005D430B9B08355D190D9B002B1DD10C9B8F
:10B060003021981E05F0CCF9A0422CD017490134AC
:10B07000300022000E910F940BF09BFB6A4609955D
:10B0800013AB23CB23C223CB23C223CB23C2300059
:10B090001099119A129B0BF09AFB0B9930000BF050
:10B0A00070FB80235B0559690C230C9A13396343A9
:10B0B0004A430233110030000B9A0BF06CFB002462
:10B0C000AFE7034CADE7034CABE7C046FECA000058
:10B0D00017FCFFFF13FCFFFF70B50400A280FA22EB
:10B0E000002308000C49920008312160A3716061BF
:10B0F000E260A360638209490BF088FB051E09D05A
:10B10000010020001031022212300EF045F8280014
:10B11000FEF72AF8200070BD449602006DA30200DD
:10B1200030B50225837987B004002B4204D1FDF7A6
:10B1300021FEA3791D43A57120000BF0B1FB00286F
:10B140001CD06B46DD1C28000BF0A1FB2B78002BDC
:10B1500017D001A80BF099FB0321019AD3170B40DC
:10B160009B189B102382FEF7A7F8E368A1881818A4
:10B170000123A0601A0002A80AF03DFC002007B0DD
:10B1800030BD0122064B1A60064A51680029FCD0E6
:10B1900000215160044A1268019201225A60DBE7E3
:10B1A00000C00040FCC0004008C50040022802D199
:10B1B0000122014B1A707047472A002070B5064CD7
:10B1C00005002378002B04D1044801F0AFFF0123D0
:10B1D0002370280070BDC046482A0020ADB1010090
:10B1E00070B50C000AF026FA002810D00023144D88
:10B1F000A40A2B7020000BF067FB002803D00A2064
:10B200000DF095FEF6E72B78002BFCD070BD0221E7
:10B210000C4B0D4A99508021C90008005D58002D43
:10B22000FCD0A121C9005C5019580029FCD0002194
:10B2300099508021C9005A58002AFCD0E6E7C04640
:10B24000472A002000E0014004050000F8B50C008A
:10B2500015001E000AF0EEF9002811D00023174F48
:10B260003B703200290020000BF02CFB002803D09B
:10B270000A200DF05CFEF4E73B78002BFCD0F8BD13
:10B2800001210F480F4B844619508021C9005A589C
:10B29000002AFCD080270022FF00964207DD9100A3
:10B2A00068586050D9590029FCD00132F5E70022D6
:10B2B00061465A50DA59002AFCD0E0E7472A0020BC
:10B2C0000405000000E0014010B50400054B083300
:10B2D00003601C300AF0F4FA200018300AF0F0FA8B
:10B2E000200010BD5C960200FF23F0B52C4D8DB000
:10B2F0002B700023040069460088009304F0BEF917
:10B30000002802D16B469B782B70264E3368DB6891
:10B31000002B07D1002320881A0019000BF0D8FA5F
:10B320000DB0F0BD2B78032BF4D81F4901A8FEF710
:10B3300007F8336801A9DE6804A80AF018FB04A91D
:10B3400030000BF096FA0027060004A80AF0B8FABD
:10B35000BE421ED031002022103104A80DF01CFF87
:10B360003000FDF701FF297804ABC9005918082205
:10B3700002A80DF011FF20880123082202A90BF07A
:10B38000A7FA0137002804D12088084A0C210BF0C5
:10B390009DFA01A80AF094FA002FBBD0C0E7C0467E
:10B3A000F0210020682700207DA30200FFFF00009D
:10B3B000F0B5837991B004005B071BD5FDF77CFFE6
:10B3C00000232269801A9941994203D1F423FF3363
:10B3D00098420FD9A068002808D0364B1D880CF081
:10B3E000C8FB036815221B6A290098470422A37929
:10B3F0009343A371A3799B0759D52F4D2B68DB6825
:10B40000002B50D02D4B1B78032B4CD8294B2C49AB
:10B410001B8804A80193FDF793FF2B6804A9DE683D
:10B4200008A80AF0A4FA08A930000BF022FA0700D5
:10B4300008A80AF045FA02AB9E1D082332003380AB
:10B4400006A9073B01980BF045FA002F08D03900F8
:10B450002022103108A80DF09FFE3800FDF784FE71
:10B46000164B32881B7806A9DE0008AB9E19300007
:10B470000DF083FE002813D0082206A930000DF03D
:10B480008BFE2B6804A9DD6805A80AF070FA20235A
:10B4900008AA05A928000BF0F2F905A80AF010FA8D
:10B4A00004A80AF00DFA0222A3799343A37111B004
:10B4B000F0BDC046F029002068270020F0210020C0
:10B4C0007DA30200F7B5089E0500152922D80120AA
:10B4D00007008F40244C27421CD0E97FCC181F2C3A
:10B4E00041DC69183418A14210D80021C8B2834247
:10B4F00004D9545C701884700131F7E732789A18D7
:10B500003270EA7F9B18EB7700202CE00878C85453
:10B510000139E8E73478013CE4B2A34208D10023C2
:10B52000D9B28C42F0D9D05CF11888700133F7E7BA
:10B53000EF7F0120FF183F1B1F2F14DC0227A01CE8
:10B540007F423618381B0190E87F2F18BE4204D284
:10B550003078019FF0550136F6E7041B023CEC778A
:10B5600028000BF001FAFEBDFC002000F0B585B00C
:10B5700001930AAB1E880BAB1B78451C02930EABE4
:10B580001B78040003930B78170003704B8A10227A
:10B590004382013128000DF0FFFD6B469B88268316
:10B5A00063836B461B7B002623776B4601221B7A45
:10B5B0006761E683EB77A31CDA770C9B0C2563624B
:10B5C000230020000D9A28331A705E709E702A00A6
:10B5D00031002C300DF0FCFD2000074BE663A36327
:10B5E0002A00310040300DF0F3FD2000034B2665AA
:10B5F000E36405B0F0BDC046EB680200DD68020000
:10B6000070B50D000CF0B5FA04000368002D09D1E7
:10B610005B699847FA2080006843074904F0F0FE10
:10B62000E08070BD9B6898478542F3D22368200074
:10B630009B6898470500EDE771020000F0B5070030
:10B640001600A1B002C704006B4918A81D000BF03A
:10B65000D2F9331E03D030000DF0FAFD83B201227F
:10B66000049200220392029202320192009332006D
:10B6700018A93800FFF77AFF23006049583318A84B
:10B6800007930BF0B8F92B1E03D028000DF0E0FD56
:10B6900083B20122049200220392029202320192AA
:10B6A00000932A0018A90798FFF760FF2300544968
:10B6B000AC3318A808930BF09EF9269B002B03D0FF
:10B6C00018000DF0C5FD83B20122049200220392FE
:10B6D0000292023201920093269A18A90898FFF765
:10B6E00045FF631CFF33474918A809930BF083F902
:10B6F000279B002B03D018000DF0AAFD83B2012276
:10B7000004920022601C0392029202320192009382
:10B71000279A18A9FF30FFF729FF23005533FF337D
:10B72000394918A809930BF066F9289B002B03D020
:10B7300018000DF08DFD83B20122049200220392C5
:10B740000292023201920093289A18A90998FFF7F1
:10B750000DFF2300A933FF332C4918A80A930BF0DF
:10B760004AF9299B002B03D018000DF071FD83B21C
:10B7700001220492002218AD039202920232019239
:10B780000093299A29000A98FFF7F0FE204B1B78B6
:10B790000B93002B2DD1079B12971393089B0DAF92
:10B7A0001493631CFF331593099B1A4916930A9B44
:10B7B000380017930BF01FF91D2149203B78102208
:10B7C0002B707B8A12AE6B8206ABC918C0180DF0C5
:10B7D000E3FC06232B756B469B8D2068AB83AE6123
:10B7E0000CF0CBF9036829001B6898470122084B2D
:10B7F0001A70200021B0F0BD292A0000242A000080
:10B80000252A0000272A0000262A0000282A0000F6
:10B81000492A00200A18000070B5002504000A4BD0
:10B820008580083385710360C1601830FDF7C2FD63
:10B8300020001C30FDF7BEFD044BA5601C600123F9
:10B8400065612000A37170BD5C960200682700202E
:10B85000FA2130B585B0050001230222890068462F
:10B860000AF0C9F8074C2068002809D00BF0FCF852
:10B870002988054B22681980022391790B43937123
:10B8800005B030BD68270020F029002010B50C005D
:10B8900007290DD880680CF06CF9064B195703681E
:10B8A0005B6C9847431E9841034B4042184010BDC3
:10B8B0000248FCE775A3020016FCFFFF17FCFFFF20
:10B8C000F0B5A44C0D00A544040007939AAB1B7877
:10B8D000A14909A804930692FDF732FD2000290032
:10B8E0001C300AF04CF8C020800001F015FC082044
:10B8F000FDF71AFC0600002100F0D0FF15ADA66090
:10B9000000210C220EA80DF063FC2B000EAA83CAA6
:10B9100083C3924B2900EB60002330002B610CF0B5
:10B9200011F9A0680CF025F908220021059016A84D
:10B930000DF04EFC1420FDF7F7FB29000200884BA8
:10B940001593C8C9C8C2874B059EC3600023A4369F
:10B9500003613368002B00D0F5E03060A0680CF084
:10B960000CF908220021060016A80DF031FC142065
:10B97000FDF7DAFB7C4B1593030086CD86C37B4B2A
:10B98000C36000230361336B002B00D0DDE0306324
:10B99000A0680CF0EEF808220021050016A80DF0B2
:10B9A00017FC1420FDF7C0FB714B15AE1593030077
:10B9B00086CE86C36F4B9835C360002303612B6826
:10B9C000002B00D0C3E02860012504AB1B7C04AA37
:10B9D0002B4308A9280013740AF07EFFA0680CF01E
:10B9E000D0F8036864495B6A9847A0680CF0C9F80E
:10B9F000036862499B699847A0680CF0C2F800236D
:10BA000002680093166804992A00B047049B002B33
:10BA10000AD020000BF031F8032805DDA0680CF0F7
:10BA2000B0F80368DB6898470EA80AF094FF2F204F
:10BA300004ABC0180AF08FFF362004ABC0180AF020
:10BA40008AFF3D20042504ABC0180AF084FF0EAB2A
:10BA50000A93A06804AB5D770CF093F803680AA919
:10BA60001B699847A0680CF084F803680AA95B6D0D
:10BA70009847A0680CF07DF803680021DB6D9847BB
:10BA8000A0680CF076F8036802219B6D98470021AE
:10BA90002000FFF7FBFE1820FDF746FBA16800F031
:10BAA00005FA374B374A1B68A1680393364B15A834
:10BAB0001B6800260293354B0CAF1B680193069B55
:10BAC0001B685B190093324B12681B68FFF7B6FDC9
:10BAD0003020FDF729FB079AA16800F0A7FAA068BB
:10BAE0000CF047F8036839009B6A9847294BBE80E1
:10BAF000A0680C930CF03DF803683900DB6A9847A6
:10BB00002900A0680AF083FF099A09219378A068A8
:10BB100052190AF08FFFA0680CF02BF8C8210671AB
:10BB2000A068FFF76DFD04AB1B7FB34204D0A06893
:10BB30000CF01FF80AF055FF09A809F0C1FE952383
:10BB40009B009D44F0BD036107E703611FE70361AC
:10BB500039E7C046ACFDFFFF70A40200F96802009F
:10BB600051B8010007690200E9B20100156902003D
:10BB7000436902002369020099BB0100CDBB0100AB
:10BB80006427002060270020082000205C27002078
:10BB90000C2000200800100013B506226846FDF7AF
:10BBA000DFFB094B1C68002C0AD0694601A809F08C
:10BBB000DEFE200001A90AF081FF01A809F080FE45
:10BBC000684609F07DFE13BD68270020002373B589
:10BBD00001AE0C0031000500019303F04FFD002879
:10BBE00002D1B278064B1A70064B1868002806D0AE
:10BBF00061426141044BC9B21D800AF067FF73BD09
:10BC0000F021002068270020F0290020F0B5040072
:10BC100097B0039107A89C490592FDF791FB9B49BA
:10BC200008A8FDF78DFB22000FAD28001C3207A9E4
:10BC300009F0B4FE08AA290009A809F0AFFE2800FF
:10BC400009F03EFE92490AA8FDF77AFBA0680BF0C6
:10BC500090FF03680DAE5B69984728000AF07BFEF1
:10BC6000332004ABC0180AF076FE3A2004ABC018AB
:10BC70000AF071FE412004ABC0180AF06CFE80236C
:10BC8000DB00B380A0680D950BF073FF03683100F3
:10BC90005B6D9847A0680BF06CFF036800219B6DFB
:10BCA0009847A0680BF065FF0700002506000A37DB
:10BCB0001F22002138000DF08BFAFD7730000AF0CA
:10BCC00087FE0621A0680AF0A2FE099A092193784E
:10BCD000A06804320AF0AEFEA0680BF04AFFC8214B
:10BCE0000571A068FFF78CFCA0680BF042FFFF27EE
:10BCF0002E000581A0680BF03CFF0AF072FE03984D
:10BD0000FEF744FC0AA90CA809F031FE78220CA920
:10BD10000398FEF703FD0CA809F0D2FD039920005B
:10BD20000AF0E7FE2000FDF725F804950125636978
:10BD30001D402DD057490BA800F0ACFC0BA90CA856
:10BD40000BF05AFE00220CA91300019200920398F6
:10BD5000FEF788FC0CA80BF042FE049B002B42D19E
:10BD6000043F282F41DD0025FE2F00DC049D0598AF
:10BD700009F0E2FF002806D0012362699A4313000C
:10BD800004221343636100260BA80BF028FE0495E0
:10BD900004226369134233D0FF210398C826FEF7BB
:10BDA000E3FC0025B600A36902229B5EAB4222DDC4
:10BDB000200029B2183009F007FE00230100039883
:10BDC0001A00743000F0B6FC3000FDF76BF80398F1
:10BDD0000AF0CFF9C820FDF765F802226369134223
:10BDE00009D10135DFE70437BBE703980AF0C1F951
:10BDF000002FBCDDBAE7FA208000FDF753F80026DB
:10BE0000022365691D421CD006331D4024D02249FF
:10BE10000BA800F03FFC0BA90CA80BF0EDFD0022D5
:10BE20000CA90192009213000398FEF71BFC0CA8CA
:10BE30000BF0D5FD1948FDF735F80BA80BF0CFFD39
:10BE4000174E6420FDF72EF8164B01369E4200DC9B
:10BE50006CE709F001FC69E713490BA800F01AFC34
:10BE60000BA90CA80BF0C8FD2B002A000CA901950A
:10BE700000950398FEF7F6FB0CA80BF0B0FD0BA89D
:10BE80000BF0ADFDDDE7C04689A3020099A30200D7
:10BE90009BA30200A9A30200EEA30200983A0000AF
:10BEA0008C0A00008B0A00002BA402000022594BD0
:10BEB000F0B50833060003600F001000A9B0B160B0
:10BEC0000BAB991801324870102AFAD10F3A524C34
:10BED0001A700E32105D991A0874013AFAD2997BE1
:10BEE0005A7B09020A4331000C31039125211B784A
:10BEF00013AD2B7002ABC918452302A81B186A8228
:10BF0000180010220DF048F9039B64216B61012396
:10BF1000002402AA2B7752181993093313701DAB12
:10BF20001C706D2302AA9B181C706E2321009B18A5
:10BF30001EA80C22EC836C621C700DF049F9374B83
:10BF40000C22210023A8AB63EC630DF041F9344BC4
:10BF500002AAEB6446239B180322DA7722002C65A1
:10BF60000595347306AD2B1901345A70102CFAD193
:10BF700001232C482B700E33195CEA1A1174013B13
:10BF8000FAD211212520AA7B6B7B12020BAC134342
:10BF90002A78638202ABC9182270C01810220DF0F3
:10BFA000FBF80123237505ABA36100233800A383AD
:10BFB0000BF0E3FD036821001B68984713ABDB8B94
:10BFC000B068B3820BF0D9FD002203680092B18AF9
:10BFD000039ADC680123A047B0680BF0CEFD070090
:10BFE0001420FDF7A1F8002201230400026106924B
:10BFF00040C00832290007930DF0CEF80A4BE360E9
:10C00000BB69002B03D13000BC6129B0F0BD2361B6
:10C01000F9E7C046749602009AA40200EB68020099
:10C02000DD680200AAA40200536B0200F0B50026EE
:10C030000400734BDDB0083303608160C26086800A
:10C04000867132006F4947A80AF023FE230014339B
:10C050000125042708931223009704950193089A59
:10C06000330047A9039602961DA8FFF77FFA320016
:10C07000654947A80AF00DFE08202200009733000A
:10C0800015AF10320495019047A90396029632A885
:10C09000FFF76CFA32005D4938000AF0FAFD230020
:10C0A000082004221C3309933900330004950190C1
:10C0B00000920396099A029647A8FFF757FA3200B2
:10C0C000534938000AF0E5FD5420FDF72DF805002E
:10C0D00020000123122104221830079004930191BB
:10C0E0000092390002003300280003960296FFF701
:10C0F0003DFA2800474BA5620822EC620AA93030BD
:10C100000A930B960DF048F8434B0422AB630123CE
:10C1100029352B7009992661E66107980DF03CF8E6
:10C120000422079908980DF037F86621032304AA22
:10C130008918CB77BA2104AA8918CB77872104AA5A
:10C1400049008918A26ACB77911CA685CB771DABD5
:10C150000C9332AB0D930F9247AB32002F4910A8CE
:10C160000E930AF096FD3021452004AB5B181B7836
:10C1700012313B7004AB5B181B8811397B8204AB16
:10C18000C918C01810220DF007F804220CADA068E1
:10C190003A75BD61BE830BF0F0FC036839001B6883
:10C1A0009847822204AB9B181B885432238404AB2B
:10C1B0009B181B885432A38404AB9B181B88A0686F
:10C1C00063840BF0DAFC07001420FCF7ADFF0500D8
:10C1D000134B066108221093119610A910C00CF0A1
:10C1E000DBFF104BEB60BB69B34206D1BD612000A1
:10C1F000FCF7C0FD20005DB0F0BD2B61F6E7C04646
:10C2000080960200DAA40200BAA40200CAA40200C6
:10C21000EAA40200656C0200D16B0200FAA40200DD
:10C2200091C20100FB6B0200F0B504000E00150086
:10C2300085B01F000CAB1B881030019309F0D1FBB7
:10C24000268065801820FCF76FFF02AE05003300E2
:10C250000AAA03CA03C32F602800082700213A0056
:10C260000C300CF0B5FF3A003100281D0CF094FFA3
:10C27000064B02226B61200000230199A5600A434E
:10C28000E360A2802362636205B0F0BD256C02000A
:10C29000F0B50B898DB00593CB68060004934B88ED
:10C2A000828C9A420ED1049C049B059A9B181B1BFE
:10C2B000032B3BDD62882188012308A809F09BFB42
:10C2C0000434F1E7428C9A4230D1049C049B059AD5
:10C2D0009B181B1B032B29DD2388282006936388CA
:10C2E000F7680793124B089300230993FCF71CFF90
:10C2F000C0236A460500029308AB03CB03C2330098
:10C300000699079A2800FFF78FFF3B6829005B68B2
:10C3100038009847002807D0002D05D0280009F0E4
:10C3200085FA2800FCF720FF0434CFE70DB0F0BDFC
:10C33000E36C020070B5040090B080680AF0CCFC99
:10C34000022101401AD1A38D002B17D00C4B6A4655
:10C3500004931023E568A1850591029304AB41CBBA
:10C3600041C20A00230006A8FFF75EFF2B6806A95A
:10C370009B682800984706A809F058FA10B070BDCD
:10C38000E36C0200002815D0006041608260C36049
:10C39000046145618661C761444604624C4644625B
:10C3A000544684625C46C462644604636E464663D7
:10C3B00074468463002A06D0C46B043C043A2568A2
:10C3C0001560B442F9D18C6BA6464E6BB546002B76
:10C3D00006D0CC6B043C043B1D682560B442F9D107
:10C3E0000C6BA446CC6AA3468C6AA2464C6AA14652
:10C3F0000C6AA046CF698E694D690C69CB688A6862
:10C40000086849687047006041608260C3600461E9
:10C4100045618661C761444604624C4644625446A5
:10C4200084625C46C462644604636E464663744636
:10C430008463C46B043C043925680D60B442F9D1AF
:10C44000C769866945690469704700604160826018
:10C45000C360046145618661C761444604624C461D
:10C460004462544684625C46C462644604636C461B
:10C4700044637446846304697047846BA646446BC6
:10C48000A546046BA446C46AA346846AA246446ACD
:10C49000A146046AA046C769866945690469C368FC
:10C4A000826800684168704710B5041E0CD00CF01B
:10C4B000CFFE431EE3189C4208D222781978013B34
:10C4C00021705A700134F6E7014810BD0020FCE7E6
:10C4D00017FCFFFFF0B585B002900C1E2AD0002398
:10C4E000C217161A56400193019B30005D1C631958
:10C4F0000A215F1E039304F0F3F84942303139708A
:10C5000030000A2104F006F847420600002F0FD140
:10C51000029B002B04DA2D23019D039A0235137030
:10C52000002320006355FFF7BFFF380005B0F0BDC2
:10C530000195D9E7004FF8E717FCFFFF10B58260BF
:10C540004A4304004160002A0ADD074B90009A42EA
:10C5500001DD01204042FCF7E7FD2060200010BD16
:10C5600000230360FAE7C046FEFFFF1F4A688B689E
:10C5700070B58360534304000D004260002B12DD50
:10C580000A4A9E003000934201DD01204042FCF740
:10C59000CBFD002320602A68D158C15004339E424D
:10C5A000FAD1200070BD00230360FAE7FEFFFF1FF1
:10C5B000014B03607047C0469896020030B5006892
:10C5C0004488A1420CDA8588AA4209DA002907DBEF
:10C5D000002A05DB5443401800198371002030BD48
:10C5E0000048FCE717FCFFFFF0B5070085B00E0020
:10C5F0001D0000291FDD002B1DD0046863880393F4
:10C600008B4200DD0391A3880293934200DD0292E6
:10C61000002306340193019B029A93420EDA29000B
:10C620002000039A0CF0B8FD3B68AD195B88E41854
:10C63000019B0133EEE7024805B0F0BD0020FBE7A7
:10C6400017FCFFFFF8B504000D0016001F000029BD
:10C6500001DB002A02DA0E4B2360F8BD10004843CC
:10C660000630FCF761FD206009F013FA23685D8055
:10C6700023689E80002F06D03B0032002900200056
:10C68000FFF7B2FFE9E720000BF0BEF9E5E7C0468F
:10C6900098960200F0B5060087B00D1E04D1244B19
:10C6A0000360300007B0F0BD00200F00040001005F
:10C6B00001903B78002B1AD03022524294469C4481
:10C6C0006246092A11D90A2B0AD1019B2418013389
:10C6D0000193A14200DA2100002004000137E8E7BD
:10C6E0000028FBD001340020F8E70120F6E76A4675
:10C6F000928809B212B23000FFF7A4FF33689C1D84
:10C7000003AB1F002A78002ACBD011003039092949
:10C7100003D81A7001330135F4E700221A70BB42C6
:10C72000F9D938000CF018FD3B0020700134F2E715
:10C7300098960200F0B5040089B006A80E00029297
:10C740001D00FCF77BFC236802995A88914235DA78
:10C750009B889D4232DA1F2E30D9079B01939E425F
:10C760002CDC0523002273430393069B0493039B55
:10C7700004999B18A03BCB5C00210593AE18029B4B
:10C78000CF1823685888019087420EDA9888B04203
:10C790000BDDDB1910270F41019870431B1805981A
:10C7A0000740781E87417F429F7101310529E6D1FC
:10C7B0000132052ADBD1002009B0F0BD0048FBE7BB
:10C7C00017FCFFFFF7B50468070063880E1E01938E
:10C7D0001EDD994218DA0023063400933B68009A64
:10C7E0009B889A4212DA019BA1199D1B2A00200006
:10C7F0000CF0D2FC601931000BF0F8F83B685B8854
:10C80000E418009B0133E8E70BF0FEF8002000E09D
:10C810000048FEBD17FCFFFF10B50548054C206021
:10C8200009F03AF9044A054920000CF06EFC10BDED
:10C83000989602006C27002000200020DF7902007B
:10C8400070B5002817D1114D2E68002E11D1083077
:10C850000CF066FC066046600D4E04003368002B49
:10C8600002D10BF0C1FB306023682C609B00F358B1
:10C870006360286870BD0122064907480B681340B1
:10C88000F8D1026043600A60F4E7C04674270020D4
:10C89000802700207027002078270020002370B513
:10C8A00004000160436099420AD1064D2B68002BB9
:10C8B00002D10BF099FB286023689B00EB58636062
:10C8C000200070BD80270020436810B50400002BB5
:10C8D00002D104480CF032FB606803681B6998477A
:10C8E00010BDC0460AA50200436810B50400002B25
:10C8F00002D104480CF022FB606803689B699847EA
:10C9000010BDC0460AA50200436810B50400002B04
:10C9100002D104480CF012FB606803685B6A984718
:10C9200010BDC0460AA5020000487047FFFF000086
:10C93000F0B597B00593036807AD1B6804910393A6
:10C9400011002B00060091C991C30024D368210077
:10C950000C220CA8EB602C610CF03AFC22000B4B73
:10C9600010940F9311AB1C70191901344A70102CDC
:10C97000FAD15A820193059B2A00009304990CABCB
:10C980003000039CA04717B0F0BDC046A17C020058
:10C9900070B5FC30046C0500002C0DD124200CF087
:10C9A000BFFB064B44608361054B8460C460046137
:10C9B0004461C46103602864286C70BD74970200F0
:10C9C0005C98020070B5FC30C56B0400002D11D1DD
:10C9D00034200CF0A5FB084B85604360074B456194
:10C9E0000361074B0562C361064BC5628362064B58
:10C9F000E0630360E06B70BDA497020094970200AF
:10CA00000498020014980200249802007FB503796C
:10CA10001548002B22D0154E154C33782000002BE2
:10CA20001CD102AD28000BF018F9002810D16B883A
:10CA3000592B0DD12B78AA88D91F012910D8009223
:10CA40000C4A2021200008F091F80123337004E003
:10CA50002022094920000CF002FC200004B070BD27
:10CA60000092064AEDE7C0462DA502006A2A002082
:10CA70004A2A00204FA5020047A502006CA502002B
:10CA800010B50400024B08C00BF0C7F9200010BD20
:10CA90009497020010B50400024B08C00BF0D2F9C5
:10CAA000200010BDA4970200064B70B5040003607F
:10CAB0004068002804D005690CF02EFB2800F8E738
:10CAC000200070BD84970200064B70B5040003601F
:10CAD0004068002804D005690CF01EFB2800F8E728
:10CAE000200070BDB4970200064B70B504000360CF
:10CAF0004068002804D005690CF00EFB2800F8E718
:10CB0000200070BDC4970200064B70B5040003609E
:10CB10004068002804D005690CF0FEFA2800F8E708
:10CB2000200070BD04980200064B70B5040003603D
:10CB30004068002804D005690CF0EEFA2800F8E7F8
:10CB4000200070BD14980200064B70B5040003600D
:10CB50004068002804D005690CF0DEFA2800F8E7E8
:10CB6000200070BDA8960200064B70B5040003605B
:10CB70004068002804D005690CF0CEFA2800F8E7D8
:10CB8000200070BDB8960200064B70B5040003602B
:10CB90004068002804D005690CF0BEFA2800F8E7C8
:10CBA000200070BDC8960200064B70B504000360FB
:10CBB0004068002804D005690CF0AEFA2800F8E7B8
:10CBC000200070BDD8960200064B70B504000360CB
:10CBD0004068002804D005690CF09EFA2800F8E7A8
:10CBE000200070BD7497020070B5FC30046C050025
:10CBF000002C0DD124200CF093FA064B4460836185
:10CC0000054B8460C46004614461C46103602864AE
:10CC1000286C70BD749702005C980200104B10B530
:10CC2000083303600F4B0400C36080230E4A5B008F
:10CC3000C250C018FDF780FB20000C4BB830E360F9
:10CC4000FFF7B2FF2000AC30FFF79EFF2000A030BE
:10CC5000FFF78AFF20006C30FFF776FF200010BD41
:10CC600088980200009902003C9A0200E8960200AF
:10CC7000F8B505000400AC356B68AB60A868002807
:10CC800007D0C36821009847AB68002BF4D01B691C
:10CC9000F3E72500B0352868002804D006690CF0B9
:10CCA0003BFA3000F8E72200FC2128605832137864
:10CCB0000B40137023005C33187020000A300BF017
:10CCC0008AF9200034300BF086F9606E002804D019
:10CCD00005690CF021FA2800F8E725009835606610
:10CCE0002868002804D006690CF016FA3000F8E72E
:10CCF0002600A43628603568002D05D02F6928004D
:10CD00000CF00AFA3D00F7E72000356029000C22FC
:10CD10006C300CF05DFA2000074BE567A367290033
:10CD20000C2280300CF054FA2300044A8C339034E7
:10CD300028001A602560F8BD857C0200777C02001F
:10CD4000444AF0B50600C260A022434B16360833B1
:10CD500003600100002342820400320085B00371A9
:10CD60008360037483823531137001329142FBD1A9
:10CD7000802580222000AD00D201F3773584110098
:10CD800000933830002300F039FF230021004033A6
:10CD900003931A002B0000255F31157001328A427F
:10CDA000FBD1039AFC21D5772200603213801379DE
:10CDB00020000B401371230068331D70274B25673B
:10CDC000E3660C22002178300CF002FA23002700E1
:10CDD00088331D60224B0837FB67843700210C2203
:10CDE00038000CF0F5F91F4B1F4AFB602300A033FD
:10CDF0003D611A601D4A5D60DA601D4A1D619A61DD
:10CE0000DD6130000BF0E7F803980BF0E4F8194B04
:10CE1000601CE3602300C4331D705D709D70FF30A3
:10CE200002F0FCFC8C235B00E55023001933FF3338
:10CE30005D618023104A5B00E25023000122200044
:10CE4000FE3352425A86023B9D63DD631D6405B08A
:10CE5000F0BDC046E896020088980200A89602003D
:10CE6000857C0200777C0200B8960200C89602001A
:10CE7000D8960200009902003C9A020070B5074C57
:10CE80002368002B07D1A02040000CF049F90500D1
:10CE9000FFF756FF2560206870BDC046842700203C
:10CEA00070B50C220D00002104000CF091F9002354
:10CEB0002361024B25602000E36070BD937C02007B
:10CEC00070B500250400254B85800360244BC560A8
:10CED0008360244B85614361234B45620362234B8E
:10CEE0000563C362224BC563836329004430FFF7A7
:10CEF000D7FF200029005830FFF7D2FF200029007B
:10CF00006C30FFF7CDFF1B4B2200236023008032E3
:10CF1000F83320C29342FCD126001D00E936FF36CB
:10CF200028000822002108350CF052F9AE42F7D152
:10CF30008E2300229B00E11804C6B142FCD18E234F
:10CF400000219B00E2540C4B0C4AE318A2181980F4
:10CF500002339A42FBD1200070BDC046D497020034
:10CF60008497020094970200A4970200B4970200ED
:10CF7000C4970200D09802003A020000620200004A
:10CF800010B5040001F01CFA034B1B68002B01D004
:10CF90002000984710BDC0468C270020F0B58BB00C
:10CFA000050002F0ABF90020FFF768FF03680700F7
:10CFB0001B6998473B6804009B69380098473B68A9
:10CFC00006005B6A380098470300288810380B2851
:10CFD00062D803F00BFA063E6161615B61616167D3
:10CFE0006179AF88200039000BF0DFFC22006B7BF9
:10CFF000583201931378A8799C46022361460B436B
:10D00000137004AB1F80012304AA9370D070130027
:10D010006A461279E91D9A722B000622163305A87A
:10D0200009930CF0B9F829000B2004AB06220E314D
:10D03000C0180CF0B1F894346368A360A0680028AD
:10D040002AD0C36804A99847A368002BF4D01B69B1
:10D05000F3E720002F49AF880BF0A7FC2200022045
:10D0600058321378A9798343137004AB1F809970E9
:10D07000A0346368A360A06800280DD0C36804A929
:10D080009847A368002BF4D01B69F3E75B69A88875
:10D09000A91D002B00D09847290030000BF006F99D
:10D0A0000BB0F0BD636E002BF6D0AF79A366A06E17
:10D0B0000028F1D0C36839009847A36E002B01D136
:10D0C000636EF3E71B69F1E7012269460D27AB7B2D
:10D0D000EF571A4001925A07920FDB080A720B733E
:10D0E0000622E91D04A80CF057F86A46127904AB31
:10D0F000DA716A46127A9F711A726A46127B2000B0
:10D100005A722B000F3307938C348030236804A9A4
:10D110009847C1E7FFFF00000723D72802D9024B39
:10D12000186000231800704788270020014B186002
:10D130007047C0468C2700201FB58022A323D2054C
:10D14000DB00D3580820DB0700D405301C4B4822F5
:10D150001C4901F03FFC00280AD080B2002807D10A
:10D16000BFF34F8F184B194ADA60BFF34F8FFEE7BA
:10D17000002302A8029301330370154B1B68436020
:10D180000AF0B8FF002802D0072005B000BD6846AD
:10D190000AF0AEFF0028F7D169460AF0A7FF002881
:10D1A000F2D10C4801F046FC80B20028EDD10A48CB
:10D1B00001F04AFC80B20028E7D100F085FBE4E7EB
:10D1C000F98002009027002000ED00E00400FA053D
:10D1D000882700209DCF010081CF010080B2002868
:10D1E00007D1BFF34F8F034B034ADA60BFF34F8F72
:10D1F000FEE7704700ED00E00400FA0513B504688F
:10D200000093A46813000A000149A04716BDC04658
:10D21000FFFF000037B506AC257804680195009340
:10D22000246913000A000149A0473EBDFFFF00002A
:10D23000F0B587B00D00002469466F4616004C809B
:10D240000DAA0CA90988127839800193A2421BD13A
:10D2500001004479F83194420DD908310F00083F9C
:10D260003F88B7421BD13021203292001258013240
:10D27000D27F0A4215D16A46310028000AF044FFE5
:10D28000002808D1062407E06A46310028000AF089
:10D290003BFF002800D00324200007B0F0BD01327E
:10D2A000D9E710210A4051424A41002002ACE36014
:10D2B0000CABA360174B01322680A270A0809D4268
:10D2C00007D1FFF7DBFD03681B6998470BF070FB84
:10D2D0000500210028000AF01BFF002482B2A242B0
:10D2E000DAD0112A13D00BD8082ACBD06A463100E5
:10D2F00028000AF009FF05240028CDD0023CCBE726
:10D30000054B9A4203D0054B9A42EFD1BAE7052468
:10D31000C2E7C046FFFF00000330000001340000F8
:10D32000F0B5050099B008002E240C9100F00EF91C
:10D3300006ABE4181290220012A901200AF0E2FEC6
:10D34000002802D0032019B0F0BD23880C9A0B905E
:10D3500093830C9B0B9A1B7D934200D8C6E06B799C
:10D360001D2B01D90720EEE70C9B9B690D930B9BAE
:10D370000D9A9B009C586369002B07D1638B002B8F
:10D3800004D1631CDB7F022B00D1AAE0200000F057
:10D39000DDF823000026283312900E960D960F9389
:10D3A0000F9B1B78B34221D9626AB3009F58342285
:10D3B00006AB9B1800221A700023002113AAD21872
:10D3C00001335170102BF8D1462206AB9B184A4A04
:10D3D00013A938001A800AF01AFF002803D07B69CD
:10D3E0000D937B8B0E930136F6B2D9E76979A31CB6
:10D3F0001F31C9006918621CDB7FD27F08912100B0
:10D400002A310978002007912100293109780691F5
:10D410000E9905910D990491217F0391218B029121
:10D42000618B01916169009112A90BF072F80028DB
:10D4300000D087E76B7907001A00203292001F3373
:10D440005451DB005B5BE3836B7901336B71230029
:10D4500028331B78BB4244D98E239B00EB5C132BF3
:10D4600000D97FE7626ABB009E580023180013A909
:10D470000B70CA1801335070102BFAD11E4B3000BC
:10D480004B820AF0C4FE0D90002827D1300000F036
:10D490005DF88E2189006A5C738B1E32FF32520068
:10D4A000AA180292327F12900192328B12A9009236
:10D4B00072690D9800F09AF8002800D042E78E219A
:10D4C00089006A5C531CDBB26B541D337A32FF3324
:10D4D00092005B005651EB185B88F3830137FFB273
:10D4E000B5E70B980130C3B20B9332E72B790020DC
:10D4F00001332B7127E7C0460129000070B50500F4
:10D500000AF097FD04000620002C1CD12800782288
:10D51000210080300BF05CFE2800E9305022210011
:10D52000FF300BF055FE280008222100F8300BF0E8
:10D530004FFE054B2822E81821000BF049FE8E23F0
:10D5400020009B00EC5470BD3A020000F0B5438A05
:10D5500085B00193037805000126002B35D0214AC0
:10D5600000241100831900931F4B1F68A74210D09D
:10D570000023981E012804D90098D65CC05C86421E
:10D580002CD10133102BF4D111235C4309190E7CEB
:10D590001BE000980AF0A6FF2B7807000600002B7E
:10D5A00001D112350095042C0FD0112565430D4B88
:10D5B00010225D19009928000BF0EEFD0023AB70DE
:10D5C000EB70094B01342F741C6003AB9E705888BC
:10D5D000019B00040343180005B0F0BD0134113273
:10D5E000C4E7C0466B2A0020D8270020F0B589B0D8
:10D5F00000930EAB1B8805000F0016000193032259
:10D600000FAB002102A81C780BF0E2FD01230E20D5
:10D610001C40DB181C4302AB9C700E4B02AA13800B
:10D6200002AB06220021C0180BF0D2FD03AC02AB06
:10D6300063606B461B88109A23816B469B88210090
:10D6400028000397A38126610AF048FF80B209B041
:10D65000F0BDC0461111000070B500200D00FFF7AD
:10D660000DFC03685B6A98472B780400142B1ED0CE
:10D6700003D8132B0CD0002070BD152B1FD0222BEC
:10D68000F9D16B6818882369002BF4D09847F2E72A
:10D690006B68012518889B78646819005A08DB06B6
:10D6A00029402A405B0F002CE5D0A047E3E76B68D8
:10D6B00018889978A368002BDDD09847DBE7686865
:10D6C000827813091207120F012A03D0022A0BD005
:10D6D000002106E0013BDBB20021022B01D8064A03
:10D6E000D15C0088E368E6E70421012BF9D0013121
:10D6F000022BF6D0ECE7C04691A50200014B18784A
:10D700007047C046AF2A0020F0B51D000023304FFF
:10D7100087B000923A7806000C009A4204D100F0DB
:10D7200083FE002803D00B23180007B0F0BD002DA6
:10D730000ED003A9222003950AF097FF002807D0F6
:10D7400006230828F0D01138434243410433EBE765
:10D75000002302AA1000137001F08AFB0028E2D116
:10D7600001251C4902220B782E40AB433343072688
:10D7700093430193009B2C4033409340AC409C4624
:10D78000019B02AA1C431C239C4363461C430E239B
:10D790009B181880104B0C700393022303AC237169
:10D7A000093002AB0522C0180BF0F6FC21000B4833
:10D7B00001F0C8FB002807D033000428B4D0013B97
:10D7C0000828B1D00533AFE73D700300ACE7C04691
:10D7D000AF2A0020F121002059D60100B02A0020F4
:10D7E00010B5074801F086FC0023984206D00733A5
:10D7F000042803D0013B082800D00533180010BDD1
:10D80000B02A0020002373B501930F4B01AD1B78A4
:10D810000E0029002B7001F031FF041E05D00423F7
:10D82000052800D00733180076BD3100280001F02C
:10D83000C3FB23000028F6D007230428F3D0013BC4
:10D840000828F0D00533EEE7B02A002073B5114C5C
:10D850000E0005000522210068460BF09DFC012EFC
:10D8600003D0022E10D002230CE002222378B3430F
:10D8700093436946280023700AF0F5FE002398427E
:10D8800000D00B33180076BD012322781343B34335
:10D89000EFE7C046F1210020094B10B51A780100CE
:10D8A0000923002A09D0074801F0BEFB0023984253
:10D8B00003D003330E2800D00333180010BDC04638
:10D8C000AF2A0020B02A00201FB5002302ACA3809D
:10D8D000104B01A80293C8235B00E380803BFF3B11
:10D8E000037005220C490AF0DAFE80B200280FD13D
:10D8F000802080000AF0CFFE80B2002808D12000EE
:10D900000AF0CBFE80B2002802D10AF0C2FE80B23B
:10D9100004B010BD2800900194A50200024B0B60DA
:10D92000092313607047C0469AA5020010B5040091
:10D930000020FFF7A3FA03681B6998470300F3333D
:10D940001C7086235B00C05003000021044AFC3396
:10D950005A61044A99615A62F4300BF06BF910BDB8
:10D960006788020079880200012110B5044A080086
:10D9700001F0B8FE0023984200D00B33180010BD10
:10D980002DD90100F0B593B0019000200C00FFF7F5
:10D9900075FA03685B6A9847FFF7B0FE06AB00288C
:10D9A0000ED000221A7105AA0692082218001A73D6
:10D9B0000AAA9A60FFF770FF002803D013B0F0BDE9
:10D9C00018711873002727732771019BBA331B78CE
:10D9D000BB4242D907237B431A000199BB32CB18C3
:10D9E000BB331B788A180292022B2ED1002506AE7B
:10D9F000337BAB4223D9AB000393089BAA00995811
:10DA000002980AF034FE00281CD0B3689C46AB0094
:10DA10001900237B614402939A000868A368D050E0
:10DA2000029B01332373337B5A1E954205D00C4869
:10DA30001B1860469B001B580B6006AB1A7301371E
:10DA4000FFB2C2E70135EDB2D1E723792168029830
:10DA50009A00013350502371F1E70020AEE7C04631
:10DA6000FFFFFF3FF0B50A7804009BB00D000220D5
:10DA7000012A08D04B88032A07D1A03B21499BB239
:10DA800010008B4207D91BB0F0BD203B1E4A9BB251
:10DA900003209342F7D81D4BAA8803209A42F2D85C
:10DAA0000AAB009312AB02936A460023260013715F
:10DAB0001373B8363378002B1DD104AF1822002120
:10DAC00038000BF085FB2B7838003B7033783B72C5
:10DAD0006B46FB606B883B82AB887B820AF0E7FD7C
