:020000021000EC
:1080000000400020A5000200E1000200E3000200A1
:108010000000000000000000000000000000000060
:10802000000000000000000000000000E500020069
:108030000000000000000000E7000200E90002006C
:10804000EB00020099AB010051FD0100EB000200C2
:10805000EB00020000000000A5FE0100EB000200A2
:10806000EB000200B9F8010015FE0100EB00020070
:10807000EB000200EB000200EB000200EB0002004C
:10808000EB000200EB000200EB000200EB0002003C
:10809000EB0002007DF4010015E80100EB00020096
:1080A000EB000200EB0002000000000000000000F6
:1080B00000000000000000000000000000000000C0
:1080C00010B5064C2378002B07D1054B002B02D0AE
:1080D000044800E000BF0123237010BD20220020CF
:1080E0000000000070A40200044B10B5002B03D068
:1080F0000349044800E000BF10BDC0460000000076
:108100002422002070A40200164B002B00D1144B37
:108110009D46402292029A1A924600218B460F46B3
:108120001348144A121A10F015FF0F4B002B00D001
:1081300098470E4B002B00D09847002000210400E8
:108140000D000D48002802D00C4800E000BF0CF0E4
:10815000DBFA2000290010F07DFC0CF0BFFAC046CD
:1081600000000800004000200000000000000000A7
:1081700018220020102B002000000000000000004A
:1081800010B50400034B036040300DF05EFA200090
:1081900010BDC046E891020070B50A48FA2400F00C
:1081A0007FF96400084D0121280002F05BFC2000EB
:1081B00000F054FD0021280002F054FC200000F0E3
:1081C0004DFDEFE7C42200203C220020F7B52F4CE4
:1081D0000025200000F0A4F82D4E2E49320020008A
:1081E00010F058FE03232C4C1A000721200002F047
:1081F000EDFB32002949200010F04CFE0123284CF1
:108200001A0000951121200001F0B0FA254F32002C
:108210003900200010F03EFE234C0095012302227D
:108220001A21200001F0A2FA32003900200010F0DB
:1082300031FE08231D4C20202560A560E5602561E6
:108240006561A561E56125626562636000F048FED5
:10825000636820605D1E6D08AD00451980208000B8
:1082600000F03EFE8022920083182860E0602361C7
:108270002B6865619A1865622262A0603200E36132
:10828000A3610B49200010F005FEF7BDC4220020B9
:1082900000200020B58201003C2200203152020063
:1082A0004C22002055970100742200209C220020BF
:1082B0006B520200EB23194A9B0010B5C2501C33CD
:1082C0000400C0180DF0C1F9F1239B00E0180DF077
:1082D000BCF984239B00E01801F076FA2000C53039
:1082E000FF3000F095FF20008D30FF3001F032FAB2
:1082F00020006530FF3001F02DFA2000EC3001F055
:1083000005FF2000D03002F04BFA2000643007F067
:1083100031F9201DFFF734FF200010BDE493020067
:108320001423F0B5040095B00093192218210430ED
:1083300002F082FC220027006432B43713211000BF
:10834000119207F023F938000EF01FF92200B8321D
:1083500010921E21002210980DF0D5FD2000D03083
:1083600002F03EFA2200EC3212920621494A12989B
:1083700001F0F0FE20000026012365301A0000966F
:108380001121FF3001F0F2F920008D300096012319
:1083900002221A21FF3001F0E9F925002000C5353D
:1083A000B530FF351A2302220121FF3002F0D6FA40
:1083B000109904233A22280000F0DAFF8422920068
:1083C000A218139205231D22019300923B002A005C
:1083D0001099139801F0EEFB96229200129BA018C0
:1083E00013992A0001F0C0FD99229200A0183900CB
:1083F0001C2202F04DFD19239F220F93013B0E9387
:10840000013B0D93013B0C93013B0B93013B0A9302
:10841000013B0993013B0893013B0793013B069302
:10842000013B0593013B0493013B0393013B029302
:10843000013B01939200013BA01800930822013BED
:1084400007210DF068FDEB239B00E018390003F0D5
:10845000BFF8F3239B00E0181D2102F039FBFD2338
:108460009B00E65011982670032110F023FA230098
:108470002200200008499C33A0321C601160566025
:10848000064A80305A610221012207F0BDFD20001A
:1084900015B0F0BDF0910200995202008352020023
:1084A0000123F0B5067889B004001E4000D0ADE08D
:1084B000FD20800500F0DCFC2300D033180002937F
:1084C00000F0B0FA00F0A6F9282000F009FD050040
:1084D00010300DF04BF94E4B18202B6000F000FDD2
:1084E00007004C4B0460082231000C3006930796BD
:1084F00010F030FD06A9381D082210F00FFD464B84
:1085000029007B611223AF60EE60AB802E626E6249
:10851000029802F0DDF8002805D028000DF04BF895
:10852000280000F0FDFC012322786420134323700F
:1085300000F094FB002523006533FF3318000393FC
:108540000DF0BFFA00283CD020008D30FF300DF038
:10855000B8FA002835D00A2D33D06420013500F058
:108560007DFB0A2DE7D12D492D4800F057FCFD2752
:10857000EB23BF009B00E618E359002B1AD100F053
:108580005DF8010004A800F0B7FD05A80CF0F6FEA8
:10859000012305AA04A900933000029B03F06CF8A4
:1085A00005A80DF052F804A80DF04FF8ED239B003C
:1085B000E358E3512100039AEC31300003F002FA52
:1085C000B9E7FD2515491648AD0000F027FC6659AE
:1085D000002E1BD100F032F8010004A800F08CFD41
:1085E00005A80CF0CBFEEB239B00E01805AA029B2C
:1085F00004A9009603F040F805A80DF026F804A899
:108600000DF023F8ED239B00E358635109B0F0BD52
:10861000FD0300000B530200CB520200002000209B
:10862000001C0020BFF34F8F024B034ADA60BFF3F8
:108630004F8FFEE700ED00E00400FA05F0B58DB0C5
:1086400005AF19221549380010F068FC0022144BC0
:1086500005245A7180225205566E0122250001948C
:10866000029203930199300007F02CFE0800029952
:1086700007F0A2FD019B03996B430193029B361AFD
:108680006B430293631E2C1B6C433C19225C1C1E23
:10869000CA54E7D108000DB0F0BDC046369E0200B6
:1086A0003E2A0020F0B597B018220021060010A83D
:1086B00010F050FC132110A810F03BFA032110A871
:1086C00010F006FB4C4B1B68002B00D10133DBB2D2
:1086D00002934A4A012300210BA807F0CFFB484B25
:1086E0009E4200D9002672B6464B64211D68464B57
:1086F00030000793052407F0E9FD60435030281847
:1087000008900A21300007F0E1FD0A2107F0C4FEBD
:10871000614350316918099130000A2107F0BCFE0D
:10872000802361430024503169189B010A91019311
:10873000029B002B5DD0002500272E1F07AB9B1945
:108740000593032C03D1802300249B01019307ABE5
:108750005B592E4A03936300D31804930023190036
:1087600006205843049A16187678B4466246039E4B
:10877000B25C10269446049A105C6246064116428A
:1087800002D00120984001430133092BE8D1C943AD
:108790001F4B059A090119401268039B934225D18A
:1087A000312F23DC00210BA810F06AFBFA23159A65
:1087B0001199DB00106801421BD0013B002BF9D15D
:1087C000019B01345B000193FA230137E4B25B00A3
:1087D0009F42B6D10435102DAED1074B1B68002B3C
:1087E000A6D0029F013FFBB20293A1E7019B194370
:1087F000D9E7FFF717FFC046C0260020F0FF0000B2
:10880000E703000004200020859E02004F9E020026
:10881000F01F0000F8B50023124C23600CF0CFFDD0
:10882000002808D0042120000CF0C5FD002801D04C
:108830000D4B2360F8BD0122A12704250B4B0C49E9
:108840001A602268FF0048604E68002EFCD0DE5996
:108850001202013D3243002DF5D1226001225A60FF
:10886000E8E7C046BC260020ED5EBC0B00D000400F
:10887000FCD00040F0B585B01F000AAB1B88060095
:10888000029115000393002F1CD0282000F028FB34
:108890006B4604001989039BAAB200933B000CF0BD
:1088A00073FE336821005B683000984700280AD0C7
:1088B000002C05D020000CF07EFE200000F030FBE4
:1088C000024800E0024805B0F0BDC04616FCFFFFBC
:1088D00017FCFFFF0B4B70B51C68002C10D0656DAA
:1088E00000F0C6FBA36C002901D1834206D820000A
:1088F0000CF098FD044920000CF082FD2C00ECE700
:1089000070BDC046C8260020E8260020F0B593B010
:1089100007932A4B04AC1E68049005910692002E22
:108920004AD0274B258867881C6800230293002CB7
:108930002ED0636D23480393A36C9AB2A36C1B0CD7
:1089400099B2854214D12048824211D1002B01D026
:10895000B9420BD1029B002B08D120000CF062FD24
:108960001A4920000CF04CFD01230293039CDEE722
:10897000002A01D09542F9D1002B01D0B942F5D19E
:1089800020000CF04FFD114920000CF039FDEDE7FF
:108990000F4BEB18012B0FD910233A00009329003D
:1089A0000C4B08A80CF0F0FD336808A99B68300058
:1089B000984708A80CF0FFFD13B0F0BDC4260020B6
:1089C000F4260020FE030000FF030000E82600203C
:1089D00002FCFFFF0D89010010B572B60B4B1C683D
:1089E000002C08D020000CF01DFD0023E364084B90
:1089F0002000E36310BD62B65C2000F071FA5C22D7
:108A00000021040010F0A6FAEFE7C046EC26002093
:108A100000400020024B1878012318407047C046E0
:108A2000442A0020F7B50600FFF7F4FF051E33D1F6
:108A30001A4C2660FFF7D0FF194B1A4918600CF04A
:108A4000DFFCFFF7C9FF184B1860184B4363184B46
:108A50008363206800280ED0C027164E2A003300FA
:108A600015490097FFF706FF009733002A001349C6
:108A70002068FFF7FFFE0C2000F032FA002383800D
:108A800083710F4B03600F4B836000F009FB0123E0
:108A90000D4A11780B431370F7BDC046C426002061
:108AA000F8260020E8260020F0260020FC3F0020C9
:108AB000EB5402000D890100FF030000FE030000DB
:108AC00010920200D5880100442A0020F7B5060064
:108AD0000D0017000193002802D100242000FEBDE4
:108AE0000029FAD0FFF778FF041EF6D0074B019A51
:108AF0004363066045608760054B002A00D0054B44
:108B0000A363054920000CF07BFCE7E7FC3F002055
:108B1000B5540200D3540200E8260020024B186826
:108B2000434258417047C046E8260020002310B554
:108B300004499C006258002A01D00133F9E76050D3
:108B4000100010BDD0260020002310B5044A990063
:108B50008C58844201D00133F9E70020885010BDC1
:108B6000D026002010B50024084BA200D0580028C1
:108B700002D003685B6898470134062CF4D1044B9B
:108B80001B68002B00D120BF10BDC046D02600209E
:108B9000E8260020F8B5FFF73DFF00281BD0294D3F
:108BA0002C68E36CDA0717D502263343E364042309
:108BB000254F3868C26C1343C364636BC3630CF006
:108BC00057FC3868416C03F0FAFA2868C36C3342EA
:108BD00001D003F02EFBF8BD1C4F1D4E3A683168E2
:108BE000002A1ED129602A688A4208D11B0706D5AF
:108BF0002C60FFF7B7FF3B68002BFAD02B60296889
:108C00008C42E8D03368994214D1124B4B63124B1B
:108C10008B6320000CF02CFC2968626C4B6C2000EC
:108C20000DE0206DB84203D1606D002800D0020035
:108C30002A60D8E79C42ECD1002210004B6C03F074
:108C40007DFAC8E7F8260020CC260020E826002080
:108C5000F0260020FC3F0020EB54020070B5050018
:108C6000FFF7D8FE002803D1280010F025F870BDCA
:108C70000C4B1C68E36CDB0706D5FFF7ADFE0A4B17
:108C80001860002800D0040000F0F2F92D18A56447
:108C900020000CF0C7FB054920000CF0B1FBFFF7EA
:108CA00079FFE4E7F8260020CC260020C826002023
:108CB000F0B51E4B1E4F1C683B6885B00600039143
:108CC000002B30D0FFF7A6FE00282CD0E36CDB078A
:108CD0000ED5FFF781FE174B051E186008D00CF06B
:108CE000A1FB154928000CF08BFB2C00FFF752FF6D
:108CF000039B20001B043343A3640CF093FB200070
:108D00000E490CF07DFB0E4B0024F318012B07D904
:108D1000C0230093039A0B4B31003868FFF7AAFD7C
:108D2000200005B0F0BD084CFAE7C046F826002048
:108D3000C4260020CC260020E8260020F4260020AF
:108D400002FCFFFF0D89010016FCFFFF10B5FFF7C5
:108D500061FE002809D0054C20680CF063FB044933
:108D600020680CF04DFBFFF715FF10BDF826002022
:108D7000EC260020F7B507000D0000282ED0FFF7E5
:108D800049FE00282CD00724164E3068C36C1C40C6
:108D900007D0154A290038000CF05BFB00242000A6
:108DA000FEBD03F02EFA02213268D36C1940019106
:108DB00003D003218B43D364F1E701242343D3641D
:108DC0002800B8473268D36C1900A143D164019CD4
:108DD0005B07E4D528000CF074FBE0E7034CDEE70A
:108DE000034CDCE7F8260020C354020017FCFFFF09
:108DF00016FCFFFF020010B5014B12CB12C210BDD2
:108E0000FC260020034B1A68034B1A607E225A602E
:108E10007047C04604200020FC26002070B5104D8D
:108E20002B78022B18D0814218D90B1A072B15D991
:108E30000C00032304431C4010D172B62A78094B5E
:108E4000D200D050981841600CF055FB2B780133BC
:108E50002B7062B6200070BD0348FCE70348FAE7B8
:108E6000452A00200427002013FCFFFF17FCFFFF0A
:108E700070B50021041C07F031FB002828D1FE2129
:108E8000201C890507F034FB002821D104300BF0A9
:108E90005FFC05000F48401B08F00AFB211C07F08F
:108EA000A7FF07F059FB03239843040028000BF0A9
:108EB00059FC20000BF04CFC002804D1203C002C75
:108EC000F7D1054803E00119FFF7A8FF002070BDA6
:108ED0000248FCE70038002013FCFFFF17FCFFFFEF
:108EE00070B5060000250C4B1B78AB4209DD0B4921
:108EF000EB00C91830000CF006FB041E09D1013547
:108F0000F1E730000BF024FC041E02D11420FFF71F
:108F1000C9FB200070BDC046452A00200427002060
:108F200070B5002813D00D4B0D491C7800239C42CE
:108F300010DDDA00555885420AD28A1852688242FA
:108F400006D98023043802681B061343036070BDF2
:108F50000133ECE70BF006FCF9E7C046452A002098
:108F60000427002070B5051E14DD0B4E0B4C336832
:108F7000002B02D020680FF01AFDFA21206800248F
:108F8000074B89008361C462694335600FF017FDA8
:108F9000200070BD0348FCE7142700204427002070
:108FA0004D90010017FCFFFFF8B5114F06003D681A
:108FB000002D0AD13020FFF793FF040006F00AFBD2
:108FC0000C4BA5612360E5623C600B4D2B68002BC8
:108FD00009D11020FFF784FF04000FF0B1FC20003E
:108FE0002C600FF087FC3000FFF7BCFFF8BDC046D7
:108FF000442700208897020040270020014B186872
:109000007047C0461427002070B50D4C2368002B14
:1090100003D00C4B1B68002B02D10620FFF7C4FFC6
:1090200020680FF07EFC02000749C3170D684E68E8
:109030005219734120680A604B600FF078FC70BDD4
:1090400040270020442700201822002010B5FFF7F9
:10905000DBFF0024054BA200D058002802D0036893
:109060001B68984701340A2CF4D110BD1827002042
:1090700010B5FFF7C9FFFA22034B92001868596830
:10908000002307F049FA10BD1822002010B5FFF7A1
:10909000BBFF024B1868596810BDC046182200205B
:1090A0000B4B10B51B680400002B03D0094B1B6849
:1090B000002B02D10620FFF777FF0023064A990014
:1090C0008858002801D00133F9E78C5010BDC04604
:1090D000402700204427002018270020002310B537
:1090E000044A99008C58844201D00133F9E70020EA
:1090F000885010BD1827002010B50400002902D0A8
:109100000B78002B03D1034B2360200010BD0CF023
:10911000A3FAFAE720920200F8B504000E00150049
:1091200000290AD00B78002B07D0002A05D00800B0
:1091300097B20FF04FFF874203D90B4B23602000FB
:10914000F8BD681DFFF7CCFE20600CF067FB2368BC
:109150002A005F8023683100181D0FF0DFFE2368AE
:109160005D1900232B71EAE720920200014B036096
:109170007047C0462092020010B50548054C20609B
:109180000CF04FFB044A054920000FF083FE10BD90
:109190002092020048270020002000204B560200A9
:1091A000084B73B51C680500002C0AD00100266826
:1091B0000831082268460FF0B1FE0CCD316820005E
:1091C000884773BD4C27002010B5054C01212000B5
:1091D0000CF01BFB034A044920000FF05BFE10BD9E
:1091E0005027002000200020C75702000388074AAC
:1091F00010B50120934208D0834202D00020DB0743
:1092000003D41E20FFF74EFA002010BDFFFF000020
:1092100010B50400034B08330360FFF795FC2000F2
:1092200010BDC04668920200FA2270B543899200D0
:109230005343314A31491400050038348B421BDC5A
:109240002F498B4218D82F49083C8B4214D82E49FD
:10925000083C8B4210D82D49083C8B420CD82C4935
:10926000083C8B4208D82B49083C8B4204D82A4939
:1092700014008B4200D90834284B2A7B1E1D042A77
:1092800003D89E1C022A00D81E00FA2120688900FB
:1092900006F092FF337868812B7300222A21280080
:1092A0000CF0E3FA002801D01D4870BD10222B21DC
:1092B00028000CF0DAFA0028F6D101222D2128002E
:1092C0000CF0D3FA0028EFD101222E2128000CF057
:1092D000CCFA0028E8D172780E2128000CF0C5FAEB
:1092E0000028E1D1012223792A211A4328000CF019
:1092F000BCFA0028D9D0D7E72892020000C40900A0
:109300000071020080380100204E0000102700008C
:1093100088130000C4090000E204000065A00200F8
:109320000EFCFFFF7FB515000F226A4404001E00EB
:109330001170002D16D0002B14DD0123018900933C
:10934000006B01F041F9002802D0074804B070BD5D
:109350000090218933002A00206B01F0EBF80028EF
:10936000F4D0F2E70148F1E70EFCFFFF17FCFFFF26
:10937000F7B50600002501931E4B14360833040090
:10938000036085808571C581058245820F0000924A
:109390002900182230000FF0DDFD1C2130000FF0F5
:1093A000C8FB6B469B880221A3806B461B8822006A
:1093B00023811423A5712173A563A58763813E32A0
:1093C000137827638B43F1310B40137023009572A0
:1093D00095810135221DD5870833A21DD587200030
:1093E000DD87FFF721FF002802D1A3791D43A57176
:1093F0002000FEBD6892020030B50425837987B055
:1094000004002B4204D1FFF791FBA3791D43A57102
:10941000A36AA2691B6800251A4208D106236A467E
:1094200001212000FFF77EFF051E03D0114D28000B
:1094300007B030BD6B460222042069469A56185682
:10944000237BD2005A43228202220978C00049B20B
:10945000C900594343436382A379E1819343A371D4
:1094600020000CF010FA0123A1881A0002A80CF0C9
:1094700087F9DCE70EFCFFFFF8B50400FFF7BCFF3F
:109480000E22A35E794F5B42BB4251DA23003E338A
:109490001B789B074CD50125210028003E310B7815
:1094A0005A08904302000220AA40834313430B70E2
:1094B0002000FFF7A1FF1022A35E5B42BB4248DA07
:1094C00023003E331B785B0743D50125210028008C
:1094D0003E310B789A089043820004208343134363
:1094E0000B7026002000FFF787FF1222A35E48368C
:1094F000BB423EDA23003E331B781B0739D52100DF
:1095000001223E310B78D80882430820D2008343E1
:1095100013430B703378032B3BD80133DBB233702A
:10952000012B00D08DE0230000224A331A8030E066
:109530002000FFF761FF0E22A35EC8225B425200AB
:1095400000259342B4DD23003E331B789B07A2D550
:10955000AEE72000FFF750FF1022A35EC8225B4257
:1095600052009342BDDD23003E331B785B07ACD530
:10957000B7E72000FFF740FFC8231221625E5B00BF
:109580009A4204DD23003E331B781B07B7D5002D1C
:10959000C0D13278002A14D02100270001254A3199
:1095A0000B883E3701339BB20B803878AC460540C0
:1095B00055D01D2B05D963469843002338700B8086
:1095C000337020000CF0CBF9294A0723904244DD88
:1095D0002000FFF711FF0E23E25E264E52420323C6
:1095E000B2423ADBC8252000FFF706FF0E23E25EF9
:1095F000AD0052420423AA422FDC2000FFF7FCFEFC
:109600001023E25E02235242B24226DB2000FFF723
:10961000F3FE1023E25E01235242AA421DDC200029
:10962000FFF7EAFE1223E25E0523B24215DB2000BB
:10963000FFF7E2FE1223E25E0623AA420DDC0023BE
:109640000BE0042BA5D122003E321178033B0B43E3
:10965000137000234A3423800B331800F8BD092B04
:10966000AFD9013A0D803270ABE7C04670FEFFFF04
:10967000FF700200E0FCFFFF70B5C369C1681A68A3
:10968000451D8AB00400EB7F114255D0002B58D104
:10969000EB7F082B0DD90122A379134209D1134383
:1096A000A371A188130006A80CF06AF8FFF7E0FC8C
:1096B0002062EB7F012B23D80123A2791A421FD00D
:1096C0000025A188A571022202A80CF059F8A31D5B
:1096D000DE7F012E14D1FFF7CBFC2B00226A801A0B
:1096E000994100900191019BA188AB4203D1174B96
:1096F000009A9A4227D90123042206A80CF040F8C8
:109700000322A3791340012B14D1FFF7B1FC0023EE
:10971000226A801A9941994202D10D4B984209D987
:109720000223A279A1881343A3710522012306A86D
:109730000CF026F80AB070BD0B2BA9D80133EB77DB
:10974000A6E7013BFBE733000322D6E7E70300006F
:10975000DB05000010B50400034B08330360FFF77E
:10976000BDFC200010BDC04680920200F0B507008D
:1097700000250E0085B002930AAB1B7808370393CF
:10978000104B040008330360019285808571290025
:10979000182238000FF0DEFB039A310038000FF07A
:1097A000CDF96B466A469B88127AA380A31DE671A9
:1097B000DA77631D25622000DD77FFF771FC20005A
:1097C00005B0F0BD8092020010B50400034B0833D1
:1097D0000360FFF7B9F9200010BDC046F092020007
:1097E0007FB515000F226A4404001E001170002D81
:1097F00016D0002B14DD012301890093C06B00F00B
:10980000E3FE002802D0074804B070BD0090218913
:1098100033002A00E06B00F08DFE0028F4D0F2E760
:109820000148F1E70EFCFFFF17FCFFFF002330B5F6
:1098300085B003AC2170018900930500013322003B
:10984000C06B00F0C1FE002802D0094805B030BD51
:1098500020802989009002232200E86B00F06AFE34
:109860000028F2D1237860781B02184300B2EDE79C
:109870000EFCFFFF13B56B46DC1D00232200237096
:109880000133FFF7ADFF002801D1207816BD014854
:10989000FCE7C0460EFCFFFFD0B504000CF039F920
:1098A000E268A369981A09F051FA06000F002369CB
:1098B000E069C01A09F04AFA32003B0009F094FD51
:1098C0000022104B08F052FC0F4A104B08F04CF9E4
:1098D00009F0C8FA0021041C06F0F6FD002804D0A7
:1098E000201C0B4906F012FF041C201C09F068FA2A
:1098F00002000B000020074908F0AAFE09F0F0F969
:10990000D0BDC04600806640EA2E4454FB21094089
:109910000000B44300807640F0B5050085B0006CCF
:109920000CF0BAF8061C286C0CF0ADF80221071CEC
:1099300028000CF01FF90221039028000CF02CF9EC
:1099400007F06CFD0221041C28000CF037F907F029
:1099500065FD051C301C09F009FD0290301C09F062
:10996000C7FC0190381C09F001FD061C381C09F0E9
:10997000BFFC071C039807F051FD391C07F038FAAB
:10998000311C071C201C07F033FA029907F030FA4B
:10999000011C381C06F0BAFE311C071C281C07F0FD
:1099A00027FA019907F024FA011C381C06F0AEFED4
:1099B0000299061C281C07F01BFA0199051C201CA3
:1099C00007F016FA011C281C07F044FB311C09F0B3
:1099D0000FFD0D4907F00CFA09F0F2F90B4A0C4B98
:1099E00008F0C2F809F03EFA0021041C06F06CFDF4
:1099F000002804D0201C044906F088FE041C201C0A
:109A000007F0ECFC05B0F0BD0000B443EA2E44546E
:109A1000FB21194070B50022102104000CF06BF8F6
:109A20001B4D00282DD1032608212000FFF722FF1F
:109A3000A84226D0304226D1FA21638989005943B1
:109A40005023144AD518D058884204D3D518083B5F
:109A500018000830F7D1FA212868890006F0ACFB1D
:109A6000A0226081112120000CF045F8002808D1C7
:109A700001222B7910211A4320000CF03CF8002819
:109A800000D0034870BD6420FFF7E8F8CCE7C0467B
:109A90000EFCFFFF989202007FB504258379040035
:109AA0002B4218D102260CF034F8A379A188B343D5
:109AB0002B43A3710622012368460BF061FEA079B7
:109AC00003003040AB43A37143425841034B404233
:109AD000184004B070BD0248FBE7C04614FCFFFF0D
:109AE00015FCFFFF10B5837904005A070DD49B07BE
:109AF00001D4FFF7D1FF236C2000002B02D0FFF729
:109B00000BFF10BDFFF7C8FEFBE70148F9E7C046B1
:109B100015FCFFFF70B5466C86B001AC05000191E5
:109B20006260A360002E0CD00B4905A8FFF7E4FA91
:109B30000C23220005A930000CF066FD05A80BF0EF
:109B400084FD2B000C3307CC07C30223AA791343EF
:109B5000AB7106B070BDC0466BA00200642330B587
:109B600004000281438185B08180FFF753FF022208
:109B7000A379606C9343A371002813D00C490CF0B7
:109B80000AFD051E0ED001000C22103101A80FF0B5
:109B9000C5F920000199029A039BFFF7BBFF28003B
:109BA000FFF7BEF90123A2791343A37105B030BDBD
:109BB0006BA00200F7B5009308AB1B88040001936B
:109BC00009AB1D8800230F0016000D4A8380083260
:109BD00083710260C360036143618361C361036297
:109BE0001D2124300BF07AFF009BE76326642900D7
:109BF00020006364019AFFF7B1FF2000FEBDC0465C
:109C0000F092020082B0F0B50400A5B064202B935E
:109C10002A920FF051F804220C2109A802F06AFBE5
:109C20002422CC491BA80FF079F9052206A81100BF
:109C30000DF0B8FDC84907A802F008FCA06800F0C4
:109C400081FBA568C54918A8FFF756FA782218A91C
:109C5000280000F015FC18A80BF0F7FC6E25642016
:109C6000013D0FF029F8002DF9D1A06800F06AFB42
:109C7000A0680CF043F9012160680BF084FE01211B
:109C8000070060680BF092FE06000A200FF014F83F
:109C90000022B34B03929F4210DB013203923A0041
:109CA000C8320BDBC822042192000391974205DCE5
:109CB00003220392C82F01DC013A039200279E423F
:109CC0000CDB33000137C83308DBC82303379B00A4
:109CD0009E4203DC013FC82E00DC013F06A80DF0C8
:109CE00058FD0026032373431BA9CA189078002847
:109CF00005D0C95C5278FF2306A802F03BFB013671
:109D00000C2EEFD16B463AB20C21595E06A8FF2308
:109D100002F030FB0023A06800931A00743006A9FB
:109D20000DF047FD002304930323049A0398534343
:109D30001BAA995C814237D1D31805935B78BB424B
:109D400032D1059B9E78002E2ED1310020680BF079
:109D500011FF07F063FB3200031C290009A80CF077
:109D6000DCFE310020680BF017FF07F057FB0122E3
:109D7000031C290009A80CF0D0FE310020680BF06C
:109D80001DFF07F04BFB2900031C022209A80CF061
:109D9000C4FEFE2303229B05290009A80CF0BDFE8A
:109DA0000123059AED189370049B013304930C2B47
:109DB000BAD164200EF080FF0B2D00DC5BE709A810
:109DC0000CF097FE012201000CA802F093FA002586
:109DD00009A80CF08EFEA8423CDD2900002209A84B
:109DE0000CF089FE0022061C290009A80CF083FE55
:109DF000011C301C06F0FCFF2900061C012209A8EA
:109E00000CF079FE0122071C290009A80CF073FE52
:109E1000011C381C06F0ECFF311C06F077FC290011
:109E2000061C022209A80CF066FE02222900071C6B
:109E300009A80CF060FE011C381C06F0D9FF311C8B
:109E400006F064FC2900031C00220CA80CF065FE3F
:109E50000135BDE709AA1100012318A80CF077FE0F
:109E600018A90FA80CF0D0FE18A80CF067FE0CAAD9
:109E700009A912A801230CF06AFE002312AA0FA957
:109E800015A80CF064FE002215A811000CF033FE9A
:109E90000022061C012115A80CF02DFE0022051C35
:109EA000022115A80CF027FEFC21071C8905301C97
:109EB00006F09EFF07F092FAFC2106001890890533
:109EC000281C06F095FF07F089FAFC21050019907F
:109ED0008905381C06F08CFF07F080FA2A00030081
:109EE00031001A902068FFF715FEA0680CF006F804
:109EF00007A908A8A5680DF044FC0022194B0092A0
:109F000008A901932800130000F05EFA08A80DF0DC
:109F10002BFCFA2080000EF0CFFEA0680BF0EEFFC5
:109F200015A80CF00BFE12A80CF008FE0FA80CF000
:109F300005FE0CA80CF002FE07A80DF015FC06A803
:109F40000DF012FC09A80CF0F9FD25B0F0BC08BC1E
:109F500002B0184776A002009AA00200DFA002001B
:109F6000E0FCFFFFDC050000F7B583601D4B05003A
:109F70001F6801604260002F31D02820FEF7B0FF3B
:109F8000040010300BF0F2FB174B18202360FEF793
:109F9000A7FF00220600154B019205600832002140
:109FA0000C3000930EF0D6FF08226946301D0EF0EB
:109FB000B5FF0F4B00227361C223A3803B68E260B0
:109FC000A660226262625B68210038009847002820
:109FD00005D020000BF0EFFA2000FEF7A1FF2800CB
:109FE000FEBDC0464C27002005000600059C010070
:109FF000D55B0200F0B5040085B0637A9C46002B67
:10A0000004D120000BF011FE05B0F0BDA37A266F3D
:10A0100001931023019AF35600259B1801229A40C0
:10A020002900F36803920293029BAB4231DDB368CF
:10A03000019A6B439B1872695B00E77AD3181A7810
:10A040005878E379012F14D15F1E3F1A10003A00AF
:10A050005B004343606F8218D3189B79634500DD32
:10A060006346627B1A4202D00123AB40194301359B
:10A07000DAE7022F05D15F1EBA1A277A013F381A94
:10A08000E6E7032FE4D1277A013FBF1A0200380028
:10A09000DEE71123C943F356606C994023691940E8
:10A0A000039B19430EF0ECFEA27B072AACD8637B1E
:10A0B0000C495B006373531CDBB290004158A373DF
:10A0C000022A03D808000EF0ECFD96E7064B2000AC
:10A0D000236300236363054BE462236414300EF0B2
:10A0E0006EFC91E708930200F59F0100155C0200E9
:10A0F00010B50400044B03600EF059FC200005F07D
:10A100007FFA200010BDC0468897020010B50400F9
:10A110000E4B08330360FEF7E1FF200074300DF0B2
:10A1200023FB200060300DF01FFB200058300BF0A7
:10A130008CFA200050300BF088FA2000044B1430C9
:10A140006361FFF7D5FF200010BDC04628930200D1
:10A15000BC970200F8B500250400324B8580083317
:10A1600003608571143016000F0005F033FA2000EB
:10A170002D4BE562636125645030FEF7F7FF200048
:10A180005830FEF7F3FF2000603002F0EDF82000B9
:10A190000423F25E33682667590009B274300DF06B
:10A1A00001FB3368226FE371736801262372102369
:10A1B0006581A7802561D35691685918994204DDBD
:10A1C0003000984001330543F8E711230120D356AE
:10A1D000D1685918994206DD02009A402669013378
:10A1E00032432261F6E71420FEF77AFE226900214D
:10A1F0002A430123060005F041FEFF23220063727B
:10A200000133A381002348326664A37320001370D6
:10A21000A366FEF745FF0123A27920001343A37133
:10A22000F8BDC04628930200BC970200F0B5437AFF
:10A2300085B00400002B04D120000BF0F6FC05B023
:10A24000F0BD0122837A11009C461023066F002581
:10A25000F35603926344994002912900F3680193F5
:10A26000019BAB422CDDB36872696B4363445B00B6
:10A27000E77AD3181A785878E379012F10D15F1E46
:10A280003F1A10003A005B004343606F8218D318F6
:10A290009B79002B02D0039BAB4019430135DFE7CC
:10A2A000022F05D15F1EBA1A277A013F381AEAE752
:10A2B000032FE8D1277A013FBF1A02003800E2E7F6
:10A2C0001123C943F356606C994023691940029BDE
:10A2D00019430EF0D5FD667AB31EDBB2FC2B14D801
:10A2E000FEF78CFE0B4B0500236300230A486363D3
:10A2F0000A4BFF21E4622364704305F0E7FF290065
:10A300004143200014300EF05AFB637A012B00D930
:10A3100095E791E72B5C0200B6030000155C020094
:10A320001FB5012381881A0068460BF029FA012322
:10A3300003491A0068460BF023FA05B000BDC04679
:10A34000FE0300001FB5030048331A780400002AFA
:10A350000DD000221A70012381881A0068460BF084
:10A360000FFA012304491A0068460BF009FA20008D
:10A3700074300DF00EFA1FBDFF03000010B5483019
:10A380000378002B06D00378012B03D0012102486B
:10A390000BF087F810BDC046FF03000010B5012187
:10A3A000040006200BF07DF8064B984208D1483493
:10A3B0002378002B04D02378012B01D020BFF7E7AE
:10A3C00010BDC04616FCFFFF73B5079C0500002CAE
:10A3D0001CDB060048363078002802D0307801288F
:10A3E00016D106981BB2C0B20090280012B2743089
:10A3F0000DF0DFF9002C07D02B004A331C8000241D
:10A4000007234C352C803370200076BD014CFBE7D0
:10A41000014CF9E717FCFFFF12FCFFFFF0B587B016
:10A420000D9C06000F0002920393002C20DBFFF727
:10A43000A5FF330048331D78EDB2002D1AD1390045
:10A4400005A80DF09EF90C9B01940093029A039BC2
:10A4500005A93000FFF7B8FF05A80DF085F9002C1D
:10A4600003D03000FFF79AFF2C00200007B0F0BDAA
:10A47000014CFAE7014CF8E717FCFFFF11FCFFFF66
:10A48000F8B50400171E1DDD060048363378002B92
:10A4900002D03378012B17D12200E3795632013BE9
:10A4A000137023000025200054331D8050300BF022
:10A4B0002BF923004A331F80022328004C342580C7
:10A4C0003370F8BD0148FCE70148FAE717FCFFFFCD
:10A4D00012FCFFFFF7B505000F00161E18DDFFF791
:10A4E0004DFF2B0048331C78E4B2002C12D1390008
:10A4F00001A80BF001F9320001A92800FFF7C0FF05
:10A5000001A80BF0A2F82800FFF748FF2000FEBDCD
:10A510000148FCE70148FAE717FCFFFF11FCFFFFC9
:10A52000FF2902D84172002070470148FCE7C0466D
:10A5300017FCFFFFF0B51F0085B00AAB1B780400C5
:10A54000039300933B000D0016000EF05EFA002806
:10A5500033D0237D082B2DD8236800221900FC312D
:10A560008A62A021C9005A50154905205A50013865
:10A57000C046C046C046C046C046C046C046C046AB
:10A58000C046C046C046C046F1D1236801325A5089
:10A59000A0210432C9005A5005F02CF9039B320067
:10A5A000009329003B0020000EF02FFA237D013399
:10A5B0002375CCE7034805B0F0BD2075FBE7C04626
:10A5C000FC0F00000EFCFFFFF0B51F0085B00AABCA
:10A5D0001B780400039300933B000D0016000EF05F
:10A5E000FCF9002833D0237D082B2DD823680022C6
:10A5F0001900FC318A62A021C9005A501549052072
:10A600005A500138C046C046C046C046C046C04643
:10A61000C046C046C046C046C046C046F1D12368C9
:10A6200001325A50A0210432C9005A5005F0E2F814
:10A63000039B3200009329003B0020000EF0CDF96F
:10A64000237D01332375CCE7034805B0F0BD2075A9
:10A65000FBE7C046FC0F00000EFCFFFFF8B50D1E27
:10A6600030D000260227C468002C28D0AA88A388EE
:10A6700053403B4204D13A4204D1AB883B4219D00B
:10A68000646AF1E7A968A0680CF022FA0028F4D007
:10A690002B88002B02D022889A42F1D16B88002BA4
:10A6A00002D062889A42EBD1A288074B013613434D
:10A6B000A380E5E7A368AA689342E1D1E8E7200018
:10A6C000002E00DC0148F8BD0080FFFF17FCFFFFF3
:10A6D000F0B5060085B00D1E59D00127C468002CC6
:10A6E00022D00221AA8800230A4202D0A3885B0854
:10A6F0003B40226829688A4210D1A068A968002BD3
:10A700000AD00CF0E5F9002808D0A3881AB2002A74
:10A7100006DB204805B0F0BD8842F6D0646ADEE76B
:10A720005B045B0CA380F4E7F0682A88002807D15B
:10A73000F5600123184968460BF022F80020E9E78C
:10A74000010003001C88944206D25C6A1900002CA8
:10A750000DD02300F6E723001C88944207D15F88C0
:10A760006C88A74203D25C6A1900002CF3D18142A5
:10A7700009D10B889A4204D305D148886B88984246
:10A7800001D96962D4E74B6A6B624D62D1E7034835
:10A79000C0E7C04616FCFFFFFD03000017FCFFFFEB
:10A7A000064B10B51A00040008322C3302604360D7
:10A7B0000430FEF7C9F9200010BDC04640930200E6
:10A7C00008B4024B9C46043808BC6047A1A70100AE
:10A7D00008B4024B9C46043808BC60473D60020048
:10A7E0000C4A002311002C32083110B5038183720A
:10A7F0004260C3600361436143830160040004302D
:10A80000FEF794F9044B1A68002A00D11C6020005E
:10A8100010BDC046409302004C270020F7B50E0043
:10A820000125C4680192002C36D0238832889A42D0
:10A8300001D0002B23D1638872889A4201D0002B6B
:10A840001DD1FEF7E7F80123002806D0C022A38817
:10A850001340C03B5A425341DBB2019A934219D193
:10A86000A7883BB2002B15DB10223100A0180EF098
:10A8700055FB40231F4204D020000BF0E8FB646A24
:10A88000D1E7FEF7C7F80028F6D021000348FEF70D
:10A8900071FAF4E70025F2E72800FEBD4F600200E0
:10A8A00008B4024B9C46043808BC6047D7610200DC
:10A8B000F0B587B001930EAB1B88060003930D9B88
:10A8C0000D000093019B02920C9F002B3DD0002FA6
:10A8D00002D1009BDB0738D52820FEF701FB0400DE
:10A8E00010300AF043FF6B461B89258063801820D7
:10A8F000FEF7F6FA0500009B08220593019B002154
:10A9000003600C3004970EF025FB082204A9281DD3
:10A910000EF004FB0E4B02226B6100230399E360EF
:10A920002362636233680A43A560A2805B682100EA
:10A9300030009847002806D020000AF03CFE200096
:10A94000FEF7EEFA034807B0F0BD0348FBE7C04648
:10A950001162020016FCFFFF17FCFFFFF0B50400B8
:10A96000160000258380164A164B857102602181EE
:10A9700046810573186889B08C46A8421DD0124ADA
:10A9800005950492C02202926A4604AB82CB82C231
:10A9900023002A006146FFF78BFFC022094B0A49BA
:10A9A000186802926A46069106AB079582CB82C26E
:10A9B00023002A003100FFF77BFF200009B0F0BD23
:10A9C000849302004C2700203B63020030B5002432
:10A9D00003730123034D8471056081808273437387
:10A9E000846030BD9C93020070B583790400DB075E
:10A9F00002D58068FEF794FAA3799B0702D5A06878
:10AA0000FEF78EFAA3795B0707D5A0230021144A2D
:10AA1000DB00D150A068FEF783FAA3791B0708D5A5
:10AA2000A568002D05D028000CF04BFF2800FEF78C
:10AA300077FAA379DB0605D5A068002802D0036861
:10AA4000DB6898476023A2791A4205D0A0680028E5
:10AA500002D003685B6898470023A360A37170BDB0
:10AA600000700040F7B50227037B04000D003B4255
:10AA700026D0012926D886793E40009614D1FFF7CA
:10AA8000B3FF1820FEF72CFA0E230600E356182217
:10AA9000009901930EF05EFA019930000EF060F813
:10AAA000A379A6603B43A371A3685A68002D04D024
:10AAB0000025DB681A602800FEBD1B691A60FAE7F2
:10AAC000014DF8E7014DF6E716FCFFFF17FCFFFF0D
:10AAD00070B5040000250C4B0E000833858085718D
:10AAE0000360210018300BF0D9FC20002100203039
:10AAF0000BF0F7FC054BA680E5802572E56025612B
:10AB0000656120001C6070BDAC93020054270020DA
:10AB10008379DB0702D5C160002070470048FCE75D
:10AB200016FCFFFF8379DB0701D5C0687047014839
:10AB3000FCE7C04616FCFFFF70B545690400002D18
:10AB400022D0037A032B21D8FFF7ECFFA8622C2038
:10AB5000FEF7C6F92C22002105000EF0FBF90022B9
:10AB600063695A622369934208D1636923610020B3
:10AB7000237A65610133237270BD13005A6A002A7B
:10AB8000FBD162695A62F2E70148F5E70148F3E751
:10AB900017FCFFFF13FCFFFF144B70B55A68144CF1
:10ABA000002A03D000225A600132A2601A69002AEA
:10ABB00017D0002119618023DB000E4DE35828686F
:10ABC000012B0FD1A923DB00E1584942FFF7A0FF79
:10ABD0002868FFF7B1FF2B685A69074BE250012341
:10ABE000A36070BDFFF794FFF9E7C046FC1000407A
:10ABF00000100040542700200405000003000069F5
:10AC0000002809D00221054AD167426A1A611A7ADE
:10AC1000013A1A72024B19607047C04604E100E025
:10AC200000E100E010B5002903DB024B19600DF0D4
:10AC30003CFF10BD5827002070B504001E0004AB77
:10AC40001D7804F00FFD20000E4B40302360FEF70E
:10AC50008DFA230001364C33013522001E701D731E
:10AC60000023E1214E32A3646365138053809381F6
:10AC7000D381013B200063644902FFF7D3FF20002A
:10AC800070BDC046E8910200F7B580277F053D6999
:10AC90007C690822113C6C430600210068460EF0D6
:10ACA0003DF9104B009A9A4219D00093002301936A
:10ACB00079693000133969430BF028FC019A009937
:10ACC00030000BF03BFC210030000BF01FFC7969D9
:10ACD000AB0813396943220030000BF021FC0198C6
:10ACE000FEBDC046FECA0000F0B50D00A9B00D9231
:10ACF00000213022060010A80B930EF02BF928003B
:10AD00000EF068F9431C0C93102B00D9B5E00B9B97
:10AD1000202B00D9B1E0290030000BF03CFC071ECD
:10AD200050D129000C9A10A80EF0F8F80D990B9A42
:10AD300014A80EF0F3F880235B051A695F690C9282
:10AD4000113F7A4330005D690B92FFF79DFF30227F
:10AD5000002104001CA80EF0FDF8290000270C9B20
:10AD60001339594330000BF0D1FB0D9730257D434B
:10AD70000B9B0833ED18A74242DA290030221CA8A9
:10AD80000EF0CCF810A91CA80EF01AF9002827D153
:10AD90003C49300022000E910F940BF0CFFB6A4625
:10ADA000099513AB23CB23C223CB23C223CB23C2CE
:10ADB0003000129B1099119A0BF0CEFB01230D93DA
:10ADC0000137D3E710300B9A0D990EF098F8040074
:10ADD0003800FEF7A5F8002CA3D1200029B0F0BD63
:10ADE0006A4609951FAB23CB23C223CB23C223CBB7
:10ADF00023C230001C991D9A1E9B0BF0ADFBDFE7B0
:10AE0000E5433023ED1725405D430B9B08355D1965
:10AE10000D9B002B1DD10C9B3021981E05F0CCF909
:10AE2000A0422CD017490134300022000E910F941B
:10AE30000BF084FB6A46099513AB23CB23C223CBCB
:10AE400023C223CB23C230001099119A129B0BF01E
:10AE500083FB0B9930000BF059FB80235B0559698C
:10AE60000C230C9A133963434A4302331100300018
:10AE70000B9A0BF055FB0024AFE7034CADE7034CF6
:10AE8000ABE7C046FECA000017FCFFFF13FCFFFF44
:10AE900070B50400A280FA22002308000C49920039
:10AEA00008312160A3716061E260A3606382094997
:10AEB0000BF071FB051E09D00100200010310222A9
:10AEC00012300EF02BF82800FEF72AF8200070BD93
:10AED000C4930200EDA0020030B50225837987B04B
:10AEE00004002B4204D1FDF721FEA3791D43A57177
:10AEF00020000BF09AFB00281CD06B46DD1C2800BC
:10AF00000BF08AFB2B78002B17D001A80BF082FBEB
:10AF10000321019AD3170B409B189B102382FEF745
:10AF2000A7F8E368A18818180123A0601A0002A8F6
:10AF30000AF026FC002007B030BD0122064B1A6043
:10AF4000064A51680029FCD000215160044A126869
:10AF5000019201225A60DBE700C00040FCC00040C3
:10AF600008C50040022802D10122014B1A70704727
:10AF7000462A002070B5064C05002378002B04D12A
:10AF8000044801F0AFFF01232370280070BDC046C4
:10AF9000472A002065AF010070B50C000AF00FFAD7
:10AFA000002810D00023144DA40A2B7020000BF0B1
:10AFB00050FB002803D00A200DF07EFEF6E72B7828
:10AFC000002BFCD070BD02210C4B0D4A9950802102
:10AFD000C90008005D58002DFCD0A121C9005C50BB
:10AFE00019580029FCD0002199508021C9005A58D5
:10AFF000002AFCD0E6E7C046462A002000E00140D7
:10B0000004050000F8B50C0015001E000AF0D7F981
:10B01000002811D00023174F3B7032002900200078
:10B020000BF015FB002803D00A200DF045FEF4E7D5
:10B030003B78002BFCD0F8BD01210F480F4B844614
:10B0400019508021C9005A58002AFCD080270022BC
:10B05000FF00964207DD910068586050D9590029D9
:10B06000FCD00132F5E7002261465A50DA59002A35
:10B07000FCD0E0E7462A00200405000000E0014083
:10B0800010B50400054B083303601C300AF0DDFAEC
:10B09000200018300AF0D9FA200010BDDC9302001D
:10B0A000FF23F0B52C4D8DB02B70002304006946B2
:10B0B0000088009304F0BEF9002802D16B469B780B
:10B0C0002B70264E3368DB68002B07D100232088C5
:10B0D0001A0019000BF0C1FA0DB0F0BD2B78032B4C
:10B0E000F4D81F4901A8FEF707F8336801A9DE6804
:10B0F00004A80AF001FB04A930000BF07FFA002736
:10B10000060004A80AF0A1FABE421ED03100202297
:10B11000103104A80DF002FF3000FDF701FF29787F
:10B1200004ABC9005918082202A80DF0F7FE2088C8
:10B130000123082202A90BF090FA0137002804D15C
:10B140002088084A0C210BF086FA01A80AF07DFA43
:10B15000002FBBD0C0E7C046F021002068270020A8
:10B16000FDA00200FFFF0000F0B5837991B004005C
:10B170005B071BD5FDF77CFF00232269801A9941EC
:10B18000994203D1F423FF3398420FD9A0680028D5
:10B1900008D0364B1D880CF0B1FB036815221B6AE2
:10B1A000290098470422A3799343A371A3799B07AD
:10B1B00059D52F4D2B68DB68002B50D02D4B1B78B9
:10B1C000032B4CD8294B2C491B8804A80193FDF76D
:10B1D00093FF2B6804A9DE6808A80AF08DFA08A975
:10B1E00030000BF00BFA070008A80AF02EFA02ABA9
:10B1F0009E1D08233200338006A9073B01980BF0FF
:10B200002EFA002F08D039002022103108A80DF0A6
:10B2100085FE3800FDF784FE164B32881B7806A9A0
:10B22000DE0008AB9E1930000DF069FE002813D037
:10B23000082206A930000DF071FE2B6804A9DD6814
:10B2400005A80AF059FA202308AA05A928000BF03E
:10B25000DBF905A80AF0F9F904A80AF0F6F90222C8
:10B26000A3799343A37111B0F0BDC046F02900202B
:10B2700068270020F0210020FDA00200F7B5089EFD
:10B280000500152922D8012007008F40244C2742B1
:10B290001CD0E97FCC181F2C41DC69183418A1425E
:10B2A00010D80021C8B2834204D9545C701884704D
:10B2B0000131F7E732789A183270EA7F9B18EB7702
:10B2C00000202CE00878C8540139E8E73478013CC4
:10B2D000E4B2A34208D10023D9B28C42F0D9D05CA9
:10B2E000F11888700133F7E7EF7F0120FF183F1B4B
:10B2F0001F2F14DC0227A01C7F423618381B019038
:10B30000E87F2F18BE4204D23078019FF0550136F5
:10B31000F6E7041B023CEC7728000BF0EAF9FEBDCF
:10B32000FC002000F0B585B001930AAB1E880BAB82
:10B330001B78451C02930EAB1B78040003930B781B
:10B34000170003704B8A10224382013128000DF050
:10B35000E5FD6B469B88268363836B461B7B00263B
:10B3600023776B4601221B7A6761E683EB77A31C88
:10B37000DA770C9B0C256362230020000D9A28339A
:10B380001A705E709E702A0031002C300DF0E2FDC4
:10B390002000074BE663A3632A00310040300DF024
:10B3A000D9FD2000034B2665E36405B0F0BDC0461F
:10B3B000756602006766020070B50D000CF09EFA1B
:10B3C00004000368002D09D15B699847FA208000CA
:10B3D0006843074904F0F0FEE08070BD9B68984721
:10B3E0008542F3D2236820009B6898470500EDE76B
:10B3F00071020000F0B507001600A1B002C70400FA
:10B400006B4918A81D000BF0BBF9331E03D03000A8
:10B410000DF0E0FD83B20122049200220392029219
:10B42000023201920093320018A93800FFF77AFF28
:10B4300023006049583318A807930BF0A1F92B1E7D
:10B4400003D028000DF0C6FD83B201220492002231
:10B45000039202920232019200932A0018A90798DF
:10B46000FFF760FF23005449AC3318A808930BF092
:10B4700087F9269B002B03D018000DF0ABFD83B29B
:10B48000012204920022039202920232019200935E
:10B49000269A18A90898FFF745FF631CFF33474910
:10B4A00018A809930BF06CF9279B002B03D0180008
:10B4B0000DF090FD83B2012204920022601C0392E1
:10B4C0000292023201920093279A18A9FF30FFF7E7
:10B4D00029FF23005533FF33394918A809930BF08E
:10B4E0004FF9289B002B03D018000DF073FD83B299
:10B4F00001220492002203920292023201920093EE
:10B50000289A18A90998FFF70DFF2300A933FF33E4
:10B510002C4918A80A930BF033F9299B002B03D070
:10B5200018000DF057FD83B201220492002218ADDD
:10B5300003920292023201920093299A29000A98FA
:10B54000FFF7F0FE204B1B780B93002B2DD1079BB0
:10B5500012971393089B0DAF1493631CFF3315933D
:10B56000099B1A4916930A9B380017930BF008F9A8
:10B570001D2149203B7810222B707B8A12AE6B82F2
:10B5800006ABC918C0180DF0C9FC06232B756B4615
:10B590009B8D2068AB83AE610CF0B4F90368290081
:10B5A0001B6898470122084B1A70200021B0F0BD9B
:10B5B000292A0000242A0000252A0000272A00004A
:10B5C000262A0000282A0000482A00200A18000025
:10B5D00070B5002504000A4B85800833857103602F
:10B5E000C1601830FDF7C2FD20001C30FDF7BEFD24
:10B5F000044BA5601C60012365612000A37170BD30
:10B60000DC93020068270020FA2130B585B00500E0
:10B6100001230222890068460AF0B2F8074C20682C
:10B62000002809D00BF0E5F82988054B226819801D
:10B63000022391790B43937105B030BD6827002038
:10B64000F029002010B50C0007290DD880680CF0F7
:10B6500055F9064B195703685B6C9847431E984190
:10B66000034B4042184010BD0248FCE7F5A0020021
:10B6700016FCFFFF17FCFFFFF0B5A44C0D00A5441E
:10B68000040007939AAB1B78A14909A8049306927A
:10B69000FDF732FD200029001C300AF035F8C020EB
:10B6A000800001F015FC0820FDF71AFC06000021BF
:10B6B00000F0D0FF15ADA66000210C220EA80DF001
:10B6C00049FC2B000EAA83CA83C3924B2900EB606E
:10B6D000002330002B610CF0FAF8A0680CF00EF992
:10B6E00008220021059016A80DF034FC1420FDF767
:10B6F000F7FB29000200884B1593C8C9C8C2874BC5
:10B70000059EC3600023A43603613368002B00D07C
:10B71000F5E03060A0680CF0F5F808220021060082
:10B7200016A80DF017FC1420FDF7DAFB7C4B1593DF
:10B73000030086CD86C37B4BC36000230361336B5C
:10B74000002B00D0DDE03063A0680CF0D7F80822B1
:10B750000021050016A80DF0FDFB1420FDF7C0FB2D
:10B76000714B15AE1593030086CE86C36F4B98358B
:10B77000C360002303612B68002B00D0C3E0286066
:10B78000012504AB1B7C04AA2B4308A928001374D1
:10B790000AF067FFA0680CF0B9F8036864495B6AB7
:10B7A0009847A0680CF0B2F8036862499B69984713
:10B7B000A0680CF0ABF800230268009316680499A7
:10B7C0002A00B047049B002B0AD020000BF01AF887
:10B7D000032805DDA0680CF099F80368DB6898473A
:10B7E0000EA80AF07DFF2F2004ABC0180AF078FFE6
:10B7F000362004ABC0180AF073FF3D20042504ABCB
:10B80000C0180AF06DFF0EAB0A93A06804AB5D7719
:10B810000CF07CF803680AA91B699847A0680CF033
:10B820006DF803680AA95B6D9847A0680CF066F88C
:10B8300003680021DB6D9847A0680CF05FF803688F
:10B8400002219B6D984700212000FFF7FBFE182086
:10B85000FDF746FBA16800F005FA374B374A1B6835
:10B86000A1680393364B15A81B6800260293354B3D
:10B870000CAF1B680193069B1B685B190093324B4E
:10B8800012681B68FFF7B6FD3020FDF729FB079A09
:10B89000A16800F0A7FAA0680CF030F8036839003E
:10B8A0009B6A9847294BBE80A0680C930CF026F841
:10B8B00003683900DB6A98472900A0680AF06CFF2A
:10B8C000099A09219378A06852190AF078FFA068B4
:10B8D0000CF014F8C8210671A068FFF76DFD04ABE9
:10B8E0001B7FB34204D0A0680CF008F80AF03EFFBA
:10B8F00009A809F0AAFE95239B009D44F0BD0361B1
:10B9000007E703611FE7036139E7C046ACFDFFFFAE
:10B91000F0A102008366020009B6010091660200F0
:10B92000A1B001009F660200CD660200AD66020074
:10B9300051B9010085B9010064270020602700206B
:10B94000082000205C2700200C20002008001000A8
:10B9500013B506226846FDF7DFFB094B1C68002C77
:10B960000AD0694601A809F0C7FE200001A90AF023
:10B970006AFF01A809F069FE684609F066FE13BD7A
:10B9800068270020002373B501AE0C0031000500CC
:10B99000019303F04FFD002802D1B278064B1A70D4
:10B9A000064B1868002806D061426141044BC9B2B9
:10B9B0001D800AF050FF73BDF02100206827002091
:10B9C000F0290020F0B5040097B0039107A89C4926
:10B9D0000592FDF791FB9B4908A8FDF78DFB22001E
:10B9E0000FAD28001C3207A909F09DFE08AA290006
:10B9F00009A809F098FE280009F027FE92490AA834
:10BA0000FDF77AFBA0680BF079FF03680DAE5B6968
:10BA1000984728000AF064FE332004ABC0180AF0EF
:10BA20005FFE3A2004ABC0180AF05AFE412004AB76
:10BA3000C0180AF055FE8023DB00B380A0680D9586
:10BA40000BF05CFF036831005B6D9847A0680BF05A
:10BA500055FF036800219B6D9847A0680BF04EFFCF
:10BA60000700002506000A371F22002138000DF0CC
:10BA700071FAFD7730000AF070FE0621A0680AF026
:10BA80008BFE099A09219378A06804320AF097FE88
:10BA9000A0680BF033FFC8210571A068FFF78CFC8C
:10BAA000A0680BF02BFFFF272E000581A0680BF08C
:10BAB00025FF0AF05BFE0398FEF744FC0AA90CA8D8
:10BAC00009F01AFE78220CA90398FEF703FD0CA8D2
:10BAD00009F0BBFD039920000AF0D0FE2000FDF71D
:10BAE00025F80495012563691D402DD057490BA801
:10BAF00000F0ACFC0BA90CA80BF043FE00220CA933
:10BB00001300019200920398FEF788FC0CA80BF03A
:10BB10002BFE049B002B42D1043F282F41DD002542
:10BB2000FE2F00DC049D059809F0CBFF002806D00D
:10BB3000012362699A4313000422134363610026C0
:10BB40000BA80BF011FE049504226369134233D055
:10BB5000FF210398C826FEF7E3FC0025B600A36981
:10BB600002229B5EAB4222DD200029B2183009F090
:10BB7000F0FD0023010003981A00743000F0B6FCB9
:10BB80003000FDF76BF803980AF0B8F9C820FDF70C
:10BB900065F802226369134209D10135DFE70437F2
:10BBA000BBE703980AF0AAF9002FBCDDBAE7FA2038
:10BBB0008000FDF753F80026022365691D421CD062
:10BBC00006331D4024D022490BA800F03FFC0BA9EE
:10BBD0000CA80BF0D6FD00220CA9019200921300D4
:10BBE0000398FEF71BFC0CA80BF0BEFD1948FDF7EF
:10BBF00035F80BA80BF0B8FD174E6420FDF72EF8B2
:10BC0000164B01369E4200DC6CE709F0EAFB69E75F
:10BC100013490BA800F01AFC0BA90CA80BF0B1FDFE
:10BC20002B002A000CA9019500950398FEF7F6FB5E
:10BC30000CA80BF099FD0BA80BF096FDDDE7C046B4
:10BC400009A1020019A102001BA1020029A1020002
:10BC50006EA10200983A00008C0A00008B0A0000D6
:10BC6000ABA102000022594BF0B508330600036077
:10BC70000F001000A9B0B1600BAB991801324870E9
:10BC8000102AFAD10F3A524C1A700E32105D991ADE
:10BC90000874013AFAD2997B5A7B09020A433100AF
:10BCA0000C31039125211B7813AD2B7002ABC91801
:10BCB000452302A81B186A82180010220DF02EF9E5
:10BCC000039B64216B610123002402AA2B77521885
:10BCD0001993093313701DAB1C706D2302AA9B18B6
:10BCE0001C706E2321009B181EA80C22EC836C6232
:10BCF0001C700DF02FF9374B0C22210023A8AB63E9
:10BD0000EC630DF027F9344B02AAEB6446239B1831
:10BD10000322DA7722002C650595347306AD2B19C2
:10BD200001345A70102CFAD101232C482B700E3399
:10BD3000195CEA1A1174013BFAD211212520AA7B61
:10BD40006B7B12020BAC13432A78638202ABC918D7
:10BD50002270C01810220DF0E1F80123237505AB05
:10BD6000A36100233800A3830BF0CCFD03682100FE
:10BD70001B68984713ABDB8BB068B3820BF0C2FD36
:10BD8000002203680092B18A039ADC680123A0476D
:10BD9000B0680BF0B7FD07001420FDF7A1F80022F2
:10BDA000012304000261069240C008322900079373
:10BDB0000DF0B4F80A4BE360BB69002B03D13000EF
:10BDC000BC6129B0F0BD2361F9E7C046F4930200DD
:10BDD0001AA2020075660200676602002AA202002B
:10BDE000DD680200F0B500260400734BDDB00833B7
:10BDF00003608160C2608680867132006F4947A807
:10BE00000AF00CFE230014330125042708931223A3
:10BE1000009704950193089A330047A90396029668
:10BE20001DA8FFF77FFA3200654947A80AF0F6FD22
:10BE3000082022000097330015AF103204950190BE
:10BE400047A90396029632A8FFF76CFA32005D49C3
:10BE500038000AF0E3FD2300082004221C33099374
:10BE6000390033000495019000920396099A0296D6
:10BE700047A8FFF757FA3200534938000AF0CEFDC1
:10BE80005420FDF72DF80500200001231221042283
:10BE9000183007900493019100923900020033009A
:10BEA000280003960296FFF73DFA2800474BA5624B
:10BEB0000822EC620AA930300A930B960DF02EF896
:10BEC000434B0422AB63012329352B70099926616A
:10BED000E66107980DF022F80422079908980DF002
:10BEE0001DF86621032304AA8918CB77BA2104AA76
:10BEF0008918CB77872104AA49008918A26ACB77D1
:10BF0000911CA685CB771DAB0C9332AB0D930F9292
:10BF100047AB32002F4910A80E930AF07FFD302165
:10BF2000452004AB5B181B7812313B7004AB5B18E7
:10BF30001B8811397B8204ABC918C01810220CF081
:10BF4000EDFF04220CADA0683A75BD61BE830BF015
:10BF5000D9FC036839001B689847822204AB9B1800
:10BF60001B885432238404AB9B181B885432A3844F
:10BF700004AB9B181B88A06863840BF0C3FC07000C
:10BF80001420FCF7ADFF0500134B06610822109347
:10BF9000119610A910C00CF0C1FF104BEB60BB69EB
:10BFA000B34206D1BD612000FCF7C0FD20005DB0AA
:10BFB000F0BD2B61F6E7C046009402005AA20200D1
:10BFC0003AA202004AA202006AA20200EF6902003D
:10BFD0005B6902007AA2020049C001008569020083
:10BFE000F0B504000E00150085B01F000CAB1B88D7
:10BFF0001030019309F0BAFB268065801820FCF709
:10C000006FFF02AE050033000AAA03CA03C32F6004
:10C010002800082700213A000C300CF09BFF3A0062
:10C020003100281D0CF07AFF064B02226B612000C4
:10C0300000230199A5600A43E360A2802362636242
:10C0400005B0F0BDAF690200F0B50B898DB0059366
:10C05000CB68060004934B88828C9A420ED1049CD4
:10C06000049B059A9B181B1B032B3BDD62882188D0
:10C07000012308A809F084FB0434F1E7428C9A42BA
:10C0800030D1049C049B059A9B181B1B032B29DDB4
:10C090002388282006936388F7680793124B089338
:10C0A00000230993FCF71CFFC0236A460500029396
:10C0B00008AB03CB03C233000699079A2800FFF7A9
:10C0C0008FFF3B6829005B6838009847002807D03D
:10C0D000002D05D0280009F06EFA2800FCF720FF9B
:10C0E0000434CFE70DB0F0BD6D6A020070B50400F6
:10C0F00090B080680AF0B5FC022101401AD1A38DEE
:10C10000002B17D00C4B6A4604931023E568A185D9
:10C110000591029304AB41CB41C20A00230006A85B
:10C12000FFF75EFF2B6806A99B682800984706A8C2
:10C1300009F041FA10B070BD6D6A0200002815D0F8
:10C14000006041608260C360046145618661C761CF
:10C15000444604624C464462544684625C46C4626F
:10C16000644604636E46466374468463002A06D0C0
:10C17000C46B043C043A25681560B442F9D18C6B59
:10C18000A6464E6BB546002B06D0CC6B043C043B58
:10C190001D682560B442F9D10C6BA446CC6AA34655
:10C1A0008C6AA2464C6AA1460C6AA046CF698E6989
:10C1B0004D690C69CB688A680868496870470060F7
:10C1C00041608260C360046145618661C761444625
:10C1D00004624C464462544684625C46C4626446CF
:10C1E00004636E46466374468463C46B043C04393E
:10C1F00025680D60B442F9D1C7698669456904694B
:10C200007047006041608260C3600461456186617F
:10C21000C761444604624C464462544684625C46AC
:10C22000C462644604636C46446374468463046970
:10C230007047846BA646446BA546046BA446C46A4B
:10C24000A346846AA246446AA146046AA046C76916
:10C25000866945690469C3688268006841687047F7
:10C2600010B5041E0CD00CF0B5FE431EE3189C4222
:10C2700008D222781978013B21705A700134F6E710
:10C28000014810BD0020FCE717FCFFFFF0B585B0AA
:10C2900002900C1E2AD00023C217161A5640019392
:10C2A000019B30005D1C63190A215F1E039304F09B
:10C2B000F3F849423031397030000A2104F006F8B1
:10C2C00047420600002F0FD1029B002B04DA2D23DA
:10C2D000019D039A02351370002320006355FFF778
:10C2E000BFFF380005B0F0BD0195D9E7004FF8E772
:10C2F00017FCFFFF10B582604A4304004160002A2A
:10C300000ADD074B90009A4201DD01204042FCF714
:10C31000E7FD2060200010BD00230360FAE7C0465F
:10C32000FEFFFF1F4A688B6870B5836053430400AB
:10C330000D004260002B12DD0A4A9E00300093423D
:10C3400001DD01204042FCF7CBFD002320602A687C
:10C35000D158C15004339E42FAD1200070BD002351
:10C360000360FAE7FEFFFF1F014B03607047C04602
:10C370001894020030B500684488A1420CDA858820
:10C38000AA4209DA002907DB002A05DB54434018DA
:10C3900000198371002030BD0048FCE717FCFFFF47
:10C3A000F0B5070085B00E001D0000291FDD002B31
:10C3B0001DD00468638803938B4200DD0391A3883A
:10C3C0000293934200DD0292002306340193019B05
:10C3D000029A93420EDA29002000039A0CF09EFD87
:10C3E0003B68AD195B88E418019B0133EEE7024816
:10C3F00005B0F0BD0020FBE717FCFFFFF8B5040017
:10C400000D0016001F00002901DB002A02DA0E4B86
:10C410002360F8BD100048430630FCF761FD206042
:10C4200009F0FCF923685D8023689E80002F06D008
:10C430003B00320029002000FFF7B2FFE9E72000AF
:10C440000BF0A7F9E5E7C04618940200F0B5060026
:10C4500087B00D1E04D1244B0360300007B0F0BD3F
:10C4600000200F000400010001903B78002B1AD03F
:10C470003022524294469C446246092A11D90A2B22
:10C480000AD1019B241801330193A14200DA210053
:10C49000002004000137E8E70028FBD00134002029
:10C4A000F8E70120F6E76A46928809B212B2300036
:10C4B000FFF7A4FF33689C1D03AB1F002A78002AF6
:10C4C000CBD011003039092903D81A700133013556
:10C4D000F4E700221A70BB42F9D938000CF0FEFCD8
:10C4E0003B0020700134F2E718940200F0B504001C
:10C4F00089B006A80E0002921D00FCF77BFC2368A1
:10C5000002995A88914235DA9B889D4232DA1F2E71
:10C5100030D9079B01939E422CDC052300227343F4
:10C520000393069B0493039B04999B18A03BCB5C4D
:10C5300000210593AE18029BCF18236858880190FC
:10C5400087420EDA9888B0420BDDDB1910270F41C5
:10C55000019870431B1805980740781E87417F4259
:10C560009F7101310529E6D10132052ADBD1002076
:10C5700009B0F0BD0048FBE717FCFFFFF7B5046802
:10C58000070063880E1E01931EDD994218DA00230E
:10C59000063400933B68009A9B889A4212DA019B0A
:10C5A000A1199D1B2A0020000CF0B8FC6019310075
:10C5B0000BF0E1F83B685B88E418009B0133E8E787
:10C5C0000BF0E7F8002000E00048FEBD17FCFFFF7D
:10C5D00010B50548054C206009F023F9044A0549C7
:10C5E00020000CF057FC10BD189402006C270020AE
:10C5F000002000206977020070B5002817D1114D86
:10C600002E68002E11D108300CF04FFC06604660F9
:10C610000D4E04003368002B02D10BF0AAFB3060F2
:10C6200023682C609B00F3586360286870BD01226A
:10C63000064907480B681340F8D1026043600A605E
:10C64000F4E7C046742700208027002070270020D0
:10C6500078270020002370B50400016043609942F0
:10C660000AD1064D2B68002B02D10BF082FB28600B
:10C6700023689B00EB586360200070BD802700207A
:10C68000436810B50400002B02D104480CF01BFBDA
:10C69000606803681B69984710BDC0468AA2020003
:10C6A000436810B50400002B02D104480CF00BFBCA
:10C6B000606803689B69984710BDC0468AA2020063
:10C6C000436810B50400002B02D104480CF0FBFABB
:10C6D000606803685B6A984710BDC0468AA2020082
:10C6E00000487047FFFF0000F0B597B0059303685E
:10C6F00007AD1B680491039311002B00060091C93C
:10C7000091C30024D36821000C220CA8EB602C619B
:10C710000CF020FC22000B4B10940F9311AB1C70FB
:10C72000191901344A70102CFAD15A820193059BD1
:10C730002A00009304990CAB3000039CA04717B06B
:10C74000F0BDC0462B7A020070B5FC30046C0500C9
:10C75000002C0DD124200CF0A8FB064B4460836113
:10C76000054B8460C46004614461C4610360286453
:10C77000286C70BDF4940200DC95020070B5FC30AA
:10C78000C56B0400002D11D134200CF08EFB084B3A
:10C7900085604360074B45610361074B0562C361D8
:10C7A000064BC5628362064BE0630360E06B70BDBD
:10C7B00024950200149502008495020094950200CD
:10C7C000A49502007FB503791548002B22D0154EA1
:10C7D000154C33782000002B1CD102AD28000BF043
:10C7E00001F9002810D16B88592B0DD12B78AA881C
:10C7F000D91F012910D800920C4A2021200008F0EE
:10C8000091F80123337004E02022094920000CF044
:10C81000E8FB200004B070BD0092064AEDE7C04678
:10C82000ADA20200692A0020492A0020CFA20200FE
:10C83000C7A20200ECA2020010B50400024B08C01F
:10C840000BF0B0F9200010BD1495020010B50400E3
:10C85000024B08C00BF0BBF9200010BD249502006C
:10C86000064B70B5040003604068002804D00569D9
:10C870000CF017FB2800F8E7200070BD04950200BB
:10C88000064B70B5040003604068002804D00569B9
:10C890000CF007FB2800F8E7200070BD349502007B
:10C8A000064B70B5040003604068002804D0056999
:10C8B0000CF0F7FA2800F8E7200070BD449502005C
:10C8C000064B70B5040003604068002804D0056979
:10C8D0000CF0E7FA2800F8E7200070BD849502000C
:10C8E000064B70B5040003604068002804D0056959
:10C8F0000CF0D7FA2800F8E7200070BD94950200EC
:10C90000064B70B5040003604068002804D0056938
:10C910000CF0C7FA2800F8E7200070BD2894020048
:10C92000064B70B5040003604068002804D0056918
:10C930000CF0B7FA2800F8E7200070BD3894020028
:10C94000064B70B5040003604068002804D00569F8
:10C950000CF0A7FA2800F8E7200070BD4894020008
:10C96000064B70B5040003604068002804D00569D8
:10C970000CF097FA2800F8E7200070BD58940200E8
:10C98000064B70B5040003604068002804D00569B8
:10C990000CF087FA2800F8E7200070BDF49402003C
:10C9A00070B5FC30046C0500002C0DD124200CF077
:10C9B0007CFA064B44608361054B8460C46004616B
:10C9C0004461C46103602864286C70BDF494020063
:10C9D000DC950200104B10B5083303600F4B0400C8
:10C9E000C36080230E4A5B00C250C018FDF780FB75
:10C9F00020000C4BB830E360FFF7B2FF2000AC30F2
:10CA0000FFF79EFF2000A030FFF78AFF20006C3068
:10CA1000FFF776FF200010BD089602008096020006
:10CA2000BC97020068940200F8B505000400AC351C
:10CA30006B68AB60A868002807D0C36821009847DE
:10CA4000AB68002BF4D01B69F3E72500B0352868EC
:10CA5000002804D006690CF024FA3000F8E7220020
:10CA6000FC212860583213780B40137023005C338C
:10CA7000187020000A300BF073F9200034300BF0EE
:10CA80006FF9606E002804D005690CF00AFA2800DE
:10CA9000F8E72500983560662868002804D0066904
:10CAA0000CF0FFF93000F8E72600A436286035685E
:10CAB000002D05D02F6928000CF0F3F93D00F7E7B1
:10CAC0002000356029000C226C300CF043FA200065
:10CAD000074BE567A36729000C2280300CF03AFA77
:10CAE0002300044A8C33903428001A602560F8BD76
:10CAF0000F7A0200017A0200444AF0B50600C260D3
:10CB0000A022434B16360833036001000023428203
:10CB10000400320085B00371836003748382353171
:10CB2000137001329142FBD1802580222000AD009C
:10CB3000D201F3773584110000933830002300F0E0
:10CB400039FF23002100403303931A002B000025F6
:10CB50005F31157001328A42FBD1039AFC21D577EF
:10CB6000220060321380137920000B4013712300E0
:10CB700068331D70274B2567E3660C22002178304F
:10CB80000CF0E8F92300270088331D60224B08379A
:10CB9000FB67843700210C2238000CF0DBF91F4BB7
:10CBA0001F4AFB602300A0333D611A601D4A5D608F
:10CBB000DA601D4A1D619A61DD6130000BF0D0F82A
:10CBC00003980BF0CDF8194B601CE3602300C433CD
:10CBD0001D705D709D70FF3002F0FCFC8C235B00CB
:10CBE000E55023001933FF335D618023104A5B0059
:10CBF000E250230001222000FE3352425A86023BBB
:10CC00009D63DD631D6405B0F0BDC04668940200FD
:10CC100008960200289402000F7A0200017A0200AE
:10CC20003894020048940200589402008096020052
:10CC3000BC97020070B5074C2368002B07D1A020D9
:10CC400040000CF032F90500FFF756FF2560206820
:10CC500070BDC0468427002070B50C220D00002155
:10CC600004000CF077F900232361024B25602000BB
:10CC7000E36070BD1D7A020070B500250400254BED
:10CC800085800360244BC5608360244B85614361CC
:10CC9000234B45620362234B0563C362224BC5638A
:10CCA000836329004430FFF7D7FF20002900583064
:10CCB000FFF7D2FF200029006C30FFF7CDFF1B4BA0
:10CCC0002200236023008032F83320C29342FCD13B
:10CCD00026001D00E936FF3628000822002108350D
:10CCE0000CF038F9AE42F7D18E2300229B00E118F8
:10CCF00004C6B142FCD18E2300219B00E2540C4BB0
:10CD00000C4AE318A218198002339A42FBD1200082
:10CD100070BDC046549502000495020014950200AF
:10CD200024950200349502004495020050960200BA
:10CD30003A0200006202000010B5040001F01CFA83
:10CD4000034B1B68002B01D02000984710BDC04644
:10CD50008C270020F0B58BB0050002F0ABF9002065
:10CD6000FFF768FF036807001B6998473B680400EA
:10CD70009B69380098473B6806005B6A3800984713
:10CD80000300288810380B2862D803F00BFA063EFF
:10CD90006161615B616161676179AF882000390021
:10CDA0000BF0C8FC22006B7B583201931378A879F2
:10CDB0009C46022361460B43137004AB1F80012382
:10CDC00004AA9370D07013006A461279E91D9A7212
:10CDD0002B000622163305A809930CF09FF82900B2
:10CDE0000B2004AB06220E31C0180CF097F89434D7
:10CDF0006368A360A06800282AD0C36804A9984784
:10CE0000A368002BF4D01B69F3E720002F49AF88FB
:10CE10000BF090FC2200022058321378A97983434A
:10CE2000137004AB1F809970A0346368A360A0687E
:10CE300000280DD0C36804A99847A368002BF4D03C
:10CE40001B69F3E75B69A888A91D002B00D09847F0
:10CE5000290030000BF0EFF80BB0F0BD636E002B33
:10CE6000F6D0AF79A366A06E0028F1D0C368390070
:10CE70009847A36E002B01D1636EF3E71B69F1E7BE
:10CE8000012269460D27AB7BEF571A4001925A07E2
:10CE9000920FDB080A720B730622E91D04A80CF03E
:10CEA0003DF86A46127904ABDA716A46127A9F71CC
:10CEB0001A726A46127B20005A722B000F330793B6
:10CEC0008C348030236804A99847C1E7FFFF000035
:10CED0000723D72802D9024B186000231800704797
:10CEE00088270020014B18607047C0468C2700201F
:10CEF0001FB58022A323D205DB00D3580820DB070F
:10CF000000D405301C4B48221C4901F03FFC00288E
:10CF10000AD080B2002807D1BFF34F8F184B194AAF
:10CF2000DA60BFF34F8FFEE7002302A802930133BC
:10CF30000370154B1B6843600AF0A1FF002802D064
:10CF4000072005B000BD68460AF097FF0028F7D11A
:10CF500069460AF090FF0028F2D10C4801F046FC27
:10CF600080B20028EDD10A4801F04AFC80B20028C6
:10CF7000E7D100F085FBE4E7837E020090270020E4
:10CF800000ED00E00400FA058827002055CD0100DF
:10CF900039CD010080B2002807D1BFF34F8F034B7A
:10CFA000034ADA60BFF34F8FFEE7704700ED00E001
:10CFB0000400FA0513B504680093A46813000A007E
:10CFC0000149A04716BDC046FFFF000037B506ACBB
:10CFD0002578046801950093246913000A0001492B
:10CFE000A0473EBDFFFF0000F0B587B00D00002454
:10CFF00069466F4616004C800DAA0CA90988127864
:10D0000039800193A2421BD101004479F831944246
:10D010000DD908310F00083F3F88B7421BD130219E
:10D020002032920012580132D27F0A4215D16A464C
:10D03000310028000AF02DFF002808D1062407E05F
:10D040006A46310028000AF024FF002800D003249B
:10D05000200007B0F0BD0132D9E710210A4051424B
:10D060004A41002002ACE3600CABA360174B0132D5
:10D070002680A270A0809D4207D1FFF7DBFD0368E8
:10D080001B6998470BF059FB0500210028000AF0A6
:10D0900004FF002482B2A242DAD0112A13D00BD8A6
:10D0A000082ACBD06A46310028000AF0F2FE052497
:10D0B0000028CDD0023CCBE7054B9A4203D0054B6C
:10D0C0009A42EFD1BAE70524C2E7C046FFFF00004D
:10D0D0000330000001340000F0B5050099B00800ED
:10D0E0002E240C9100F00EF906ABE41812902200E9
:10D0F00012A901200AF0CBFE002802D0032019B0AB
:10D10000F0BD23880C9A0B9093830C9B0B9A1B7D8C
:10D11000934200D8C6E06B791D2B01D90720EEE7BA
:10D120000C9B9B690D930B9B0D9A9B009C5863690C
:10D13000002B07D1638B002B04D1631CDB7F022BF8
:10D1400000D1AAE0200000F0DDF8230000262833FB
:10D1500012900E960D960F930F9B1B78B34221D918
:10D16000626AB3009F58342206AB9B1800221A70E3
:10D170000023002113AAD21801335170102BF8D1CB
:10D18000462206AB9B184A4A13A938001A800AF0B7
:10D1900003FF002803D07B690D937B8B0E93013630
:10D1A000F6B2D9E76979A31C1F31C9006918621C5E
:10D1B000DB7FD27F089121002A3109780020079176
:10D1C00021002931097806910E9905910D99049154
:10D1D000217F0391218B0291618B01916169009103
:10D1E00012A90BF05BF8002800D087E76B790700E5
:10D1F0001A00203292001F335451DB005B5BE38343
:10D200006B7901336B71230028331B78BB4244D9FF
:10D210008E239B00EB5C132B00D97FE7626ABB0077
:10D220009E580023180013A90B70CA1801335070C0
:10D23000102BFAD11E4B30004B820AF0ADFE0D9040
:10D24000002827D1300000F05DF88E2189006A5C4B
:10D25000738B1E32FF325200AA180292327F129054
:10D260000192328B12A9009272690D9800F09AF81F
:10D27000002800D042E78E2189006A5C531CDBB293
:10D280006B541D337A32FF3392005B005651EB181A
:10D290005B88F3830137FFB2B5E70B980130C3B267
:10D2A0000B9332E72B79002001332B7127E7C0461F
:10D2B0000129000070B505000AF080FD0400062079
:10D2C000002C1CD128007822210080300BF042FE77
:10D2D0002800E93050222100FF300BF03BFE2800EF
:10D2E00008222100F8300BF035FE054B2822E81803
:10D2F00021000BF02FFE8E2320009B00EC5470BD0C
:10D300003A020000F0B5438A85B001930378050026
:10D310000126002B35D0214A0024110083190093E7
:10D320001F4B1F68A74210D00023981E012804D964
:10D330000098D65CC05C86422CD10133102BF4D10E
:10D3400011235C4309190E7C1BE000980AF08FFF43
:10D350002B7807000600002B01D112350095042C14
:10D360000FD0112565430D4B10225D19009928003F
:10D370000BF0D4FD0023AB70EB70094B01342F741C
:10D380001C6003AB9E705888019B00040343180087
:10D3900005B0F0BD01341132C4E7C0466A2A00204E
:10D3A000D8270020F0B589B000930EAB1B8805008C
:10D3B0000F001600019303220FAB002102A81C7876
:10D3C0000BF0C8FD01230E201C40DB181C4302ABF0
:10D3D0009C700E4B02AA138002AB06220021C018DB
:10D3E0000BF0B8FD03AC02AB63606B461B88109A70
:10D3F00023816B469B88210028000397A381266127
:10D400000AF031FF80B209B0F0BDC0461111000032
:10D4100070B500200D00FFF70DFC03685B6A9847AC
:10D420002B780400142B1ED003D8132B0CD0002013
:10D4300070BD152B1FD0222BF9D16B68188823697A
:10D44000002BF4D09847F2E76B68012518889B7889
:10D45000646819005A08DB0629402A405B0F002C3B
:10D46000E5D0A047E3E76B6818889978A368002B9C
:10D47000DDD09847DBE76868827813091207120F3E
:10D48000012A03D0022A0BD0002106E0013BDBB2C7
:10D490000021022B01D8064AD15C0088E368E6E748
:10D4A0000421012BF9D00131022BF6D0ECE7C04664
:10D4B00011A30200014B18787047C046AE2A002025
:10D4C000F0B51D000023304F87B000923A78060077
:10D4D0000C009A4204D100F083FE002803D00B23F5
:10D4E000180007B0F0BD002D0ED003A9222003952F
:10D4F0000AF080FF002807D006230828F0D0113852
:10D50000434243410433EBE7002302AA10001370A7
:10D5100001F08AFB0028E2D101251C4902220B7888
:10D520002E40AB433343072693430193009B2C408B
:10D5300033409340AC409C46019B02AA1C431C23F1
:10D540009C4363461C430E239B181880104B0C70A1
:10D550000393022303AC2371093002AB0522C018E8
:10D560000BF0DCFC21000B4801F0C8FB002807D0C1
:10D5700033000428B4D0013B0828B1D00533AFE70D
:10D580003D700300ACE7C046AE2A0020F121002028
:10D5900011D40100AF2A002010B5074801F086FC25
:10D5A0000023984206D00733042803D0013B082803
:10D5B00000D00533180010BDAF2A0020002373B53A
:10D5C00001930F4B01AD1B780E0029002B7001F069
:10D5D00031FF041E05D00423052800D007331800AE
:10D5E00076BD3100280001F0C3FB23000028F6D0EF
:10D5F00007230428F3D0013B0828F0D00533EEE7D9
:10D60000AF2A002073B5114C0E0005000522210041
:10D6100068460BF083FC012E03D0022E10D00223AB
:10D620000CE002222378B343934369462800237019
:10D630000AF0DEFE0023984200D00B33180076BDBE
:10D64000012322781343B343EFE7C046F1210020C2
:10D65000094B10B51A7801000923002A09D00748A0
:10D6600001F0BEFB0023984203D003330E2800D004
:10D670000333180010BDC046AE2A0020AF2A002098
:10D680001FB5002302ACA380104B01A80293C8234E
:10D690005B00E380803BFF3B037005220C490AF0EE
:10D6A000C3FE80B200280FD1802080000AF0B8FEAF
:10D6B00080B2002808D120000AF0B4FE80B2002811
:10D6C00002D10AF0ABFE80B204B010BD2800900178
:10D6D00014A30200024B0B60092313607047C0467D
:10D6E0001AA3020010B504000020FFF7A3FA036894
:10D6F0001B6998470300F3331C7086235B00C050FE
:10D7000003000021044AFC335A61044A99615A62B9
:10D71000F4300BF054F910BDF185020003860200CD
:10D72000012110B5044A080001F0B8FE0023984218
:10D7300000D00B33180010BDE5D60100F0B593B052
:10D74000019000200C00FFF775FA03685B6A9847A8
:10D75000FFF7B0FE06AB00280ED000221A7105AA12
:10D760000692082218001A730AAA9A60FFF770FF3F
:10D77000002803D013B0F0BD187118730027277369
:10D780002771019BBA331B78BB4242D907237B43E5
:10D790001A000199BB32CB18BB331B788A1802924E
:10D7A000022B2ED1002506AE337BAB4223D9AB0032
:10D7B0000393089BAA00995802980AF01DFE0028BE
:10D7C0001CD0B3689C46AB001900237B61440293D4
:10D7D0009A000868A368D050029B01332373337BFF
:10D7E0005A1E954205D00C481B1860469B001B58DA
:10D7F0000B6006AB1A730137FFB2C2E70135EDB219
:10D80000D1E72379216802989A000133505023719F
:10D81000F1E70020AEE7C046FFFFFF3FF0B50A7812
:10D8200004009BB00D000220012A08D04B88032A77
:10D8300007D1A03B21499BB210008B4207D91BB0F6
:10D84000F0BD203B1E4A9BB203209342F7D81D4BEC
:10D85000AA8803209A42F2D80AAB009312AB029333
:10D860006A460023260013711373B8363378002BF1
:10D870001DD104AF1822002138000BF06BFB2B7870
:10D8800038003B7033783B726B46FB606B883B82A1
:10D89000AB887B820AF0D0FD02000320002ACED1A3
:10D8A00001235834217810000B432370C7E76946E1
:10D8B0002000FFF743FF0028DBD0C0E7603F0000F7
:10D8C000E03F0000FF3F0000F0B59DB01E006B463A
:10D8D00004001A70581C0622229D0BF01FFB002E1C
:10D8E0002ED0328802AB1A8072885A80B2889A8011
:10D8F000F288DA800CAB04AE049314ABB36027005B
:10D900000023B937337133733B78002B1ED10122CA
:10D910003B78022708A9134058000B784E60BB43A0
:10D920000343002D1AD12000323000789343104079
:10D9300003430B70A38D0B81E38D4B81238E17E086
:10D940001A4B029396239B040393D3E731002000E4
:10D95000FFF7F4FE0028DAD01DB0F0BDA87993439C
:10D96000104003430B702B880B816B884B81AB8875
:10D9700002AA68468B810AF075FD030000208342ED
:10D98000EAD00630082BE7D006D80130042BE3D0CC
:10D99000834209D10420DFE70520112BDCD0044AA3
:10D9A0009342F7D0102BF5D00B20D5E7320064005E
:10D9B00002320000F7B5FA26B6007143009308ABB7
:10D9C0001B780400080014491700019302F0F4FBCF
:10D9D00085B23000258078430F4902F0EDFB6B469D
:10D9E0001B8880B2A3806B461B796080A371032DD6
:10D9F00001D80423238080232288DB019A4200D9A6
:10DA00002380032801D80422628062889A4200D9C8
:10DA100063802000FEBDC04671020000064B10B5B9
:10DA2000586980235B05421C04D0196989B202F051
:10DA3000C3FB10BD5869FCE700100010034B10B584
:10DA40001B78034A9B009B58984710BDB12A0020C1
:10DA5000049702000B0037B50C24020018009D68E3
:10DA600009786C43044D08302D680095034D1B69FF
:10DA70006459A04737BDC046DC270020E0270020BE
:10DA800080225205116914220E4B10B5187889B204
:10DA900042439B181A69501EDA881B898018C018E7
:10DAA00002F08AFB084B1A680123824207D3002345
:10DAB000824204D1054B1B6858424341DBB2180037
:10DAC00010BDC046EC270020182800203028002078
:10DAD000082310B5034A116899431160FFF7AEFFA0
