:020000021000EC
:1080000000400020E90602002507020027070200C1
:108010000000000000000000000000000000000060
:10802000000000000000000000000000290702001E
:1080300000000000000000002B0702002D070200D6
:108040002F07020045AF0100ED0202002F070200DA
:108050002F07020000000000E90402002F070200C1
:108060002F07020055FE0100590402002F070200ED
:108070002F0702002F0702002F0702002F07020020
:108080002F0702002F0702002F0702002F07020010
:108090002F07020019FA0100B1ED01002F070200BD
:1080A0002F0702002F070200000000000000000060
:1080B00000000000000000000000000000000000C0
:1080C00010B5064C2378002B07D1054B002B02D0AE
:1080D000044800E000BF0123237010BD20220020CF
:1080E0000000000084AB0200044B10B5002B03D04D
:1080F0000349044800E000BF10BDC0460000000076
:108100002422002084AB0200164B002B00D1144B1C
:108110009D46402292029A1A924600218B460F46B3
:108120001348144A121A11F097FA0F4B002B00D083
:1081300098470E4B002B00D09847002000210400E8
:108140000D000D48002802D00C4800E000BF0CF0E4
:10815000FDFD2000290010F0F5FF0CF0E1FDC04608
:1081600000000800004000200000000000000000A7
:1081700018220020702B00200000000000000000EA
:1081800010B50400034B036040300DF097FD200054
:1081900010BDC046F098020073B5C8256D001E4C96
:1081A000A368A2699A4231D01B782E2B1ED11B4E98
:1081B0000121300002F02CFE322000F095FE00215B
:1081C000300002F025FE164901A801F0DBF82A0074
:1081D00001A9144802F0C4FA01A80DF06FFD2000B7
:1081E0000DF052FB322000F07FFED8E72D2BF9D1A5
:1081F0000A4E0121300002F00BFE962000F074FEC2
:108200000021300002F004FE0749DDE7FA204000BB
:1082100000F06AFE012076BD9C2200203C22002056
:1082200008A50200102400200AA50200F7B5026A82
:108230008369013A04000191934207D0002B01D0D9
:108240000A781A70A3690133A361F7BD436A026813
:108250004668991A8910711A012922D841695D1A54
:10826000AD106F1C7D1C6800864238D9751B6D08E7
:10827000AD00551904335A1AA94228D92800994249
:108280002AD180222B689200E3609B182361254B42
:108290006561FB189B00ED182B686562E3619B1814
:1082A000236280208000656A00F060FF6860A36937
:1082B000002B02D0019A12781A70636A1A1D62624A
:1082C00080225B6892009A18E3612262BCE7B800E2
:1082D0009942D6D0801A281811F0ABF9D1E70123C2
:1082E000002E00D033000236F6180E4B9E4201D904
:1082F00011F06CF9B00000F039FF751B636A6D086E
:108300006169AD001A1D009045198A4203D0521AC6
:10831000280011F08EF9206800F048FF009B66608D
:108320002360AEE7FFFFFF3F07B5002901D1962884
:1083300007D96B46D91D2D230B700848FFF776FF30
:1083400007BD01225242D317801859410029F7D1A5
:108350009428F5D86B46D91D2E23EDE79C220020EA
:10836000F8B518480DF0E6FE002828D100F0C6FF49
:1083700006000F0014480DF0DDFE144C051E02D05F
:1083800001232370F6E700F0B9FF2378002BE8D033
:1083900025700F4C2269A3699B18E2699B1AA26899
:1083A0009B1A626A6469121B9210013A52029B186E
:1083B000052B04D8801BB941FFF7B6FFD1E7012098
:1083C000F8BDC046742200204C2200209E2A0020C6
:1083D0009C22002013B5124800F0A8F9E121114CAD
:1083E0004902200002F004FE0F4901A800F0CAFF74
:1083F000022201A920000EF0F4FB01A80DF05EFCA2
:108400000A480DF097FE002804D0FFF7A9FFFFF7F8
:10841000C3FEFAE706480DF08DFE0028F0D0FEE717
:1084200024230020C42200200CA502004C2200209E
:1084300074220020F7B5364C0025200000F0B6F875
:10844000344E35493200200011F0A3F81423334C88
:10845000009319221821200002F0D4FD3200304987
:10846000200011F096F803232E4C1A00072120005B
:1084700002F082FC32002C49200011F08AF801231E
:108480002A4C1A0000951121200001F0B5FA284F5E
:1084900032003900200011F07CF8264C00950123B1
:1084A00002221A21200001F0A7FA32003900200030
:1084B00011F06FF80823204C20202560A560E560AE
:1084C00025616561A561E56125626562636000F013
:1084D0004DFE636820605D1E6D08AD00451980206B
:1084E000800000F043FE8022920083182860E06044
:1084F00023612B6865619A1865622262A060320070
:10850000E361A3610D49200011F043F8F7BDC046B7
:10851000242300200020002041850100C4220020E7
:10852000818101003C220020755802004C2200206D
:10853000E1990100742200209C220020DD580200F5
:10854000EB23194A9B0010B5C2501C330400C0181D
:108550000DF0B4FBF1239B00E0180DF0AFFB84237A
:108560009B00E01801F076FA2000C530FF3000F0E3
:1085700095FF20008D30FF3001F032FA2000653089
:10858000FF3001F02DFA2000EC3001F005FF200053
:10859000D03002F0DBFA2000643007F0B9FA201D79
:1085A000FFF7EEFD200010BDEC9A02001423F0B599
:1085B000040095B0009319221821043002F022FD26
:1085C000220027006432B43713211000119207F003
:1085D000ABFA38000EF04DFB2200B83210921E218B
:1085E000002210980DF0C8FF2000D03002F0CEFA23
:1085F0002200EC3212920621494A129801F0F0FE54
:1086000020000026012365301A0000961121FF305A
:1086100001F0F2F920008D300096012302221A2188
:10862000FF3001F0E9F925002000C535B530FF35F0
:108630001A2302220121FF3002F066FB1099042365
:108640003A22280000F0DAFF84229200A218139246
:1086500005231D22019300923B002A0010991398D4
:1086600001F0EEFB96229200129BA01813992A00AB
:1086700001F0C0FD99229200A01839001C2202F0DE
:10868000D5FE19239F220F93013B0E93013B0D93BF
:10869000013B0C93013B0B93013B0A93013B099374
:1086A000013B0893013B0793013B0693013B059374
:1086B000013B0493013B0393013B0293013B019374
:1086C0009200013BA01800930822013B07210DF006
:1086D0005BFFEB239B00E018390003F047FAF3231C
:1086E0009B00E0181D2102F0C9FBFD239B00E65012
:1086F00011982670032110F051FC23002200200065
:1087000008499C33A0321C6011605660064A8030D4
:108710005A610221012207F099FF200015B0F0BD37
:10872000F89802000B590200F55802000123F0B539
:10873000067889B004001E4000D0ADE0FD20800521
:1087400000F0DCFC2300D0331800029300F0B0FAF4
:1087500000F0A6F9282000F009FD050010300DF00A
:108760003EFB4E4B18202B6000F000FD07004C4BE9
:108770000460082231000C300693079610F06CFF5D
:1087800006A9381D082210F04BFF464B29007B61DB
:108790001223AF60EE60AB802E626E62029802F030
:1087A0006DF9002805D028000DF03EFA280000F0F1
:1087B000FDFC0123227864201343237000F094FB16
:1087C000002523006533FF33180003930DF0B2FC3E
:1087D00000283CD020008D30FF300DF0ABFC00288D
:1087E00035D00A2D33D06420013500F07DFB0A2DF1
:1087F000E7D12D492D4800F057FCFD27EB23BF00A2
:108800009B00E618E359002B1AD100F05DF8010037
:1088100004A800F0B7FD05A80DF0E9F8012305AAAA
:1088200004A900933000029B03F0F4F905A80DF0B1
:1088300045FA04A80DF042FAED239B00E358E351FA
:108840002100039AEC31300003F08AFBB9E7FD25E3
:1088500015491648AD0000F027FC6659002E1BD1C3
:1088600000F032F8010004A800F08CFD05A80DF01E
:10887000BEF8EB239B00E01805AA029B04A9009612
:1088800003F0C8F905A80DF019FA04A80DF016FABE
:10889000ED239B00E358635109B0F0BDFD030000D8
:1088A0007D5902003D59020000200020001C0020DC
:1088B000BFF34F8F024B034ADA60BFF34F8FFEE7DF
:1088C00000ED00E00400FA05F0B58DB005AF192207
:1088D0001549380010F0A4FE0022144B05245A71EB
:1088E00080225205566E01222500019402920393C4
:1088F0000199300008F008F80800029907F07EFF9F
:10890000019B03996B430193029B361A6B430293BD
:10891000631E2C1B6C433C19225C1C1ECA54E7D1FD
:1089200008000DB0F0BDC04649A502009F2A0020F6
:10893000F0B597B018220021060010A810F08CFEA8
:10894000132110A810F074FC032110A810F03FFDB3
:108950004C4B1B68002B00D10133DBB202934A4A17
:10896000012300210BA807F0ABFD484B9E4200D924
:10897000002672B6464B64211D68464B30000793B3
:10898000052407F0C5FF60435030281808900A21DD
:10899000300007F0BDFF0A2108F0A0F86143503114
:1089A0006918099130000A2108F098F88023614382
:1089B0000024503169189B010A910193029B002BFE
:1089C0005DD0002500272E1F07AB9B190593032CB4
:1089D00003D1802300249B01019307AB5B592E4AEE
:1089E00003936300D318049300231900062058430F
:1089F000049A16187678B4466246039EB25C102636
:108A00009446049A105C62460641164202D0012048
:108A1000984001430133092BE8D1C9431F4B059A04
:108A2000090119401268039B934225D1312F23DCA1
:108A300000210BA810F0A3FDFA23159A1199DB0071
:108A4000106801421BD0013B002BF9D1019B01347E
:108A50005B000193FA230137E4B25B009F42B6D179
:108A60000435102DAED1074B1B68002BA6D0029FFA
:108A7000013FFBB20293A1E7019B1943D9E7FFF73E
:108A800017FFC04620270020F0FF0000E70300008A
:108A90000420002098A5020062A50200F01F00003B
:108AA000F8B50023124C23600CF0C2FF002808D058
:108AB000042120000CF0B8FF002801D00D4B2360EA
:108AC000F8BD0122A12704250B4B0C491A6022682E
:108AD000FF0048604E68002EFCD0DE591202013DB6
:108AE0003243002DF5D1226001225A60E8E7C046EA
:108AF0001C270020ED5EBC0B00D00040FCD00040E5
:108B0000F0B585B01F000AAB1B8806000291150066
:108B10000393002F1CD0282000F028FB6B46040094
:108B20001989039BAAB200933B000DF066F83368E5
:108B300021005B683000984700280AD0002C05D03F
:108B400020000DF071F8200000F030FB024800E03A
:108B5000024805B0F0BDC04616FCFFFF17FCFFFF42
:108B60000B4B70B51C68002C10D0656D00F0C6FB77
:108B7000A36C002901D1834206D820000CF08BFFA2
:108B8000044920000CF075FF2C00ECE770BDC046D6
:108B90002827002048270020F0B593B007932A4BE0
:108BA00004AC1E68049005910692002E4AD0274B13
:108BB000258867881C6800230293002C2ED0636DE3
:108BC00023480393A36C9AB2A36C1B0C99B2854201
:108BD00014D12048824211D1002B01D0B9420BD1CF
:108BE000029B002B08D120000CF055FF1A492000F1
:108BF0000CF03FFF01230293039CDEE7002A01D023
:108C00009542F9D1002B01D0B942F5D120000CF0EA
:108C100042FF114920000CF02CFFEDE70F4BEB1841
:108C2000012B0FD910233A00009329000C4B08A800
:108C30000CF0E3FF336808A99B683000984708A848
:108C40000CF0F2FF13B0F0BD2427002054270020C1
:108C5000FE030000FF0300004827002002FCFFFF86
:108C6000998B010010B572B60B4B1C68002C08D014
:108C700020000CF010FF0023E364084B2000E363A6
:108C800010BD62B65C2000F071FA5C220021040085
:108C900010F0E2FCEFE7C0464C2700200040002027
:108CA000024B1878012318407047C046A52A0020BF
:108CB000F7B50600FFF7F4FF051E33D11A4C266006
:108CC000FFF7D0FF194B1A4918600CF0D2FEFFF7DE
:108CD000C9FF184B1860184B4363184B8363206817
:108CE00000280ED0C027164E2A00330015490097E1
:108CF000FFF706FF009733002A0013492068FFF7AB
:108D0000FFFE0C2000F032FA0023838083710F4BAA
:108D100003600F4B836000F009FB01230D4A1178BB
:108D20000B431370F7BDC0462427002058270020AE
:108D30004827002050270020FC3F00205D5B0200F8
:108D4000998B0100FF030000FE0300001899020048
:108D5000618B0100A52A0020F7B506000D00170061
:108D60000193002802D100242000FEBD0029FAD082
:108D7000FFF778FF041EF6D0074B019A43630660A5
:108D800045608760054B002A00D0054BA363054969
:108D900020000CF06EFEE7E7FC3F0020275B02009E
:108DA000455B020048270020024B186843425841A7
:108DB0007047C04648270020002310B504499C0096
:108DC0006258002A01D00133F9E76050100010BD4D
:108DD00030270020002310B5044A99008C588442A3
:108DE00001D00133F9E70020885010BD3027002062
:108DF00010B50024084BA200D058002802D0036808
:108E00005B6898470134062CF4D1044B1B68002B97
:108E100000D120BF10BDC0463027002048270020C9
:108E2000F8B5FFF73DFF00281BD0294D2C68E36CF7
:108E3000DA0717D502263343E3640423254F386845
:108E4000C26C1343C364636BC3630CF04AFE38689F
:108E5000416C03F082FC2868C36C334201D003F0FC
:108E6000B6FCF8BD1C4F1D4E3A683168002A1ED171
:108E700029602A688A4208D11B0706D52C60FFF7B3
:108E8000B7FF3B68002BFAD02B6029688C42E8D0F2
:108E90003368994214D1124B4B63124B8B63200001
:108EA0000CF01FFE2968626C4B6C20000DE0206DF9
:108EB000B84203D1606D002800D002002A60D8E7D4
:108EC0009C42ECD1002210004B6C03F005FCC8E77B
:108ED000582700202C27002048270020502700205A
:108EE000FC3F00205D5B020070B50500FFF7D8FE77
:108EF000002803D1280010F05EFA70BD0C4B1C68EE
:108F0000E36CDB0706D5FFF7ADFE0A4B18600028BF
:108F100000D0040000F0F2F92D18A56420000CF038
:108F2000BAFD054920000CF0A4FDFFF779FFE4E746
:108F3000582700202C27002028270020F0B51E4BA2
:108F40001E4F1C683B6885B006000391002B30D093
:108F5000FFF7A6FE00282CD0E36CDB070ED5FFF749
:108F600081FE174B051E186008D00CF094FD1549C2
:108F700028000CF07EFD2C00FFF752FF039B200021
:108F80001B043343A3640CF086FD20000E490CF053
:108F900070FD0E4B0024F318012B07D9C02300935A
:108FA000039A0B4B31003868FFF7AAFD200005B08B
:108FB000F0BD084CFAE7C0465827002024270020BF
:108FC0002C270020482700205427002002FCFFFF08
:108FD000998B010016FCFFFF10B5FFF761FE00281A
:108FE00009D0054C20680CF056FD044920680CF0AF
:108FF00040FDFFF715FF10BD582700204C2700202B
:10900000F7B507000D0000282ED0FFF749FE002815
:109010002CD00724164E3068C36C1C4007D0154A6C
:10902000290038000CF04EFD00242000FEBD03F0A6
:10903000B6FB02213268D36C1940019103D00321A1
:109040008B43D364F1E701242343D3642800B8475A
:109050003268D36C1900A143D164019C5B07E4D54D
:1090600028000CF067FDE0E7034CDEE7034CDCE78B
:1090700058270020355B020017FCFFFF16FCFFFF9E
:10908000020010B5014B12CB12C210BD5C270020AC
:10909000034B1A68034B1A607E225A607047C04621
:1090A000042000205C27002070B5104D2B78022B87
:1090B00018D0814218D90B1A072B15D90C0003239D
:1090C00004431C4010D172B62A78094BD200D0500C
:1090D000981841600CF048FD2B7801332B7062B674
:1090E000200070BD0348FCE70348FAE7A62A0020E9
:1090F0006427002013FCFFFF17FCFFFF70B5002161
:10910000041C07F00DFD002828D1FE21201C890534
:1091100007F010FD002821D104300BF03BFE0500C4
:109120000F48401B08F0E6FC211C08F083F907F00B
:1091300035FD03239843040028000BF035FE200082
:109140000BF028FE002804D1203C002CF7D1054864
:1091500003E00119FFF7A8FF002070BD0248FCE7FB
:109160000038002013FCFFFF17FCFFFF70B506005E
:1091700000250C4B1B78AB4209DD0B49EB00C918ED
:1091800030000CF0F9FC041E09D10135F1E7300084
:109190000BF000FE041E02D11420FFF7C9FB2000D3
:1091A00070BDC046A62A00206427002070B50028A4
:1091B00013D00D4B0D491C7800239C4210DDDA00C2
:1091C000555885420AD28A185268824206D98023AD
:1091D000043802681B061343036070BD0133ECE7DB
:1091E0000BF0E2FDF9E7C046A62A00206427002024
:1091F00070B5051E14DD0B4E0B4C3368002B02D0EE
:1092000020680FF048FFFA2120680024074B8900EE
:109210008361C462694335600FF045FF200070BD73
:109220000348FCE774270020A4270020D9920100FE
:1092300017FCFFFFF8B5114F06003D68002D0AD15D
:109240003020FFF793FF040006F092FC0C4BA56161
:109250002360E5623C600B4D2B68002B09D1102088
:10926000FFF784FF04000FF0DFFE20002C600FF0FA
:10927000B5FE3000FFF7BCFFF8BDC046A4270020B4
:10928000909E0200A0270020014B18687047C0463E
:109290007427002070B50D4C2368002B03D00C4BB5
:1092A0001B68002B02D10620FFF7C4FF20680FF0D7
:1092B000ACFE02000749C3170D684E68521973418E
:1092C00020680A604B600FF0A6FE70BDA02700204A
:1092D000A42700201822002010B5FFF7DBFF002490
:1092E000054BA200D058002802D003681B6898479D
:1092F00001340A2CF4D110BD7827002010B5FFF7F7
:10930000C9FFFA22034B920018685968002307F03E
:1093100025FC10BD1822002010B5FFF7BBFF024B43
:109320001868596810BDC046182200200B4B10B5B4
:109330001B680400002B03D0094B1B68002B02D1D3
:109340000620FFF777FF0023064A99008858002877
:1093500001D00133F9E78C5010BDC046A027002092
:10936000A427002078270020002310B5044A990084
:109370008C58844201D00133F9E70020885010BD99
:109380007827002010B50400002902D00B78002BAC
:1093900003D1034B2360200010BD0CF096FCFAE7CC
:1093A00028990200F8B504000E00150000290AD023
:1093B0000B78002B07D0002A05D0080097B210F0D8
:1093C0008BF9874203D90B4B23602000F8BD681D41
:1093D000FFF7CCFE20600CF05AFD23682A005F8066
:1093E00023683100181D10F01BF923685D19002354
:1093F0002B71EAE728990200014B03607047C046D1
:109400002899020010B50548054C20600CF042FD7B
:10941000044A0549200010F0BCF810BD289902004C
:10942000A827002000200020BD5C0200084B73B577
:109430001C680500002C0AD00100266808310822AB
:10944000684610F0EDF80CCD31682000884773BDF8
:10945000AC27002010B5054C012120000CF00EFDBA
:10946000034A0449200010F094F810BDB0270020F2
:1094700000200020395E02000388074A10B5012051
:10948000934208D0834202D00020DB0703D41E2081
:10949000FFF74EFA002010BDFFFF000010B50400DA
:1094A000034B08330360FFF795FC200010BDC04656
:1094B00070990200FA2270B5438992005343314AF1
:1094C00031491400050038348B421BDC2F498B4294
:1094D00018D82F49083C8B4214D82E49083C8B429F
:1094E00010D82D49083C8B420CD82C49083C8B42A3
:1094F00008D82B49083C8B4204D82A4914008B42D7
:1095000000D90834284B2A7B1E1D042A03D89E1C30
:10951000022A00D81E00FA212068890007F06EF99F
:10952000337868812B7300222A2128000CF0D6FCA6
:10953000002801D01D4870BD10222B2128000CF0FE
:10954000CDFC0028F6D101222D2128000CF0C6FC0C
:109550000028EFD101222E2128000CF0BFFC0028AA
:10956000E8D172780E2128000CF0B8FC0028E1D177
:10957000012223792A211A4328000CF0AFFC00288D
:10958000D9D0D7E73099020000C409000071020069
:1095900080380100204E00001027000088130000D2
:1095A000C4090000E204000078A702000EFCFFFFDF
:1095B0007FB515000F226A4404001E001170002DB3
:1095C00016D0002B14DD012301890093006B01F0FC
:1095D000D1F9002802D0074804B070BD009021895D
:1095E00033002A00206B01F07BF90028F4D0F2E769
:1095F0000148F1E70EFCFFFF17FCFFFFF7B506007F
:10960000002501931E4B1436083304000360858047
:109610008571C581058245820F00009229001822BC
:10962000300010F019F81C2130000FF001FE6B46DD
:109630009B880221A3806B461B8822002381142370
:10964000A5712173A563A58763813E3213782763D3
:109650008B43F1310B4013702300957295810135D6
:10966000221DD5870833A21DD5872000DD87FFF78F
:1096700021FF002802D1A3791D43A5712000FEBD62
:109680007099020030B50425837987B004002B421D
:1096900004D1FFF791FBA3791D43A571A36AA269C9
:1096A0001B6800251A4208D106236A4601212000C2
:1096B000FFF77EFF051E03D0114D280007B030BD17
:1096C0006B460222042069469A561856237BD20024
:1096D0005A43228202220978C00049B2C900594384
:1096E00043436382A379E1819343A37120000CF08B
:1096F00003FC0123A1881A0002A80CF07AFBDCE726
:109700000EFCFFFFF8B50400FFF7BCFF0E22A35EBE
:10971000794F5B42BB4251DA23003E331B789B07F3
:109720004CD50125210028003E310B785A08904382
:1097300002000220AA40834313430B702000FFF76E
:10974000A1FF1022A35E5B42BB4248DA23003E33F6
:109750001B785B0743D50125210028003E310B789B
:109760009A08904382000420834313430B70260021
:109770002000FFF787FF1222A35E4836BB423EDA85
:1097800023003E331B781B0739D5210001223E31CF
:109790000B78D80882430820D200834313430B7010
:1097A0003378032B3BD80133DBB23370012B00D06D
:1097B0008DE0230000224A331A8030E02000FFF7BA
:1097C00061FF0E22A35EC8225B4252000025934235
:1097D000B4DD23003E331B789B07A2D5AEE7200003
:1097E000FFF750FF1022A35EC8225B425200934253
:1097F000BDDD23003E331B785B07ACD5B7E7200007
:10980000FFF740FFC8231221625E5B009A4204DD2D
:1098100023003E331B781B07B7D5002DC0D132780B
:10982000002A14D02100270001254A310B883E3739
:1098300001339BB20B803878AC46054055D01D2BC8
:1098400005D963469843002338700B80337020009D
:109850000CF0BEFB294A0723904244DD2000FFF7AD
:1098600011FF0E23E25E264E52420323B2423ADB40
:10987000C8252000FFF706FF0E23E25EAD0052422E
:109880000423AA422FDC2000FFF7FCFE1023E25E37
:1098900002235242B24226DB2000FFF7F3FE1023E0
:1098A000E25E01235242AA421DDC2000FFF7EAFEDD
:1098B0001223E25E0523B24215DB2000FFF7E2FE31
:1098C0001223E25E0623AA420DDC00230BE0042BE8
:1098D000A5D122003E321178033B0B4313700023C5
:1098E0004A3423800B331800F8BD092BAFD9013A55
:1098F0000D803270ABE7C04670FEFFFFFF700200C4
:10990000E0FCFFFF70B5C369C1681A68451D8AB0E5
:109910000400EB7F114255D0002B58D1EB7F082B70
:109920000DD90122A379134209D11343A371A18850
:10993000130006A80CF05DFAFFF7E0FC2062EB7F55
:10994000012B23D80123A2791A421FD00025A18818
:10995000A571022202A80CF04CFAA31DDE7F012E95
:1099600014D1FFF7CBFC2B00226A801A994100909A
:109970000191019BA188AB4203D1174B009A9A42F7
:1099800027D90123042206A80CF033FA0322A37975
:109990001340012B14D1FFF7B1FC0023226A801A77
:1099A0009941994202D10D4B984209D90223A279DB
:1099B000A1881343A3710522012306A80CF019FA0C
:1099C0000AB070BD0B2BA9D80133EB77A6E7013B9A
:1099D000FBE733000322D6E7E7030000DB050000C6
:1099E00010B50400034B08330360FFF7BDFC2000F3
:1099F00010BDC04688990200F0B5070000250E0092
:109A000085B002930AAB1B7808370393104B040010
:109A1000083303600192858085712900182238007F
:109A20000FF01AFE039A310038000FF006FC6B4667
:109A30006A469B88127AA380A31DE671DA77631DBC
:109A400025622000DD77FFF771FC200005B0F0BD36
:109A50008899020010B50400034B08330360FFF738
:109A6000B9F9200010BDC046F89902007FB5150075
:109A70000F226A4404001E001170002D16D0002B26
:109A800014DD012301890093C06B00F073FF0028EF
:109A900002D0074804B070BD0090218933002A002D
:109AA000E06B00F01DFF0028F4D0F2E70148F1E779
:109AB0000EFCFFFF17FCFFFF002330B585B003ACA1
:109AC000217001890093050001332200C06B00F072
:109AD00051FF002802D0094805B030BD20802989F7
:109AE000009002232200E86B00F0FAFE0028F2D179
:109AF000237860781B02184300B2EDE70EFCFFFFED
:109B000013B56B46DC1D0023220023700133FFF7E1
:109B1000ADFF002801D1207816BD0148FCE7C04602
:109B20000EFCFFFFD0B504000CF02CFBE268A3692B
:109B3000981A09F02DFC06000F002369E069C01A8D
:109B400009F026FC32003B0009F070FF0022104BA8
:109B500008F02EFE0F4A104B08F028FB09F0A4FC79
:109B60000021041C06F0D2FF002804D0201C0B4961
:109B700007F0EEF8041C201C09F044FC02000B0066
:109B80000020074909F086F809F0CCFBD0BDC0469B
:109B900000806640EA2E4454FB2109400000B44393
:109BA00000807640F0B5050085B0006C0CF0ADFA91
:109BB000061C286C0CF0A0FA0221071C28000CF0EF
:109BC00012FB0221039028000CF01FFB07F048FF56
:109BD0000221041C28000CF02AFB07F041FF051CA1
:109BE000301C09F0E5FE0290301C09F0A3FE019044
:109BF000381C09F0DDFE061C381C09F09BFE071C12
:109C0000039807F02DFF391C07F014FC311C071CCA
:109C1000201C07F00FFC029907F00CFC011C381CFB
:109C200007F096F8311C071C281C07F003FC01996B
:109C300007F000FC011C381C07F08AF80299061C8A
:109C4000281C07F0F7FB0199051C201C07F0F2FB0C
:109C5000011C281C07F020FD311C09F0EBFE0D490A
:109C600007F0E8FB09F0CEFB0B4A0C4B08F09EFA1C
:109C700009F01AFC0021041C06F048FF002804D05B
:109C8000201C044907F064F8041C201C07F0C8FEDF
:109C900005B0F0BD0000B443EA2E4454FB21194046
:109CA00070B50022102104000CF05EFA1B4D002854
:109CB0002DD1032608212000FFF722FFA84226D03D
:109CC000304226D1FA216389890059435023144A2E
:109CD000D518D058884204D3D518083B180008304E
:109CE000F7D1FA212868890006F088FDA02260815A
:109CF000112120000CF038FA002808D101222B791C
:109D000010211A4320000CF02FFA002800D003483D
:109D100070BD6420FFF7E8F8CCE7C0460EFCFFFFFB
:109D2000A09902007FB50425837904002B4218D145
:109D300002260CF027FAA379A188B3432B43A37121
:109D40000622012368460CF054F8A0790300304045
:109D5000AB43A37143425841034B4042184004B007
:109D600070BD0248FBE7C04614FCFFFF15FCFFFF77
:109D700010B5837904005A070DD49B0701D4FFF76F
:109D8000D1FF236C2000002B02D0FFF70BFF10BD8A
:109D9000FFF7C8FEFBE70148F9E7C04615FCFFFFE7
:109DA00070B5466C86B001AC050001916260A3609D
:109DB000002E0CD00B4905A8FFF7E4FA0C23220073
:109DC00005A930000CF094FF05A80BF077FF2B00DD
:109DD0000C3307CC07C30223AA791343AB7106B037
:109DE00070BDC0467EA70200642330B50400028126
:109DF000438185B08180FFF753FF0222A379606C15
:109E00009343A371002813D00C490CF038FF051EB2
:109E10000ED001000C22103101A80FF001FC20002F
:109E20000199029A039BFFF7BBFF2800FFF7BEF9D9
:109E30000123A2791343A37105B030BD7EA70200B0
:109E4000F7B5009308AB1B880400019309AB1D888C
:109E500000230F0016000D4A8380083283710260D0
:109E6000C360036143618361C36103621D212430C8
:109E70000CF06DF9009BE763266429002000636401
:109E8000019AFFF7B1FF2000FEBDC046F89902001D
:109E900082B0F0B50400A5B064202B932A920FF095
:109EA0008AFA04220C2109A802F0F2FC2422CC49EF
:109EB0001BA80FF0B5FB052206A811000DF0E6FF68
:109EC000C84907A802F090FDA06800F081FBA568D2
:109ED000C54918A8FFF756FA782218A9280000F0FB
:109EE000A5FC18A80BF0EAFE6E256420013D0FF0DA
:109EF00062FA002DF9D1A06800F06AFBA0680CF0AE
:109F000036FB012160680CF077F8012107006068DA
:109F10000CF085F806000A200FF04DFA0022B34B32
:109F200003929F4210DB013203923A00C8320BDBEE
:109F3000C822042192000391974205DC0322039278
:109F4000C82F01DC013A039200279E420CDB33004C
:109F50000137C83308DBC82303379B009E4203DC6C
:109F6000013FC82E00DC013F06A80DF086FF002649
:109F7000032373431BA9CA189078002805D0C95C35
:109F80005278FF2306A802F0C3FC01360C2EEFD155
:109F90006B463AB20C21595E06A8FF2302F0B8FCCA
:109FA0000023A06800931A00743006A90DF075FF15
:109FB000002304930323049A039853431BAA995C38
:109FC000814237D1D31805935B78BB4232D1059BD0
:109FD0009E78002E2ED1310020680CF004F907F095
:109FE0003FFD3200031C290009A80DF00AF93100D9
:109FF00020680CF00AF907F033FD0122031C290048
:10A0000009A80DF0FEF8310020680CF010F907F0F7
:10A0100027FD2900031C022209A80DF0F2F8FE23F7
:10A0200003229B05290009A80DF0EBF80123059AEE
:10A03000ED189370049B013304930C2BBAD1642068
:10A040000FF0B9F90B2D00DC5BE709A80DF0C5F89E
:10A05000012201000CA802F01BFC002509A80DF04C
:10A06000BCF8A8423CDD2900002209A80DF0B7F891
:10A070000022061C290009A80DF0B1F8011C301CB3
:10A0800007F0D8F92900061C012209A80DF0A7F84D
:10A090000122071C290009A80DF0A1F8011C381C99
:10A0A00007F0C8F9311C06F053FE2900061C0222F5
:10A0B00009A80DF094F802222900071C09A80DF048
:10A0C0008EF8011C381C07F0B5F9311C06F040FE73
:10A0D0002900031C00220CA80DF093F80135BDE700
:10A0E00009AA1100012318A80DF0A5F818A90FA8B6
:10A0F0000DF0FEF818A80DF095F80CAA09A912A801
:10A1000001230DF098F8002312AA0FA915A80DF04D
:10A1100092F8002215A811000DF061F80022061C2B
:10A12000012115A80DF05BF80022051C022115A8DD
:10A130000DF055F8FC21071C8905301C07F07AF951
:10A1400007F06EFCFC21060018908905281C07F01A
:10A1500071F907F065FCFC21050019908905381C90
:10A1600007F068F907F05CFC2A00030031001A9040
:10A170002068FFF715FEA0680CF0F9F907A908A8F8
:10A18000A5680DF072FE0022194B009208A90193F8
:10A190002800130000F0BAFA08A80DF059FEFA20C2
:10A1A00080000FF008F9A0680CF0E1F915A80DF097
:10A1B00039F812A80DF036F80FA80DF033F80CA8F6
:10A1C0000DF030F807A80DF043FE06A80DF040FE94
:10A1D00009A80DF027F825B0F0BC08BC02B018475C
:10A1E00089A70200ADA70200F2A70200E0FCFFFF72
:10A1F000DC050000F7B583601D4B05001F6801609A
:10A200004260002F31D02820FEF7B0FF040010304C
:10A210000BF0E5FD174B18202360FEF7A7FF002287
:10A220000600154B01920560083200210C300093A6
:10A230000FF012FA08226946301D0FF0F1F90F4BAA
:10A2400000227361C223A3803B68E260A6602262A1
:10A2500062625B68210038009847002805D0200022
:10A260000BF0E2FC2000FEF7A1FF2800FEBDC04677
:10A27000AC27002005000600919E01004762020005
:10A28000F0B5040085B0637A9C46002B04D1200011
:10A290000CF004F805B0F0BDA37A266F01931023EB
:10A2A000019AF35600259B1801229A402900F36871
:10A2B00003920293029BAB4231DDB368019A6B4378
:10A2C0009B1872695B00E77AD3181A785878E3799B
:10A2D000012F14D15F1E3F1A10003A005B00434368
:10A2E000606F8218D3189B79634500DD6346627BFB
:10A2F0001A4202D00123AB4019430135DAE7022F9D
:10A3000005D15F1EBA1A277A013F381AE6E7032FF4
:10A31000E4D1277A013FBF1A02003800DEE711239B
:10A32000C943F356606C994023691940039B194354
:10A330000FF025F9A27B072AACD8637B0C495B00A0
:10A340006373531CDBB290004158A373022A03D8F5
:10A3500008000FF025F896E7064B20002363002342
:10A360006363054BE462236414300EF09CFE91E7B6
:10A37000109A020081A201008762020010B5040059
:10A38000044B03600EF087FE200005F007FC200060
:10A3900010BDC046909E020010B504000E4B08335D
:10A3A0000360FEF7E1FF200074300DF051FD200046
:10A3B00060300DF04DFD200058300BF07FFC200088
:10A3C00050300BF07BFC2000044B14306361FFF72E
:10A3D000D5FF200010BDC046309A0200C49E020086
:10A3E000F8B500250400324B858008330360857181
:10A3F000143016000F0005F0BBFB20002D4BE5626A
:10A40000636125645030FEF7F7FF20005830FEF7F7
:10A41000F3FF2000603002F075FA20000423F25EA2
:10A4200033682667590009B274300DF02FFD336888
:10A43000226FE37173680126237210236581A78060
:10A440002561D35691685918994204DD300098402F
:10A4500001330543F8E711230120D356D168591879
:10A46000994206DD02009A40266901333243226197
:10A47000F6E71420FEF77AFE226900212A43012321
:10A48000060006F01DF8FF23220063720133A3814A
:10A49000002348326664A37320001370A366FEF79E
:10A4A00045FF0123A27920001343A371F8BDC046E4
:10A4B000309A0200C49E0200F0B5437A85B00400D1
:10A4C000002B04D120000BF0E9FE05B0F0BD012205
:10A4D000837A11009C461023066F0025F3560392E1
:10A4E0006344994002912900F3680193019BAB42B8
:10A4F0002CDDB36872696B4363445B00E77AD31861
:10A500001A785878E379012F10D15F1E3F1A100096
:10A510003A005B004343606F8218D3189B79002B8D
:10A5200002D0039BAB4019430135DFE7022F05D171
:10A530005F1EBA1A277A013F381AEAE7032FE8D1DB
:10A54000277A013FBF1A02003800E2E71123C9430E
:10A55000F356606C994023691940029B19430FF030
:10A560000EF8667AB31EDBB2FC2B14D8FEF78CFE15
:10A570000B4B0500236300230A4863630A4BFF214A
:10A58000E4622364704306F0C3F9290041432000CC
:10A5900014300EF088FD637A012B00D995E791E71E
:10A5A0009D620200B6030000876202001FB501230E
:10A5B00081881A0068460BF01CFC012303491A002D
:10A5C00068460BF016FC05B000BDC046FE03000057
:10A5D0001FB5030048331A780400002A0DD000226A
:10A5E0001A70012381881A0068460BF002FC0123CF
:10A5F00004491A0068460BF0FCFB200074300DF093
:10A600003CFC1FBDFF03000010B548300378002B51
:10A6100006D00378012B03D0012102480BF07AFA0F
:10A6200010BDC046FF03000010B501210400062044
:10A630000BF070FA064B984208D148342378002B6F
:10A6400004D02378012B01D020BFF7E710BDC0460E
:10A6500016FCFFFF70B50600141E19DB0500483517
:10A660002B78002B02D02B78012B13D10023300044
:10A670001A00743002F008FA002C07D033004A3375
:10A680001C80002407234C3634802B70200070BDC2
:10A69000014CFBE7014CF9E717FCFFFF12FCFFFF41
:10A6A000F8B517000A68050052880B00012A09D185
:10A6B000002118000BF086FB002201002800FFF7A4
:10A6C000C9FFF8BD002F19DD060048363278002A90
:10A6D00002D03278012A13D12A00002428005C32EB
:10A6E0001900148058300BF048FB2B004A331F80B0
:10A6F00003234C352C8020003370E2E70148E0E76B
:10A700000148DEE717FCFFFF12FCFFFF73B5079C53
:10A710000500002C1CDB060048363078002802D0EB
:10A720003078012816D106981BB2C0B200902800DC
:10A7300012B274300DF0B1FB002C07D02B004A335D
:10A740001C80002407234C352C803370200076BDFC
:10A75000014CFBE7014CF9E717FCFFFF12FCFFFF80
:10A76000F7B505000E00171E26DDFFF74DFF2B0085
:10A7700048331C78E4B2002C20D133685B88012B6D
:10A7800009D1210030000BF01DFB22000100280040
:10A79000FFF760FFFEBD310001A80BF0E6FA3A00BA
:10A7A00001A92800FFF77CFF01A80BF087FA280019
:10A7B000FFF73AFF2000EDE70148EBE70148E9E742
:10A7C00017FCFFFF11FCFFFFF0B587B00D9C0600E2
:10A7D0000F0002920393002C20DBFFF715FF3300DC
:10A7E00048331D78EDB2002D1AD1390005A80DF0BF
:10A7F0003CFB0C9B01940093029A039B05A930003B
:10A80000FFF784FF05A80DF023FB002C03D03000D8
:10A81000FFF70AFF2C00200007B0F0BD014CFAE75B
:10A82000014CF8E717FCFFFF11FCFFFFF8B504002F
:10A83000171E1DDD060048363378002B02D0337812
:10A84000012B17D12200E3795632013B137023000C
:10A850000025200054331D8050300BF08EFA230069
:10A860004A331F80022328004C3425803370F8BD02
:10A870000148FCE70148FAE717FCFFFF12FCFFFF65
:10A88000F7B505000F00161E18DDFFF7BDFE2B0003
:10A8900048331C78E4B2002C12D1390001A80BF027
:10A8A00064FA320001A92800FFF7C0FF01A80BF0ED
:10A8B00005FA2800FFF7B8FE2000FEBD0148FCE7BE
:10A8C0000148FAE717FCFFFF11FCFFFFFF2902D840
:10A8D0004172002070470148FCE7C04617FCFFFFAB
:10A8E000F0B51F0085B00AAB1B78040003930093FA
:10A8F0003B000D0016000EF0FCFB002833D0237D3A
:10A90000082B2DD8236800221900FC318A62A0216F
:10A91000C9005A50154905205A500138C046C04652
:10A92000C046C046C046C046C046C046C046C046F7
:10A93000C046C046F1D1236801325A50A0210432EA
:10A94000C9005A5005F024FA039B320000932900F5
:10A950003B0020000EF0CDFB237D01332375CCE7B7
:10A96000034805B0F0BD2075FBE7C046FC0F0000B2
:10A970000EFCFFFFF0B51F0085B00AAB1B7804008A
:10A98000039300933B000D0016000EF09AFB002885
:10A9900033D0237D082B2DD8236800221900FC31E9
:10A9A0008A62A021C9005A50154905205A50013821
:10A9B000C046C046C046C046C046C046C046C04667
:10A9C000C046C046C046C046F1D1236801325A5045
:10A9D000A0210432C9005A5005F0DAF9039B320075
:10A9E000009329003B0020000EF06BFB237D013318
:10A9F0002375CCE7034805B0F0BD2075FBE7C046E2
:10AA0000FC0F00000EFCFFFFF8B50D1E30D0002635
:10AA10000227C468002C28D0AA88A38853403B4250
:10AA200004D13A4204D1AB883B4219D0646AF1E7C1
:10AA3000A968A0680CF0C0FB0028F4D02B88002B7C
:10AA400002D022889A42F1D16B88002B02D0628812
:10AA50009A42EBD1A288074B01361343A380E5E766
:10AA6000A368AA689342E1D1E8E72000002E00DC49
:10AA70000148F8BD0080FFFF17FCFFFFF0B506009E
:10AA800085B00D1E59D00127C468002C22D00221A8
:10AA9000AA8800230A4202D0A3885B083B402268B0
:10AAA00029688A4210D1A068A968002B0AD00CF04E
:10AAB00083FB002808D0A3881AB2002A06DB2048AE
:10AAC00005B0F0BD8842F6D0646ADEE75B045B0C3B
:10AAD000A380F4E7F0682A88002807D1F5600123F5
:10AAE000184968460BF085F90020E9E701000300EA
:10AAF0001C88944206D25C6A1900002C0DD02300F9
:10AB0000F6E723001C88944207D15F886C88A7422F
:10AB100003D25C6A1900002CF3D1814209D10B8861
:10AB20009A4204D305D148886B88984201D969625A
:10AB3000D4E74B6A6B624D62D1E70348C0E7C04679
:10AB400016FCFFFFFD03000017FCFFFF064B10B5CE
:10AB50001A00040008322C33026043600430FEF710
:10AB600039F9200010BDC046489A020008B4024BD3
:10AB70009C46043808BC60474DAB010008B4024B4A
:10AB80009C46043808BC6047AF6602000C4A0023AC
:10AB900011002C32083110B5038183724260C3600A
:10ABA000036143614383016004000430FEF704F94C
:10ABB000044B1A68002A00D11C60200010BDC0465A
:10ABC000489A0200AC270020F7B50E000125C468A2
:10ABD0000192002C36D0238832889A4201D0002B73
:10ABE00023D1638872889A4201D0002B1DD1FEF7D1
:10ABF00057F80123002806D0C022A3881340C03B89
:10AC00005A425341DBB2019A934219D1A7883BB211
:10AC1000002B15DB10223100A0180EF001FD40239F
:10AC20001F4204D020000BF04BFD646AD1E7FEF711
:10AC300037F80028F6D021000348FEF7E1F9F4E7E1
:10AC40000025F2E72800FEBDC166020008B4024BF1
:10AC50009C46043808BC604749680200F0B587B0DC
:10AC600001930EAB1B88060003930D9B0D00009310
:10AC7000019B02920C9F002B3DD0002F02D1009B24
:10AC8000DB0738D52820FEF771FA040010300BF0EE
:10AC9000A6F86B461B89258063801820FEF766FAAC
:10ACA0000500009B08220593019B002103600C30E6
:10ACB00004970EF0D1FC082204A9281D0EF0B0FC68
:10ACC0000E4B02226B6100230399E36023626362EF
:10ACD00033680A43A560A2805B6821003000984772
:10ACE000002806D020000AF09FFF2000FEF75EFA41
:10ACF000034807B0F0BD0348FBE7C0468368020085
:10AD000016FCFFFF17FCFFFFF0B50400160000253E
:10AD10008380164A164B8571026021814681057336
:10AD2000186889B08C46A8421DD0124A0595049235
:10AD3000C02202926A4604AB82CB82C223002A0060
:10AD40006146FFF78BFFC022094B0A49186802923F
:10AD50006A46069106AB079582CB82C223002A0081
:10AD60003100FFF77BFF200009B0F0BD8C9A020094
:10AD7000AC270020AD69020030B500240373012325
:10AD8000034D84710560818082734373846030BD9C
:10AD9000A49A020070B583790400DB0702D58068AD
:10ADA000FEF704FAA3799B0702D5A068FEF7FEF927
:10ADB000A3795B0707D5A0230021144ADB00D150FB
:10ADC000A068FEF7F3F9A3791B0708D5A568002D45
:10ADD00005D028000DF0E9F82800FEF7E7F9A3797F
:10ADE000DB0605D5A068002802D00368DB68984719
:10ADF0006023A2791A4205D0A068002802D0036817
:10AE00005B6898470023A360A37170BD0070004089
:10AE1000F7B50227037B04000D003B4226D0012931
:10AE200026D886793E40009614D1FFF7B3FF18204C
:10AE3000FEF79CF90E230600E356182200990193B1
:10AE40000EF00AFC019930000EF009FAA379A66011
:10AE50003B43A371A3685A68002D04D00025DB682A
:10AE60001A602800FEBD1B691A60FAE7014DF8E779
:10AE7000014DF6E716FCFFFF17FCFFFF70B504005D
:10AE800000250C4B0E00083385808571036021007E
:10AE900018300BF03CFE2000210020300BF05AFE51
:10AEA000054BA680E5802572E5602561656120007F
:10AEB0001C6070BDB49A0200B42700208379DB07C0
:10AEC00002D5C160002070470048FCE716FCFFFF78
:10AED0008379DB0701D5C06870470148FCE7C046AD
:10AEE00016FCFFFF70B545690400002D22D0037ADF
:10AEF000032B21D8FFF7ECFFA8622C20FEF736F9D0
:10AF00002C22002105000EF0A7FB002263695A6283
:10AF10002369934208D1636923610020237A656124
:10AF20000133237270BD13005A6A002AFBD1626993
:10AF30005A62F2E70148F5E70148F3E717FCFFFF23
:10AF400013FCFFFF144B70B55A68144C002A03D051
:10AF500000225A600132A2601A69002A17D000212B
:10AF600019618023DB000E4DE3582868012B0FD1B7
:10AF7000A923DB00E1584942FFF7A0FF2868FFF74B
:10AF8000B1FF2B685A69074BE2500123A36070BDE3
:10AF9000FFF794FFF9E7C046FC10004000100040A6
:10AFA000B42700200405000003000069002809D030
:10AFB0000221054AD167426A1A611A7A013A1A7265
:10AFC000024B19607047C04604E100E000E100E078
:10AFD0000223024A11780B4313707047A72A0020FE
:10AFE0000221024A13788B4313707047A72A00206E
:10AFF00010B5002903DB024B19600EF0CEF810BD2E
:10B00000B827002070B504001E0004AB1D7804F0C2
:10B01000F7FD20000E4B40302360FEF7EDF92300D2
:10B0200001364C33013522001E701D730023E121CF
:10B030004E32A3646365138053809381D381013BB7
:10B04000200063644902FFF7D3FF200070BDC046B3
:10B05000F0980200F0B5050007005C355A372B88E0
:10B060003A8885B004009A421ED0104B1B781B070B
:10B070001AD52B88426DD15C0EF05AF8230028882F
:10B0800058331978013005F029FD3B888EB2B34260
:10B0900009D107490123022268460AF0AAFE0121CC
:10B0A00020000BF098FD2E8005B0F0BDA72A0020EF
:10B0B000FF03000070B5114D04002B781B0705D568
:10B0C00001210BF088FD606DFEF770F808262B78E3
:10B0D000B3432B70230058331878FEF747F86065A8
:10B0E000002809D0230000205A3318802B785C34C4
:10B0F0001E4320802E7070BD0148FCE7A72A002067
:10B1000013FCFFFF73B50D0006A904000978043095
:10B11000002A01D1DE070ED5002D0CD018264E4393
:10B120000C34A41962600122A360044B25606361A2
:10B1300005F00EF973BD0022FAE7C0467F6B0200EE
:10B14000F0B58BB0059303000700040000255833C9
:10B1500006930433039104925A370793049B9D424C
:10B1600011DA069B3E881978701C05F0B7FC079B26
:10B1700089B21B888B4206D0039B626D5B5D0135F3
:10B1800093553980EAE7059B012B03D0022107483C
:10B19000FDF7D4FE012320000093054A002321007F
:10B1A000FFF7B0FF28000BB0F0BDC046FF03000062
:10B1B00055B00100F7B5184C1F0023780500019128
:10B1C00016009B0724D4002A24DD002922D0FFF793
:10B1D000FFFE23781B0714D50024019B321B19198D
:10B1E00028003B00FFF7ACFF3900241828000BF0C3
:10B1F000E2FC002F01D0A642EFDC2800FFF7F0FEB2
:10B2000004E02800FFF756FF041EE5D02000FEBD35
:10B21000024CFBE7024CF9E7A72A00200DFCFFFFD8
:10B2200017FCFFFFF7B580277F053D697C69082281
:10B23000113C6C430600210068460EF0F1F9104BFA
:10B24000009A9A4219D00093002301937969300043
:10B25000133969430BF0CEFC019A009930000BF0D2
:10B26000E1FC210030000BF0C5FC7969AB08133913
:10B270006943220030000BF0C7FC0198FEBDC046B8
:10B28000FECA0000F0B50D00A9B00D9200213022D9
:10B29000060010A80B930EF0DFF928000EF01CFA40
:10B2A000431C0C93102B00D9B5E00B9B202B00D92D
:10B2B000B1E0290030000BF0E2FC071E50D129005C
:10B2C0000C9A10A80EF0ACF90D990B9A14A80EF078
:10B2D000A7F980235B051A695F690C92113F7A43D5
:10B2E00030005D690B92FFF79DFF302200210400C2
:10B2F0001CA80EF0B1F9290000270C9B1339594303
:10B3000030000BF077FC0D9730257D430B9B083305
:10B31000ED18A74242DA290030221CA80EF080F96D
:10B3200010A91CA80EF0CEF9002827D13C49300006
:10B3300022000E910F940BF075FC6A46099513AB31
:10B3400023CB23C223CB23C223CB23C23000129BA7
:10B350001099119A0BF074FC01230D930137D3E778
:10B3600010300B9A0D990EF04CF904003800FDF7DF
:10B370001DFF002CA3D1200029B0F0BD6A4609951D
:10B380001FAB23CB23C223CB23C223CB23C230004A
:10B390001C991D9A1E9B0BF053FCDFE7E5433023FD
:10B3A000ED1725405D430B9B08355D190D9B002B68
:10B3B0001DD10C9B3021981E05F020FAA0422CD004
:10B3C00017490134300022000E910F940BF02AFC33
:10B3D0006A46099513AB23CB23C223CB23C223CBCD
:10B3E00023C230001099119A129B0BF029FC0B9983
:10B3F00030000BF0FFFB80235B0559690C230C9A8E
:10B40000133963434A430233110030000B9A0BF0A7
:10B41000FBFB0024AFE7034CADE7034CABE7C046B2
:10B42000FECA000017FCFFFF13FCFFFF70B504000D
:10B43000A280FA22002308000C4992000831216002
:10B44000A3716061E260A360638209490BF017FC9D
:10B45000051E09D0010020001031022212300EF02A
:10B46000DFF82800FDF7A2FE200070BDCC9A020094
:10B4700000A8020030B50225837987B004002B4272
:10B4800004D1FDF799FCA3791D43A57120000BF0B1
:10B4900040FC00281CD06B46DD1C28000BF030FC63
:10B4A0002B78002B17D001A80BF028FC0321019A60
:10B4B000D3170B409B189B102382FDF71FFFE368F7
:10B4C000A18818180123A0601A0002A80AF091FCB4
:10B4D000002007B030BD0122064B1A60064A5168B1
:10B4E0000029FCD000215160044A12680192012217
:10B4F0005A60DBE700C00040FCC0004008C50040C7
:10B50000022802D10122014B1A707047A82A00209C
:10B5100070B5064C05002378002B04D1044801F0D7
:10B52000AFFF01232370280070BDC046A92A002068
:10B5300001B5010070B50C000AF07AFA002810D0AD
:10B540000023144DA40A2B7020000BF0F6FB0028FA
:10B5500003D00A200DF02FFFF6E72B78002BFCD04C
:10B5600070BD02210C4B0D4A99508021C900080082
:10B570005D58002DFCD0A121C9005C50195800294C
:10B58000FCD0002199508021C9005A58002AFCD0D3
:10B59000E6E7C046A82A002000E0014004050000BC
:10B5A000F8B50C0015001E000AF042FA002811D070
:10B5B0000023174F3B703200290020000BF0BBFB2B
:10B5C000002803D00A200DF0F6FEF4E73B78002BAC
:10B5D000FCD0F8BD01210F480F4B84461950802143
:10B5E000C9005A58002AFCD080270022FF0096424A
:10B5F00007DD910068586050D9590029FCD001320C
:10B60000F5E7002261465A50DA59002AFCD0E0E7FB
:10B61000A82A00200405000000E0014010B5040045
:10B62000054B083303601C300AF048FB200018303B
:10B630000AF044FB200010BDE49A0200FF23F0B59D
:10B640002C4D8DB02B7000230400694600880093B8
:10B6500004F0BEF9002802D16B469B782B70264E71
:10B660003368DB68002B07D1002320881A001900FB
:10B670000BF067FB0DB0F0BD2B78032BF4D81F49FE
:10B6800001A8FDF77FFE336801A9DE6804A80AF06F
:10B690006CFB04A930000BF025FB0027060004A872
:10B6A0000AF00CFBBE421ED031002022103104A84B
:10B6B0000DF0B6FF3000FDF779FD297804ABC90025
:10B6C0005918082202A80DF0ABFF20880123082298
:10B6D00002A90BF036FB0137002804D12088084A64
:10B6E0000C210BF02CFB01A80AF0E8FA002FBBD0CC
:10B6F000C0E7C046F0210020C827002010A80200A3
:10B70000FFFF0000F0B5837991B004005B071BD503
:10B71000FDF7F4FD00232269801A9941994203D173
:10B72000F423FF3398420FD9A068002808D0364B85
:10B730001D880CF057FC036815221B6A29009847E6
:10B740000422A3799343A371A3799B0759D52F4D65
:10B750002B68DB68002B50D02D4B1B78032B4CD86B
:10B76000294B2C491B8804A80193FDF70BFE2B687D
:10B7700004A9DE6808A80AF0F8FA08A930000BF05E
:10B78000B1FA070008A80AF099FA02AB9E1D082337
:10B790003200338006A9073B01980BF0D4FA002F42
:10B7A00008D039002022103108A80DF039FF3800E8
:10B7B000FDF7FCFC164B32881B7806A9DE0008ABAF
:10B7C0009E1930000DF01DFF002813D0082206A995
:10B7D00030000DF025FF2B6804A9DD6805A80AF0EC
:10B7E000C4FA202308AA05A928000BF081FA05A8AD
:10B7F0000AF064FA04A80AF061FA0222A3799343DA
:10B80000A37111B0F0BDC046502A0020C827002007
:10B81000F021002010A80200F7B5089E05001529A8
:10B8200022D8012007008F40244C27421CD0E97FFA
:10B83000CC181F2C41DC69183418A14210D8002103
:10B84000C8B2834204D9545C701884700131F7E7A0
:10B8500032789A183270EA7F9B18EB7700202CE040
:10B860000878C8540139E8E73478013CE4B2A342CF
:10B8700008D10023D9B28C42F0D9D05CF11888707D
:10B880000133F7E7EF7F0120FF183F1B1F2F14DC68
:10B890000227A01C7F423618381B0190E87F2F1822
:10B8A000BE4204D23078019FF0550136F6E7041B02
:10B8B000023CEC7728000BF090FAFEBDFC00200063
:10B8C000F0B585B001930AAB1E880BAB1B78451C05
:10B8D00002930EAB1B78040003930B7817000370E0
:10B8E0004B8A10224382013128000DF099FE6B46ED
:10B8F0009B88268363836B461B7B002623776B46DE
:10B9000001221B7A6761E683EB77A31CDA770C9B35
:10B910000C256362230020000D9A28331A705E7094
:10B920009E702A0031002C300DF096FE2000074B4F
:10B93000E663A3632A00310040300DF08DFE200045
:10B94000034B2665E36405B0F0BDC0465D6D0200A3
:10B950004F6D020070B50D000CF044FB040003684D
:10B96000002D09D15B699847FA2080006843074998
:10B9700004F044FFE08070BD9B6898478542F3D295
:10B98000236820009B6898470500EDE771020000DE
:10B99000F0B507001600A1B002C704006B4918A853
:10B9A0001D000BF061FA331E03D030000DF094FE41
:10B9B00083B2012204920022039202920232019287
:10B9C0000093320018A93800FFF77AFF230060497E
:10B9D000583318A807930BF047FA2B1E03D0280002
:10B9E0000DF07AFE83B201220492002203920292A9
:10B9F0000232019200932A0018A90798FFF760FF0E
:10BA000023005449AC3318A808930BF02DFA269B59
:10BA1000002B03D018000DF05FFE83B201220492C8
:10BA2000002203920292023201920093269A18A9F0
:10BA30000898FFF745FF631CFF33474918A809938F
:10BA40000BF012FA279B002B03D018000DF044FED8
:10BA500083B2012204920022601C039202920232FD
:10BA600001920093279A18A9FF30FFF729FF2300BE
:10BA70005533FF33394918A809930BF0F5F9289B82
:10BA8000002B03D018000DF027FE83B20122049290
:10BA9000002203920292023201920093289A18A97E
:10BAA0000998FFF70DFF2300A933FF332C4918A88D
:10BAB0000A930BF0D9F9299B002B03D018000DF045
:10BAC0000BFE83B201220492002218AD039202926F
:10BAD000023201920093299A29000A98FFF7F0FE9A
:10BAE000204B1B780B93002B2DD1079B12971393A0
:10BAF000089B0DAF1493631CFF331593099B1A49E0
:10BB000016930A9B380017930BF0AEF91D214920BC
:10BB10003B7810222B707B8A12AE6B8206ABC91861
:10BB2000C0180DF07DFD06232B756B469B8D20689C
:10BB3000AB83AE610CF05AFA036829001B68984782
:10BB40000122084B1A70200021B0F0BD292A000004
:10BB5000242A0000252A0000272A0000262A0000A7
:10BB6000282A0000AA2A00200A18000070B5002523
:10BB700004000A4B8580083385710360C16018306A
:10BB8000FDF73AFC20001C30FDF736FC044BA560A5
:10BB90001C60012365612000A37170BDE49A02005E
:10BBA000C8270020FA2130B585B005000123022204
:10BBB000890068460AF01DF9074C2068002809D062
:10BBC0000BF08BF92988054B2268198002239179A3
:10BBD0000B43937105B030BDC8270020502A0020C8
:10BBE00010B50C0007290DD880680CF0FBF9064B46
:10BBF000195703685B6C9847431E9841034B4042BA
:10BC0000184010BD0248FCE708A8020016FCFFFF20
:10BC100017FCFFFFF0B5A44C0D00A54404000793EA
:10BC20009AAB1B78A14909A804930692FDF7AAFBD9
:10BC3000200029001C300AF0A0F8C020800001F08C
:10BC400015FC0820FDF792FA0600002100F0D0FF55
:10BC500015ADA66000210C220EA80DF0FDFC2B00F6
:10BC60000EAA83CA83C3924B2900EB6000233000E5
:10BC70002B610CF0A0F9A0680CF0B4F908220021A7
:10BC8000059016A80DF0E8FC1420FDF76FFA2900C6
:10BC90000200884B1593C8C9C8C2874B059EC36074
:10BCA0000023A43603613368002B00D0F5E0306038
:10BCB000A0680CF09BF908220021060016A80DF0E0
:10BCC000CBFC1420FDF752FA7C4B1593030086CD74
:10BCD00086C37B4BC36000230361336B002B00D012
:10BCE000DDE03063A0680CF07DF90822002105003A
:10BCF00016A80DF0B1FC1420FDF738FA714B15AE03
:10BD00001593030086CE86C36F4B9835C36000231E
:10BD100003612B68002B00D0C3E02860012504AB31
:10BD20001B7C04AA2B4308A9280013740BF00DF800
:10BD3000A0680CF05FF9036864495B6A9847A068E3
:10BD40000CF058F9036862499B699847A0680CF0A9
:10BD500051F9002302680093166804992A00B0473D
:10BD6000049B002B0AD020000BF0C0F8032805DD4F
:10BD7000A0680CF03FF90368DB6898470EA80BF049
:10BD800023F82F2004ABC0180BF01EF8362004ABAC
:10BD9000C0180BF019F83D20042504ABC0180BF0B7
:10BDA00013F80EAB0A93A06804AB5D770CF022F990
:10BDB00003680AA91B699847A0680CF013F9036887
:10BDC0000AA95B6D9847A0680CF00CF90368002184
:10BDD000DB6D9847A0680CF005F9036802219B6DA4
:10BDE000984700212000FFF7FBFE1820FDF7BEF961
:10BDF000A16800F005FA374B374A1B68A168039326
:10BE0000364B15A81B6800260293354B0CAF1B68F8
:10BE10000193069B1B685B190093324B12681B68E9
:10BE2000FFF7B6FD3020FDF7A1F9079AA16800F0F1
:10BE3000A7FAA0680CF0D6F8036839009B6A984707
:10BE4000294BBE80A0680C930CF0CCF80368390035
:10BE5000DB6A98472900A0680BF012F8099A0921BB
:10BE60009378A06852190BF01EF8A0680CF0BAF88D
:10BE7000C8210671A068FFF76DFD04AB1B7FB342BC
:10BE800004D0A0680CF0AEF80AF0E4FF09A809F0AD
:10BE900015FF95239B009D44F0BD036107E70361F7
:10BEA0001FE7036139E7C046ACFDFFFF03A90200AD
:10BEB0006B6D0200A5BB0100796D02003DB601006B
:10BEC000876D0200B56D0200956D0200EDBE0100A8
:10BED00021BF0100C4270020C02700200820002027
:10BEE000BC2700200C2000200800100013B50622FB
:10BEF0006846FDF757FA094B1C68002C0AD06946C2
:10BF000001A809F032FF200001A90BF010F801A8E8
:10BF100009F0D4FE684609F0D1FE13BDC827002001
:10BF2000002373B501AE0C0031000500019303F04E
:10BF30004FFD002802D1B278064B1A70064B1868E4
:10BF4000002806D061426141044BC9B21D800AF04D
:10BF5000F6FF73BDF0210020C8270020502A0020E2
:10BF6000F0B5040097B0039107A89C490592FDF72E
:10BF700009FA9B4908A8FDF705FA22000FAD280031
:10BF80001C3207A909F008FF08AA290009A809F02E
:10BF900003FF280009F092FE92490AA8FDF7F2F982
:10BFA000A0680CF01FF803680DAE5B699847280085
:10BFB0000AF00AFF332004ABC0180AF005FF3A204C
:10BFC00004ABC0180AF000FF412004ABC0180AF00F
:10BFD000FBFE8023DB00B380A0680D950CF002F817
:10BFE000036831005B6D9847A0680BF0FBFF0368A6
:10BFF00000219B6D9847A0680BF0F4FF0700002517
:10C0000006000A371F22002138000DF025FBFD77BE
:10C0100030000AF016FF0621A0680AF031FF099AE5
:10C0200009219378A06804320AF03DFFA0680BF064
:10C03000D9FFC8210571A068FFF78CFCA0680BF040
:10C04000D1FFFF272E000581A0680BF0CBFF0AF07F
:10C0500001FF0398FEF7BCFA0AA90CA809F085FEB7
:10C0600078220CA90398FEF70BFC0CA809F026FE19
:10C07000039920000AF076FF2000FCF79DFE04954E
:10C08000012563691D402DD057490BA800F0ACFC79
:10C090000BA90CA80BF0E9FE00220CA913000192D9
:10C0A00000920398FEF790FB0CA80BF0D1FE049BC6
:10C0B000002B42D1043F282F41DD0025FE2F00DC5C
:10C0C000049D05980AF036F8002806D0012362691D
:10C0D0009A43130004221343636100260BA80BF05C
:10C0E000B7FE049504226369134233D0FF210398FD
:10C0F000C826FEF7EBFB0025B600A36902229B5E73
:10C10000AB4222DD200029B2183009F05BFE00238B
:10C11000010003981A00743000F0B6FC3000FCF700
:10C12000E3FE03980AF023FAC820FCF7DDFE0222A2
:10C130006369134209D10135DFE70437BBE7039890
:10C140000AF015FA002FBCDDBAE7FA208000FCF7F0
:10C15000CBFE0026022365691D421CD006331D401C
:10C1600024D022490BA800F03FFC0BA90CA80BF02F
:10C170007CFE00220CA90192009213000398FEF7A6
:10C1800023FB0CA80BF064FE1948FCF7ADFE0BA8CE
:10C190000BF05EFE174E6420FCF7A6FE164B013630
:10C1A0009E4200DC6CE709F055FC69E713490BA8D7
:10C1B00000F01AFC0BA90CA80BF057FE2B002A006C
:10C1C0000CA9019500950398FEF7FEFA0CA80BF058
:10C1D0003FFE0BA80BF03CFEDDE7C0461CA80200AA
:10C1E0002CA802002EA802003CA8020081A8020090
:10C1F000983A00008C0A00008B0A0000BEA80200DA
:10C200000022594BF0B50833060003600F00100000
:10C21000A9B0B1600BAB991801324870102AFAD15D
:10C220000F3A524C1A700E32105D991A0874013A86
:10C23000FAD2997B5A7B09020A4331000C310391EF
:10C2400025211B7813AD2B7002ABC918452302A81A
:10C250001B186A82180010220DF0E2F9039B64217A
:10C260006B610123002402AA2B775218199309331A
:10C2700013701DAB1C706D2302AA9B181C706E23DB
:10C2800021009B181EA80C22EC836C621C700DF020
:10C29000E3F9374B0C22210023A8AB63EC630DF0CC
:10C2A000DBF9344B02AAEB6446239B180322DA77AE
:10C2B00022002C650595347306AD2B1901345A7094
:10C2C000102CFAD101232C482B700E33195CEA1A7A
:10C2D0001174013BFAD211212520AA7B6B7B12023B
:10C2E0000BAC13432A78638202ABC9182270C018C2
:10C2F00010220DF095F90123237505ABA3610023EE
:10C300003800A3830BF072FE036821001B68984776
:10C3100013ABDB8BB068B3820BF068FE00220368BE
:10C320000092B18A039ADC680123A047B0680BF041
:10C330005DFE07001420FCF719FF00220123040012
:10C340000261069240C00832290007930DF068F997
:10C350000A4BE360BB69002B03D13000BC6129B0FC
:10C36000F0BD2361F9E7C046FC9A02002DA9020046
:10C370005D6D02004F6D02003DA90200C56F020015
:10C38000F0B500260400734BDDB008330360816014
:10C39000C2608680867132006F4947A80AF0B2FEFB
:10C3A00023001433012504270893122300970495D2
:10C3B0000193089A330047A9039602961DA8FFF738
:10C3C0007FFA3200654947A80AF09CFE0820220047
:10C3D0000097330015AF10320495019047A90396DA
:10C3E000029632A8FFF76CFA32005D4938000AF075
:10C3F00089FE2300082004221C33099339003300EE
:10C400000495019000920396099A029647A8FFF7B7
:10C4100057FA3200534938000AF074FE5420FCF7F2
:10C42000A5FE0500200001231221042218300790E8
:10C430000493019100923900020033002800039612
:10C440000296FFF73DFA2800474BA5620822EC62EE
:10C450000AA930300A930B960DF0E2F8434B042200
:10C46000AB63012329352B7009992661E661079892
:10C470000DF0D6F80422079908980DF0D1F866213E
:10C48000032304AA8918CB77BA2104AA8918CB7789
:10C49000872104AA49008918A26ACB77911CA68536
:10C4A000CB771DAB0C9332AB0D930F9247AB3200A1
:10C4B0002F4910A80E930AF025FE3021452004AB29
:10C4C0005B181B7812313B7004AB5B181B88113969
:10C4D0007B8204ABC918C01810220DF0A1F8042209
:10C4E0000CADA0683A75BD61BE830BF07FFD03689B
:10C4F00039001B689847822204AB9B181B88543272
:10C50000238404AB9B181B885432A38404AB9B1870
:10C510001B88A06863840BF069FD07001420FCF7FA
:10C5200025FE0500134B066108221093119610A9F1
:10C5300010C00DF075F8104BEB60BB69B34206D12B
:10C54000BD612000FCF738FC20005DB0F0BD2B6120
:10C55000F6E7C046089B02006DA902004DA9020043
:10C560005DA902007DA90200D7700200437002009D
:10C570008DA90200E5C501006D700200F0B5040050
:10C580000E00150085B01F000CAB1B881030019306
:10C5900009F025FC268065801820FCF7E7FD02AE37
:10C5A000050033000AAA03CA03C32F602800082726
:10C5B00000213A000C300DF04FF83A003100281DF0
:10C5C0000DF02EF8064B02226B612000002301992A
:10C5D000A5600A43E360A2802362636205B0F0BDF8
:10C5E00097700200F0B50B898DB00593CB680600FB
:10C5F00004934B88828C9A420ED1049C049B059A2A
:10C600009B181B1B032B3BDD62882188012308A894
:10C6100009F0EFFB0434F1E7428C9A4230D1049CDC
:10C62000049B059A9B181B1B032B29DD23882820BC
:10C6300006936388F7680793124B089300230993C6
:10C64000FCF794FDC0236A460500029308AB03CBB8
:10C6500003C233000699079A2800FFF78FFF3B6853
:10C6600029005B6838009847002807D0002D05D0C6
:10C67000280009F0D9FA2800FCF798FD0434CFE728
:10C680000DB0F0BD5571020070B5040090B0806827
:10C690000AF05BFD022101401AD1A38D002B17D0B7
:10C6A0000C4B6A4604931023E568A185059102931B
:10C6B00004AB41CB41C20A00230006A8FFF75EFF8E
:10C6C0002B6806A99B682800984706A809F0ACFAD1
:10C6D00010B070BD55710200002815D00060416097
:10C6E0008260C360046145618661C761444604623B
:10C6F0004C464462544684625C46C46264460463A9
:10C700006E46466374468463002A06D0C46B043CBC
:10C71000043A25681560B442F9D18C6BA6464E6B7D
:10C72000B546002B06D0CC6B043C043B1D6825604D
:10C73000B442F9D10C6BA446CC6AA3468C6AA246DB
:10C740004C6AA1460C6AA046CF698E694D690C6996
:10C75000CB688A68086849687047006041608260F9
:10C76000C360046145618661C761444604624C460A
:10C770004462544684625C46C462644604636E4606
:10C78000466374468463C46B043C043925680D60B9
:10C79000B442F9D1C7698669456904697047006088
:10C7A00041608260C360046145618661C76144463F
:10C7B00004624C464462544684625C46C4626446E9
:10C7C00004636C4644637446846304697047846BF5
:10C7D000A646446BA546046BA446C46AA346846A75
:10C7E000A246446AA146046AA046C76986694569AB
:10C7F0000469C368826800684168704710B5041E08
:10C800000CD00CF069FF431EE3189C4208D222783A
:10C810001978013B21705A700134F6E7014810BDC8
:10C820000020FCE717FCFFFFF0B585B002900C1E5E
:10C830002AD00023C217161A56400193019B3000DC
:10C840005D1C63190A215F1E039304F047F94942F6
:10C850003031397030000A2104F05AF8474206009E
:10C86000002F0FD1029B002B04DA2D23019D039A88
:10C8700002351370002320006355FFF7BFFF380017
:10C8800005B0F0BD0195D9E7004FF8E717FCFFFFB1
:10C8900010B582604A4304004160002A0ADD074B5C
:10C8A00090009A4201DD01204042FCF75FFC2060CD
:10C8B000200010BD00230360FAE7C046FEFFFF1F03
:10C8C0004A688B6870B58360534304000D00426072
:10C8D000002B12DD0A4A9E003000934201DD012048
:10C8E0004042FCF743FC002320602A68D158C15025
:10C8F00004339E42FAD1200070BD00230360FAE7A2
:10C90000FEFFFF1F014B03607047C046209B0200E3
:10C9100030B500684488A1420CDA8588AA4209DA59
:10C92000002907DB002A05DB5443401800198371F6
:10C93000002030BD0048FCE717FCFFFFF0B5070002
:10C9400085B00E001D0000291FDD002B1DD00468DE
:10C95000638803938B4200DD0391A3880293934283
:10C9600000DD0292002306340193019B029A934258
:10C970000EDA29002000039A0CF052FE3B68AD1934
:10C980005B88E418019B0133EEE7024805B0F0BD77
:10C990000020FBE717FCFFFFF8B504000D001600B0
:10C9A0001F00002901DB002A02DA0E4B2360F8BDCC
:10C9B000100048430630FCF7D9FB206009F067FA05
:10C9C00023685D8023689E80002F06D03B003200E4
:10C9D00029002000FFF7B2FFE9E720000BF04DFA35
:10C9E000E5E7C046209B0200F0B5060087B00D1EAB
:10C9F00004D1244B0360300007B0F0BD00200F00CD
:10CA00000400010001903B78002B1AD030225242E2
:10CA100094469C446246092A11D90A2B0AD1019BEB
:10CA2000241801330193A14200DA21000020040000
:10CA30000137E8E70028FBD001340020F8E70120A7
:10CA4000F6E76A46928809B212B23000FFF7A4FFF7
:10CA500033689C1D03AB1F002A78002ACBD011003D
:10CA60003039092903D81A7001330135F4E700225F
:10CA70001A70BB42F9D938000CF0B2FD3B002070AF
:10CA80000134F2E7209B0200F0B5040089B006A84B
:10CA90000E0002921D00FCF7F3FA236802995A88EF
:10CAA000914235DA9B889D4232DA1F2E30D9079B9E
:10CAB00001939E422CDC0523002273430393069BC3
:10CAC0000493039B04999B18A03BCB5C0021059326
:10CAD000AE18029BCF1823685888019087420EDA5F
:10CAE0009888B0420BDDDB1910270F410198704385
:10CAF0001B1805980740781E87417F429F710131BE
:10CB00000529E6D10132052ADBD1002009B0F0BDAC
:10CB10000048FBE717FCFFFFF7B5046807006388D0
:10CB20000E1E01931EDD994218DA0023063400938D
:10CB30003B68009A9B889A4212DA019BA1199D1BBF
:10CB40002A0020000CF06CFD601931000BF087F911
:10CB50003B685B88E418009B0133E8E70BF08DF934
:10CB6000002000E00048FEBD17FCFFFF10B505489F
:10CB7000054C206009F08EF9044A054920000CF0AC
:10CB800008FD10BD209B0200CC27002000200020C3
:10CB9000517E020070B5002817D1114D2E68002E6D
:10CBA00011D108300CF000FD066046600D4E040007
:10CBB0003368002B02D10BF050FC306023682C60EE
:10CBC0009B00F3586360286870BD0122064907483E
:10CBD0000B681340F8D1026043600A60F4E7C04676
:10CBE000D4270020E0270020D0270020D8270020CD
:10CBF000002370B504000160436099420AD1064DDC
:10CC00002B68002B02D10BF028FC286023689B00C6
:10CC1000EB586360200070BDE0270020436810B52A
:10CC20000400002B02D104480CF0CCFB60680368C0
:10CC30001B69984710BDC0469DA90200436810B506
:10CC40000400002B02D104480CF0BCFB60680368B0
:10CC50009B69984710BDC0469DA90200436810B566
:10CC60000400002B02D104480CF0ACFB60680368A0
:10CC70005B6A984710BDC0469DA9020000487047F6
:10CC8000FFFF0000F0B597B00593036807AD1B6880
:10CC90000491039311002B00060091C991C3002455
:10CCA000D36821000C220CA8EB602C610CF0D4FCA2
:10CCB00022000B4B10940F9311AB1C701919013407
:10CCC0004A70102CFAD15A820193059B2A000093D6
:10CCD00004990CAB3000039CA04717B0F0BDC046D0
:10CCE0001381020070B5FC30046C0500002C0DD1DE
:10CCF00024200CF059FC064B44608361054B846092
:10CD0000C46004614461C46103602864286C70BD20
:10CD1000FC9B0200E49C020070B5FC30C56B040073
:10CD2000002D11D134200CF03FFC084B856043608E
:10CD3000074B45610361074B0562C361064BC56242
:10CD40008362064BE0630360E06B70BD2C9C0200C5
:10CD50001C9C02008C9C02009C9C0200AC9C02006B
:10CD60007FB503791548002B22D0154E154C33782A
:10CD70002000002B1CD102AD28000BF0A7F90028E1
:10CD800010D16B88592B0DD12B78AA88D91F012976
:10CD900010D800920C4A2021200008F0E5F8012369
:10CDA000337004E02022094920000CF09CFC200094
:10CDB00004B070BD0092064AEDE7C046C0A902006B
:10CDC000CB2A0020AB2A0020E2A90200DAA9020047
:10CDD000FFA9020010B50400024B08C00BF056FA80
:10CDE000200010BD1C9C020010B50400024B08C0BE
:10CDF0000BF061FA200010BD2C9C0200064B70B5B0
:10CE0000040003604068002804D005690CF0C8FBEA
:10CE10002800F8E7200070BD0C9C0200064B70B59E
:10CE2000040003604068002804D005690CF0B8FBDA
:10CE30002800F8E7200070BD3C9C0200064B70B54E
:10CE4000040003604068002804D005690CF0A8FBCA
:10CE50002800F8E7200070BD4C9C0200064B70B51E
:10CE6000040003604068002804D005690CF098FBBA
:10CE70002800F8E7200070BD8C9C0200064B70B5BE
:10CE8000040003604068002804D005690CF088FBAA
:10CE90002800F8E7200070BD9C9C0200064B70B58E
:10CEA000040003604068002804D005690CF078FB9A
:10CEB0002800F8E7200070BD309B0200064B70B5DB
:10CEC000040003604068002804D005690CF068FB8A
:10CED0002800F8E7200070BD409B0200064B70B5AB
:10CEE000040003604068002804D005690CF058FB7A
:10CEF0002800F8E7200070BD509B0200064B70B57B
:10CF0000040003604068002804D005690CF048FB69
:10CF10002800F8E7200070BD609B0200064B70B54A
:10CF2000040003604068002804D005690CF038FB59
:10CF30002800F8E7200070BDFC9B020070B5FC30B3
:10CF4000046C0500002C0DD124200CF02DFB064BA9
:10CF500044608361054B8460C46004614461C461C2
:10CF600003602864286C70BDFC9B0200E49C0200F6
:10CF7000104B10B5083303600F4B0400C3608023CF
:10CF80000E4A5B00C250C018FDF7F8F920000C4BA8
:10CF9000B830E360FFF7B2FF2000AC30FFF79EFF30
:10CFA0002000A030FFF78AFF20006C30FFF776FFEB
:10CFB000200010BD109D0200889D0200C49E02004A
:10CFC000709B0200F8B505000400AC356B68AB60DF
:10CFD000A868002807D0C36821009847AB68002BD9
:10CFE000F4D01B69F3E72500B0352868002804D089
:10CFF00006690CF0D5FA3000F8E72200FC21286021
:10D00000583213780B40137023005C3318702000E3
:10D010000A300BF019FA200034300BF015FA606E6C
:10D02000002804D005690CF0BBFA2800F8E72500B9
:10D03000983560662868002804D006690CF0B0FABC
:10D040003000F8E72600A43628603568002D05D0AA
:10D050002F6928000CF0A4FA3D00F7E720003560A6
:10D0600029000C226C300CF0F7FA2000074BE56722
:10D07000A36729000C2280300CF0EEFA2300044A4A
:10D080008C33903428001A602560F8BDF7800200C8
:10D09000E9800200444AF0B50600C260A022434B7A
:10D0A0001636083303600100002342820400320078
:10D0B00085B003718360037483823531137001324C
:10D0C0009142FBD1802580222000AD00D201F37770
:10D0D0003584110000933830002300F039FF23001D
:10D0E0002100403303931A002B0000255F31157097
:10D0F00001328A42FBD1039AFC21D57722006032AB
:10D100001380137920000B401371230068331D70C6
:10D11000274B2567E3660C22002178300CF09CFA3F
:10D120002300270088331D60224B0837FB678437B4
:10D1300000210C2238000CF08FFA1F4B1F4AFB60B5
:10D140002300A0333D611A601D4A5D60DA601D4A0C
:10D150001D619A61DD6130000BF076F903980BF0E8
:10D1600073F9194B601CE3602300C4331D705D70BC
:10D170009D70FF3002F0FCFC8C235B00E550230027
:10D180001933FF335D618023104A5B00E2502300B6
:10D1900001222000FE3352425A86023B9D63DD632A
:10D1A0001D6405B0F0BDC046709B0200109D0200DA
:10D1B000309B0200F7800200E9800200409B0200E1
:10D1C000509B0200609B0200889D0200C49E0200EA
:10D1D00070B5074C2368002B07D1A02040000CF04D
:10D1E000E3F90500FFF756FF2560206870BDC046D3
:10D1F000E427002070B50C220D00002104000CF083
:10D200002BFA00232361024B25602000E36070BDF0
:10D210000581020070B500250400254B8580036060
:10D22000244BC5608360244B85614361234B456279
:10D230000362234B0563C362224BC56383632900EA
:10D240004430FFF7D7FF200029005830FFF7D2FF06
:10D25000200029006C30FFF7CDFF1B4B220023601C
:10D2600023008032F83320C29342FCD126001D00F7
:10D27000E936FF3628000822002108350CF0ECF9C9
:10D28000AE42F7D18E2300229B00E11804C6B142C2
:10D29000FCD18E2300219B00E2540C4B0C4AE31876
:10D2A000A218198002339A42FBD1200070BDC046FB
:10D2B0005C9C02000C9C02001C9C02002C9C020046
:10D2C0003C9C02004C9C0200589D02003A02000067
:10D2D0006202000010B5040001F01CFA034B1B6849
:10D2E000002B01D02000984710BDC046EC2700203D
:10D2F000F0B58BB0050002F0ABF90020FFF768FF36
:10D30000036807001B6998473B6804009B69380065
:10D3100098473B6806005B6A3800984703002888F6
:10D3200010380B2862D803F05FFA063E6161615B3A
:10D33000616161676179AF88200039000BF06EFD93
:10D3400022006B7B583201931378A8799C46022304
:10D3500061460B43137004AB1F80012304AA937032
:10D36000D07013006A461279E91D9A722B000622CA
:10D37000163305A809930CF053F929000B2004ABD0
:10D3800006220E31C0180CF04BF994346368A36088
:10D39000A06800282AD0C36804A99847A368002B76
:10D3A000F4D01B69F3E720002F49AF880BF036FD5E
:10D3B0002200022058321378A9798343137004ABFA
:10D3C0001F809970A0346368A360A06800280DD006
:10D3D000C36804A99847A368002BF4D01B69F3E73E
:10D3E0005B69A888A91D002B00D098472900300050
:10D3F0000BF095F90BB0F0BD636E002BF6D0AF7952
:10D40000A366A06E0028F1D0C36839009847A36EC8
:10D41000002B01D1636EF3E71B69F1E70122694636
:10D420000D27AB7BEF571A4001925A07920FDB088A
:10D430000A720B730622E91D04A80CF0F1F86A4683
:10D44000127904ABDA716A46127A9F711A726A46CF
:10D45000127B20005A722B000F3307938C348030DC
:10D46000236804A99847C1E7FFFF00000723D728D6
:10D4700002D9024B1860002318007047E8270020EB
:10D48000014B18607047C046EC2700201FB5802272
:10D49000A323D205DB00D3580820DB0700D40530D6
:10D4A0001C4B48221C4901F03FFC00280AD080B2E6
:10D4B000002807D1BFF34F8F184B194ADA60BFF32A
:10D4C0004F8FFEE7002302A8029301330370154B30
:10D4D0001B6843600BF047F8002802D0072005B016
:10D4E00000BD68460BF03DF80028F7D169460BF007
:10D4F00036F80028F2D10C4801F046FC80B2002832
:10D50000EDD10A4801F04AFC80B20028E7D100F0D2
:10D5100085FBE4E76B850200F027002000ED00E0CA
:10D520000400FA05E8270020F1D20100D5D201005D
:10D5300080B2002807D1BFF34F8F034B034ADA6054
:10D54000BFF34F8FFEE7704700ED00E00400FA05DF
:10D5500013B504680093A46813000A000149A047AA
:10D5600016BDC046FFFF000037B506AC257804683D
:10D5700001950093246913000A000149A0473EBDAC
:10D58000FFFF0000F0B587B00D00002469466F462C
:10D5900016004C800DAA0CA90988127839800193D5
:10D5A000A2421BD101004479F83194420DD90831CF
:10D5B0000F00083F3F88B7421BD130212032920034
:10D5C00012580132D27F0A4215D16A463100280032
:10D5D0000AF0D3FF002808D1062407E06A4631008C
:10D5E00028000AF0CAFF002800D00324200007B05A
:10D5F000F0BD0132D9E710210A4051424A410020D2
:10D6000002ACE3600CABA360174B01322680A27022
:10D61000A0809D4207D1FFF7DBFD03681B69984797
:10D620000BF0FFFB0500210028000AF0AAFF0024F0
:10D6300082B2A242DAD0112A13D00BD8082ACBD05A
:10D640006A46310028000AF098FF05240028CDD052
:10D65000023CCBE7054B9A4203D0054B9A42EFD1EF
:10D66000BAE70524C2E7C046FFFF00000330000010
:10D6700001340000F0B5050099B008002E240C918B
:10D6800000F00EF906ABE4181290220012A9012056
:10D690000AF071FF002802D0032019B0F0BD2388E2
:10D6A0000C9A0B9093830C9B0B9A1B7D934200D892
:10D6B000C6E06B791D2B01D90720EEE70C9B9B6917
:10D6C0000D930B9B0D9A9B009C586369002B07D10F
:10D6D000638B002B04D1631CDB7F022B00D1AAE0FB
:10D6E000200000F0DDF823000026283312900E966B
:10D6F0000D960F930F9B1B78B34221D9626AB3003A
:10D700009F58342206AB9B1800221A700023002178
:10D7100013AAD21801335170102BF8D1462206AB50
:10D720009B184A4A13A938001A800AF0A9FF00285A
:10D7300003D07B690D937B8B0E930136F6B2D9E74C
:10D740006979A31C1F31C9006918621CDB7FD27F75
:10D75000089121002A310978002007912100293100
:10D76000097806910E9905910D990491217F0391F5
:10D77000218B0291618B01916169009112A90BF0DB
:10D7800001F9002800D087E76B7907001A002032E2
:10D7900092001F335451DB005B5BE3836B790133F1
:10D7A0006B71230028331B78BB4244D98E239B0026
:10D7B000EB5C132B00D97FE7626ABB009E58002305
:10D7C000180013A90B70CA1801335070102BFAD12E
:10D7D0001E4B30004B820AF053FF0D90002827D1DA
:10D7E000300000F05DF88E2189006A5C738B1E3278
:10D7F000FF325200AA180292327F12900192328BAD
:10D8000012A9009272690D9800F09AF8002800D0D1
:10D8100042E78E2189006A5C531CDBB26B541D33D6
:10D820007A32FF3392005B005651EB185B88F3832A
:10D830000137FFB2B5E70B980130C3B20B9332E763
:10D840002B79002001332B7127E7C0460129000006
:10D8500070B505000AF026FE04000620002C1CD13D
:10D8600028007822210080300BF0F6FE2800E930F5
:10D8700050222100FF300BF0EFFE2800082221008B
:10D88000F8300BF0E9FE054B2822E81821000BF0D8
:10D89000E3FE8E2320009B00EC5470BD3A02000092
:10D8A000F0B5438A85B00193037805000126002B6B
:10D8B00035D0214A00241100831900931F4B1F68A3
:10D8C000A74210D00023981E012804D90098D65CE6
:10D8D000C05C86422CD10133102BF4D111235C4360
:10D8E00009190E7C1BE000980BF035F82B78070027
:10D8F0000600002B01D112350095042C0FD0112504
:10D9000065430D4B10225D19009928000BF088FE2D
:10D910000023AB70EB70094B01342F741C6003AB18
:10D920009E705888019B00040343180005B0F0BDA9
:10D9300001341132C4E7C046CC2A00203828002028
:10D94000F0B589B000930EAB1B8805000F001600E0
:10D95000019303220FAB002102A81C780BF07CFE80
:10D9600001230E201C40DB181C4302AB9C700E4BA5
:10D9700002AA138002AB06220021C0180BF06CFE35
:10D9800003AC02AB63606B461B88109A23816B4625
:10D990009B88210028000397A38126610AF0D7FF06
:10D9A00080B209B0F0BDC0461111000070B5002072
:10D9B0000D00FFF70DFC03685B6A98472B780400A5
:10D9C000142B1ED003D8132B0CD0002070BD152BA8
:10D9D0001FD0222BF9D16B6818882369002BF4D053
:10D9E0009847F2E76B68012518889B7864681900EE
:10D9F0005A08DB0629402A405B0F002CE5D0A047DF
:10DA0000E3E76B6818889978A368002BDDD0984706
:10DA1000DBE76868827813091207120F012A03D026
:10DA2000022A0BD0002106E0013BDBB20021022BD1
:10DA300001D8064AD15C0088E368E6E70421012B9F
:10DA4000F9D00131022BF6D0ECE7C04624AA02003F
:10DA5000014B18787047C046102B0020F0B51D0010
:10DA60000023304F87B000923A7806000C009A42AB
:10DA700004D100F083FE002803D00B23180007B068
:10DA8000F0BD002D0ED003A9222003950BF026F83F
:10DA9000002807D006230828F0D01138434243411C
:10DAA0000433EBE7002302AA1000137001F08AFB95
:10DAB0000028E2D101251C4902220B782E40AB43FD
:10DAC0003343072693430193009B2C4033409340FC
:10DAD000AC409C46019B02AA1C431C239C4363460A
